:02000004081CD6
:10000000880B00382F4E1C086F4C1C086F4C1C08C6
:100010006F4C1C086F4C1C086F4C1C080000000043
:100020000000000000000000000000009D4C1C08C3
:100030009D4C1C08000000009D4C1C08474C1C08EF
:100040009D4C1C089D4C1C089D4C1C089D4C1C087C
:100050009D4C1C089D4C1C08C54C1C08ED4C1C08F4
:10006000154D1C083D4D1C08654D1C089D4C1C0879
:100070009D4C1C089D4C1C089D4C1C089D4C1C084C
:100080009D4C1C089D4C1C088B4D1C089D4C1C084D
:100090009D4C1C089D4C1C089D4C1C089D4C1C082C
:1000A0009D4C1C089D4C1C089D4C1C089D4C1C081C
:1000B000B34D1C08DB4D1C08034E1C089D4C1C084E
:1000C0009D4C1C089D4C1C089D4C1C089D4C1C08FC
:1000D0009D4C1C089D4C1C089D4C1C089D4C1C08EC
:1000E0009D4C1C089D4C1C089D4C1C089D4C1C08DC
:1000F0009D4C1C089D4C1C089D4C1C089D4C1C08CC
:100100009D4C1C089D4C1C089D4C1C089D4C1C08BB
:100110009D4C1C089D4C1C089D4C1C089D4C1C08AB
:100120009D4C1C089D4C1C089D4C1C089D4C1C089B
:100130009D4C1C089D4C1C089D4C1C089D4C1C088B
:100140009D4C1C089D4C1C089D4C1C089D4C1C087B
:100150009D4C1C089D4C1C089D4C1C089D4C1C086B
:100160009D4C1C089D4C1C089D4C1C089D4C1C085B
:100170009D4C1C089D4C1C089D4C1C089D4C1C084B
:100180009D4C1C089D4C1C089D4C1C089D4C1C083B
:100190009D4C1C089D4C1C089D4C1C089D4C1C082B
:1001A0009D4C1C089D4C1C089D4C1C089D4C1C081B
:1001B0009D4C1C089D4C1C089D4C1C089D4C1C080B
:1001C0009D4C1C089D4C1C089D4C1C089D4C1C08FB
:1001D0009D4C1C089D4C1C089D4C1C089D4C1C08EB
:1001E0009D4C1C0820061C08FFFF222D2D2D204DA4
:1001F0006563726973702D5374656C6C6172697399
:1002000020524120332E302E30202D2D2D0007B5C9
:100210009048002B09D000F03DF800F043F800F0C2
:1002200028F8426028210160F3E707BD00B589483E
:1002300000230168282905D1426800F004F800F085
:100240004EF8F6E700BD03B547F8046D160047F811
:10025000046D1E0008B400F0A3FF08BC013347F88A
:10026000046D7D4E47F8046D40F2612604F034FBC6
:1002700003BD03B5013B47F8046D1E0008B400F050
:1002800079FF08BC320047F8046D4FF4005604F0C3
:1002900023FB03BD03B5714801681E2901D000F09E
:1002A00034F803BD8169016201698161816801617E
:1002B00001688160C16941624169C161C168416190
:1002C0004168C1601E21016070470FB56148016837
:1002D0001E2903D0FFF7DEFFFFF7E4FF0FBD02B5D5
:1002E00081680160C168416000E002B50169816018
:1002F0004169C16081690161C1694161016A8161CE
:10030000416AC1611E21016202BD08B501681E2259
:100310000260082901D20B0004E0282909D14368B2
:1003200000F05BF847F8046D4D4E56EA033603F0D3
:100330009EF908BD00B500F009F800F00CF800F0D7
:100340000FF800F012F800F015F800BD0FB54348A3
:10035000FFF7DBFF0FBD0FB54248FFF7D6FF0FBD1C
:100360000FB54148FFF7D1FF0FBD0FB53F48FFF76D
:10037000CCFF0FBD0FB537480168062202601E2969
:1003800006D147F8046D4CF6407603F041F915E0CC
:10039000282909D1436847F8046D1E0047F8046D09
:1003A000062602F0DBFD09E0062907D047F8046DB8
:1003B00044F20666C9000E4303F02AF900F001F882
:1003C0000FBD24481E210162816101618160C1620B
:1003D0000621016000218162704707B547F8046D6E
:1003E0001E0000F045F847F8046D1E0002F0B6FD4F
:1003F00007BD07B5C16A282904D1016B994201D113
:10040000002307BD0168002918D08168002915D094
:100410000169002912D0816900290FD0016A0029E1
:100420000CD0036347F8046D1E0047F8046D0026E6
:1004300002F094FD2821C162002307BD47F8046D36
:100440001E0000F015F847F8046D1E0002F086FD4E
:1004500007BD000020080038200F1C0840080038A5
:10046000040D47F8380800383008003828080038EC
:1004700037B536480168826803698469056A0620D1
:1004800000F00EF8032000F00BF8022000F008F84E
:10049000012000F005F800232C481E21C16237BD61
:1004A000814209D0824207D0834205D0844203D0E2
:1004B000854201D0030037BD704747F8046D4CF604
:1004C000007600B581581E2905D1FFF7D1FF835072
:1004D000012199400E4300BD00B501681E2904D1D9
:1004E0000022FFF7EAFF03F093F800BD00B5816832
:1004F0001E2907D10822FFF7E0FF0022FFF7E1FFE6
:1005000003F086F800BD00B501691E290AD110224A
:10051000FFF7D3FF0822FFF7D4FF0022FFF7D1FF38
:1005200003F076F800BD00B581691E290DD11822AF
:10053000FFF7C3FF1022FFF7C4FF0822FFF7C1FF38
:100540000022FFF7BEFF03F063F800BD200800386B
:1005500000B50168282904D14368FFF73EFF036016
:10056000190000BD00B58168282904D1C368FFF7D0
:1005700034FF8360190000BD00B50169282904D14A
:100580004369FFF72AFF0361190000BD3EB5826889
:1005900003698469056A9A4203D0A24201D0AA4243
:1005A0000AD1072A08D847F8046DD600FFF760FF84
:1005B0001E43836003F02CF83EBD3EB5016882689F
:1005C00003698469056A914206D0994204D0A14228
:1005D00002D0A94200D03EBD47F8046DCE00FFF71F
:1005E00047FF1E43036003F013F83EBD00B5FFF75D
:1005F00076FEFFF76AFEFFF73BFF036000BD01B523
:1006000006480368013308D00023DB43036047F842
:10061000046D4BF2005602F0FBFF01BDD887003895
:1006200044061C084202043264757000386847F8BA
:10063000046D043F3860704700B500F0C3FC00F063
:10064000C1FC00BD62061C086202053264726F7054
:10065000043740CF704700B500F064FC00F062FC46
:1006600000BDA8061C08440205327377617007CFED
:10067000043F386047F8046D043F3A600E0070474D
:1006800000B5FFF750FF026803690360026142682A
:100690004369436042618268836983608261C268A2
:1006A000C369C360C26100BDD0061C086202043287
:1006B0006E69700007CF043F3860704700B5FFF7E0
:1006C00032FFFFF7DDFFFFF70AFEFFF708FE00BD70
:1006D000EA061C08440005326F766572B86847F870
:1006E000046D043F3860FE6870470E071C08440024
:1006F00005327475636B07CF043F386047F8046DAB
:10070000043F3A60043F3960043F38607047300767
:100710001C0846000432726F74003868B9683A6980
:10072000B86039613A6079687E60FE68F960704748
:1007300052071C08460005322D726F743868B9687C
:100740003A6938613960BA60F968FE607E6879603C
:1007500070477A071C08200203323E7201CF01B4B1
:1007600040B440CF704700B5FFF749FF00F0FDFBF4
:1007700000F09DFC00F09BFC00BDA6071C082002B9
:100780000332723E47F8046D40BC01BC043F386040
:10079000704700B5FFF733FF00F0A5FC00F0A3FCA5
:1007A00000F0E3FB00BDD6071C08200203327240B4
:1007B00047F8046D019E47F8046D009E704700B530
:1007C000FFF71DFF47F8046D49F6010603F043FCEF
:1007D00003F03DFC00BDFC071C08200206327264D9
:1007E000726F700002B0704700B5FFF708FF47F85E
:1007F000046D4BF2020602F00BFF00BD14081C084A
:1008000042000364322F3868F1077610400808432D
:10081000386070472A081C0862020364322A38686C
:10082000001876413860704717E044081C08420001
:100830000464736872003868F1077608400808435A
:100840003860704790081C086202046473686C008A
:100850003868001876413860704700B5FFF746FEEB
:10086000FFF776FEFFF7A9FE00F07FFBFFF770FEB3
:10087000FFF7A3FE47F8046D402601F00BFE00F0E1
:1008800074FB47F8046D44F2401601F003FE00BD0E
:10089000A2081C084200046461627300002E07D4A1
:1008A0007047C0081C08420007646E656761746584
:1008B00038680021C043F64301304E41386070472C
:1008C00010091C08640202642D0007CF121AB141FE
:1008D0000E00043F3A60704700B5FFF724FE00F0B9
:1008E00099FBFFF735FEFFF768FE00F03EFBFFF7D0
:1008F0002FFEFFF762FEFFF7C3FE01F035FD00F0AB
:10090000A5FB47F8046D44F2801600F04EFD00BDD3
:100910005E091C08640202642B0007CF12184E41C6
:10092000043F3A60704700B5FFF7FDFD00F072FB31
:10093000FFF70EFEFFF741FE00F017FBFFF708FE82
:10094000FFF73BFEFFF79CFE01F0F3FC00F07EFB9F
:1009500047F8046D44F2401600F02BFD00BD8809F5
:100960001C08610203733E6447F8046DF617704774
:1009700000B500F0C5FAFFF720FE47F8046D41F21C
:10098000C07601F087FD00BDE6091C086202037510
:100990006D2A3868A0FB06063860704747F8046D7A
:1009A000DFF8006500B5FFF7A1FDFFF7D1FDFFF708
:1009B000D9FD01680E43816856EA0146FFF78FFCB6
:1009C000FFF78DFCFFF781FCFFF752FD036056EA4D
:1009D0000336FFF77AFCFFF74BFD036056EA032668
:1009E00002F045FE00BD040A1C086202026D2A00E6
:1009F000386880FB06063860704747F8046DDFF8FA
:100A0000A864CFE7420A1C0844000375642A07CF94
:100A1000564341437618010C130C59437618010CC8
:100A200080B292B25143434350430022C91852410D
:100A30001204B6180A04090C80184E41043F3860AD
:100A40007047D40A1C0844000475646D2A0010B570
:100A5000002447F8046D7E6847F8046D3E69FFF78F
:100A600098FF310040CF300040CF47F8046D3E681A
:100A700047F8046DFE6803B4FFF78BFF03BC330037
:100A800040CF320040CF47F8046D3E6847F8046D10
:100A90003E690FB4FFF77DFF0FBC9219634140CF51
:100AA00089196241634140CF47F8046D7E6847F879
:100AB000046DFE680FB4FFF76CFF0FBC9219634121
:100AC00040CF89196241634140CF1E003A6079608E
:100AD000B86010BDF60A1C084300022A2F0000B5BA
:100AE00040B440CFFFF784FF47F8046D40BC00F0EE
:100AF0004CF8043700BD180B1C084300052A2F6D65
:100B00006F6400B540B440CFFFF772FF47F8046D43
:100B100040BC00F03AF800BD3A0B1C0843000375D6
:100B20002A2F00B540B440CFFFF733FF47F8046DDC
:100B300040BC00F01BF8043700BD5E0B1C084300EE
:100B400006752A2F6D6F640000B540B440CFFFF7E3
:100B500020FF47F8046D40BC00F008F800BD7E0B94
:100B60001C08430006756D2F6D6F640000B547F8D3
:100B7000046D002600F019F840CF043700BD9C0B2F
:100B80001C084300056D2F6D6F6400B547F8046DB8
:100B9000F61700F032F840CF043700BDEE0B1C080A
:100BA00044000675642F6D6F640030B4002300228A
:100BB0007968B86835003C68402640004941524198
:100BC0005B41AB4202D804D3A24202D3121BAB4119
:100BD0000130013EF1D10E0038607B60BA6030BC5C
:100BE000704730B400237A68B9680020E2E7640CEB
:100BF0001C08440005642F6D6F6400B5F01719D010
:100C0000FFF756FEFFF733FDF0170CD0FFF750FE4D
:100C1000FFF72DFDFFF7C9FFFFF729FDFFF748FE9E
:100C2000FFF725FD00BDFFF722FDFFF7BEFFFFF731
:100C30003FFE00BDFFF71BFDF0170ED0FFF738FE9B
:100C4000FFF715FDFFF7B1FFFFF732FEFFF70FFDCE
:100C5000FFF72EFEFFF70BFD00BDFFF708FDFFF7C6
:100C6000A4FF00BD7A0C1C08440002642F0000B5EC
:100C7000FFF7C3FFFFF71EFD00BDC20C1C084400B8
:100C800002662A0000B5F0170DD0FFF711FEFFF73E
:100C9000EEFCF0170DD0FFF70BFEFFF7D8FE40CFAC
:100CA00001CF386000BDFFF7E2FCF017F5D0FFF789
:100CB000FFFDFFF7CCFE40CF01CF3860FFF7F8FD16
:100CC00000BD0E0D1C08440002662F0000B5F01791
:100CD0000ED0FFF7EDFDFFF7CAFCF0170ED0FFF7BF
:100CE000E7FDFFF7C4FCFFF77CFFFFF7E3FC00BD67
:100CF000FFF7BDFCF017F4D0FFF7DAFDFFF7B7FC04
:100D0000FFF76FFFFFF7D4FDFFF7D4FC00BD560DD2
:100D10001C0820020232210006CF3160726040CFF1
:100D2000704700B5FFF7EFFB0168426806B400F0BA
:100D30000CFEFFF7CAFA06BC0160282906D047F866
:100D4000046D46F2400600F004FE00BD043242602D
:100D500000F0FBFD00BDA00D1C0820020232400087
:100D6000043F706838603668704700B500F0C8F816
:100D7000016828290AD047F8046D46F6400600F0BD
:100D8000C5FD00F0F2F800F0BDFD00BD4168043182
:100D9000416000F0B7FD00F0E8F800F0B3FD00BDE1
:100DA000B40D1C0844000364753C07CF121AB1410E
:100DB000B6417047C80D1C0844000364753E07CF58
:100DC000801A8E41B6417047DE0D1C084400026453
:100DD0003C0007CF121AB1410CDB00267047FA0D18
:100DE0001C08440002643E0007CF801A8E4101DBDC
:100DF000002670470026F6437047160E1C08620254
:100E00000364303C0437F617704700B500F0C0F8B3
:100E100000F058FB00BD3E0E1C0862020364303D2A
:100E200001CF0643013EB641704700B547F8046D57
:100E300044F2003600F0BDFA00F01EFB00BD640E67
:100E40001C08440203643C3E07CF50404E4006431A
:100E5000013EB641F643704700B500F015F800F0CA
:100E60001FFB00BDAC0E1C08440202643D0007CF0E
:100E700050404E400643013EB641704700B500F079
:100E800003F800F0F9FA00BD00B5FFF74CFB00F0E5
:100E9000C1F800F0C3F900F0D9F800F0BFF900F094
:100EA000B0F900BD0000A0FB000080FBBE0E1C08D6
:100EB00020000373704047F8046D3E007047CE0E6B
:100EC0001C08200003737021370040CF7047E00EEC
:100ED0001C0820000372704047F8046D6E4670478E
:100EE000F00E1C08200003727021B54640CF7047F9
:100EF000140F1C0861020364757047F8046D704795
:100F000006B5FFF7E9FA01684268FFF7DEF901600C
:100F1000426006BD400F1C0861020464726F7000DD
:100F200040CF704700B501681E2906D147F8046D0F
:100F300043F2047602F06CFB00BDFFF7D0F900BD70
:100F4000560F1C086100043F64757000002E01D02C
:100F500047F8046D7047820F1C08620204737761C2
:100F6000700039683E600E0070470CB5FFF7BEFA9E
:100F700002688368036082604268C3684360C2603D
:100F80000CBDB00F1C086202036E69700437704715
:100F900000B5FFF7A1FA81681E2902D0FFF7A5F975
:100FA00000BD47F8046D43F2047602F031FB00BD4A
:100FB000D80F1C086202046F7665720047F8046D52
:100FC0007E68704700B5FFF791FA8168C268FFF745
:100FD0007CF90160426000BDFE0F1C0862020474CF
:100FE00075636B0001CF083F7E603860704700B5C5
:100FF000FFF77CFAFFF784FF00F028F800BD3410FB
:101000001C08630203726F7403CF083F78603E6070
:101010000E0070470EB5FFF776FA01688268036923
:101020008160026103604168C2684369C1604261D6
:1010300043600EBD58101C086302042D726F7400CB
:1010400003CF083F7E6039600600704700B5FFF7A8
:10105000E1FFFFF7DFFF00BD6A101C0820000470ED
:1010600069636B0057F82660704782101C08000007
:101070000564657074683A49C91B47F8046D8E10A1
:1010800070479E101C08000006726465707468004A
:1010900047F8046D6E463349891B8E107047D41093
:1010A0001C082002023E720040B440CF704700B5D9
:1010B000FFF7A5FAFFF710FAFFF74AFA47F8046DB1
:1010C0004BF2004601228A40164302F0A1FAFFF7D4
:1010D00006F900BD0A111C08200202723E0047F802
:1010E000046D40BC704700B5FFF789FAFFF7EDF8D3
:1010F000FFF7BEF9036047F8046D4BF60046012286
:101100009A40164302F084FA00BD28111C08200200
:101110000272400047F8046D009E704700B5FFF76B
:101120006EFA02F094FF00BD4C111C0820020572FB
:1011300064726F7001B0704700B5FFF760FA47F84E
:10114000046D4BF2010602F063FA00BD68111C0841
:10115000200005727069636BB6006E443668704794
:10116000880A0038880B003894111C0800000472AB
:101170006F6C6C00002E01D140CF7047B000395821
:10118000C019031F1A6802600438013EF9D1043700
:101190000E007047BC111C080000052D726F6C6CAE
:1011A000002E01D140CF7047386839464A680A603E
:1011B0000431013EFAD1086040CF7047D6111C08B7
:1011C000620203616E6401CF0640704747F8046D08
:1011D00044F20006EDE0F2111C086202036269634A
:1011E00001CFB0430600704747F8046D44F28036E3
:1011F000DBE00C121C086202026F720001CF064392
:10120000704747F8046D44F20036D2E026121C08FD
:10121000620203786F7201CF4640704747F8046D51
:1012200044F24006C5E03E121C086202012A01CFCA
:101230004643704747F8046D44F24036B9E07212F5
:101240001C08610203636C7AB6FA86F6704700B533
:10125000FFF742F947F8046D7E4EFFF779F90E4328
:1012600056EA0146FFF7C2F956EA032602F0FFF9F3
:1012700000BD90121C08611803726F720120C641F4
:1012800070470200010000000020BC121C0862022E
:10129000AE121C08611803726F6C1F20C6417047A4
:1012A00002001F0000000020BC121C086202CE12C7
:1012B0001C0862020772726F7461746501CFF0419D
:1012C0000600704747F8046D44F2C0166DE006133F
:1012D0001C086202076172736869667401CF30414D
:1012E0000600704700B547F8046D44F2001647F851
:1012F000046D41F20006FFF7F9F841681F292AD969
:101300001F21416027E030131C08620206727368D7
:101310006966740001CFF0400600704700B547F8D9
:10132000046D44F2C00647F8046D40F6000612E072
:1013300068141C086202066C73686966740001CF49
:10134000B0400600704700B547F8046D44F28006CF
:1013500047F8046D0026FFF7C9F80168282903D073
:1013600040CF00F022F800BD04374168FEF7B7FF18
:10137000002901D140CF00BD1F290AD889010E43A1
:101380000268D2001643FFF731F91E4302F040F91C
:1013900000BD40CFFFF72AF947F8046D42F200067E
:1013A0001B021E4302F034F900BD0FB5FFF79EF893
:1013B0000CE00FB5FFF79AF80168062901D1FFF795
:1013C000D4FD8268282A01D1FFF7CFFDFFF7CAF8C4
:1013D000016828291ED147F8046D466801F00AFD0E
:1013E00002CF002E40CF15D0B6F5804F01D11A4E56
:1013F0001EE044F24002964201D1184E18E0B6F5C4
:10140000864F01D1164E13E04FF48742964201D128
:10141000144E0DE0FFF7BAF8FFF79AF8C90082689A
:101420000E43164302F0F4F8FEF759FF0FBD0FB557
:101430000E43816856EA0146FEF751FFFEF74FFF63
:10144000FEF743FFFFF714F8036056EA032602F0A5
:101450000EF90FBD80F0B0FA000010F0000090F01F
:10146000000050F0000030F08E141C0861020230C1
:101470003D00013EB641704700B500F0FBF800F0BA
:10148000C6FFFEF72CFF4FF45241816200BDB61437
:101490001C08610203303C3E013EB641F6437047F2
:1014A00000B500F0E7F800F0B2FFFEF718FF4FF4C8
:1014B0005341816200BDDE141C08610202303C0011
:1014C000F617704700B500F0D5F847F8046D41F203
:1014D000C07600F0DFFF4FF45541816200BDF41487
:1014E0001C08600004747275650047F8046D0026DE
:1014F000F643704708151C0860000566616C73654B
:1015000047F8046D002670472E151C084202023E63
:101510003D0001CFB042EADA0026704747F8046D7B
:101520004DF6003647F8046D4DF60026AEE0541532
:101530001C084202023C3D0001CFB042D7DD00262C
:10154000704747F8046D4DF6004647F8046D4DF6B8
:1015500000569BE078151C084202013C01CFB042C6
:10156000C5DB0026704747F8046D4DF6002647F8A6
:10157000046D4DF6003689E09C151C084202013EC0
:1015800001CFB042B3DC0026704747F8046D4DF63A
:10159000005647F8046D4DF6004677E0C2151C086A
:1015A000620203753E3D01CF861BB641F64370478C
:1015B00047F8046D4DF2003647F8046D4DF20026F1
:1015C00064E0E8151C08620203753C3D01CF361A41
:1015D000B641F643704747F8046D4DF6000647F8EC
:1015E000046D4DF6001651E00C161C0862020275DF
:1015F0003C0001CF861BB641704747F8046D4DF2A1
:10160000002647F8046D4DF200363FE030161C0806
:10161000620202753E0001CF361AB641704747F8A4
:10162000046D4DF6001647F8046D4DF600062DE0EA
:1016300054161C086202023C3E0001CF361A013EDD
:10164000B641F643704747F8046D4DF2000647F87F
:10165000046D1BE0B6171C086202013D01CF361A6B
:10166000013EB641704747F8046D4DF2001647F849
:10167000046D0BE000B5FEF72FFFFEF767FEFEF7E7
:101680006AFEFEF76DFEFEF76DFF00BD00B5FEF7CA
:101690002DFFFEF75BFEFEF75EFEFEF76DFF826834
:1016A000282A05D1FFF761FC39683E600E46826842
:1016B00040CF016828291DD14168FF2907D847F884
:1016C000046D42F600060E43816809021AE047F8ED
:1016D000046D466801F08EFB02CF002E40CF09D08A
:1016E00047F8046D6A4E0E43816856EA014601F0E0
:1016F000BEFF0AE0FEF72CFF47F8046D44F2802697
:10170000C90016430E4301F083FFFEF7E8FDFEF724
:10171000E6FD866240CF00BD0FB55E48816A0029B4
:1017200035D047F8046D866A00218162310AD529D7
:1017300001D140CF0FBDFEF7C8FDFEF799FE036053
:10174000D22904D14FF4834600F0A4FE0FBDD32963
:1017500006D14FF4834600F09DFE00F0AEFE0FBDB3
:10176000023601F055FF47F8046D42F2000600F022
:101770000FF800F0A2FE47F8046D4EF2000601F0EB
:1017800047FF47F8046D42F2000600F001F80FBD74
:1017900000B5FEF7A1FEFEF710FF016809020E4337
:1017A00001F036FF00BD00B5816A090AD52901D1D3
:1017B000FEF795FD00BDD4171C086202036D696E2B
:1017C00001CFB04200DC0600704747F8046D4DF6CB
:1017D00000362DE0F2171C086202036D617801CF1C
:1017E000B04200DB0600704747F8046D4DF6004636
:1017F0001EE012181C08620204756D61780001CFAA
:10180000B04200D30600704747F8046D4DF600065D
:101810000EE098181C08620204756D696E0001CF15
:10182000B04200D80600704747F8046D4DF200360C
:1018300000B5FEF75BFE01688268914203D140CF9C
:10184000FEF753FD00BD062A01D1FFF78EFB0168AC
:10185000282901D1FFF789FBFEF7AFFEFEF782FED4
:10186000C900026847F8046D44F280260E4316430F
:1018700001F0CEFE01F0CCFE47F8046D44F20066A4
:101880000E43164301F0C4FEFEF72FFD00BD00001D
:10189000000FB0F120080038D6181C080000046DB5
:1018A0006F76650007B5310040CF320040CF002988
:1018B0000FD0B2420DD006D3013E013A705C5054B5
:1018C0000139FBD105E03078107001360132013961
:1018D000F9D140CF07BDF8181C0800000466696CF8
:1018E0006C00300040CF310040CF002902D00139D8
:1018F0007054FCD140CF70473A191C0820020140B7
:101900003668704747F8046D46F6000600B5FEF7E6
:10191000E3FD0368282B08D143687C2119400901A5
:101920000E437C218B43FEF764FDDB001E43FEF774
:101930005DFE1E4301F06CFE00BD92191C082002E2
:10194000012103CF30600E00704747F8046D46F266
:10195000000600B5FEF7CAFD0368282B09D14368CD
:101960007C21194009010E437C218B43FEF741FD88
:101970000360DB001E438368282B02D1C368FEF797
:101980002CFD1E4301F044FEFEF7A9FCFEF7A7FC68
:1019900000BDC8191C082002022B210003CF3268A9
:1019A000121832600E00704700B5FEF79FFDFFF77A
:1019B000A7FAFFF7A7FFFFF72DFB00F0BAFCFFF730
:1019C000D4FAFFF7C2FF00BD0C1A1C0820020268FF
:1019D00040003688704700B5FEF77EFD47F8046D7D
:1019E00048F600060368282B08D143683E211940B9
:1019F00049010E433E218B43FEF7FBFCDB001E43F7
:101A0000FEF7F4FD1E4301F003FE00BD661A1C083C
:101A100020020268210003CF30800E00704700B51D
:101A2000FEF764FD47F8046D48F200060368282BB2
:101A300009D143683E21194049010E433E218B43A1
:101A4000FEF7D7FC0360DB001E438368282B02D11E
:101A5000C368FEF7C2FC1E4301F0DAFDFEF73FFC4F
:101A6000FEF73DFC00BD9C1A1C08200203682B21D8
:101A700003CF3288121832800E00704700B5FEF78F
:101A800035FDFFF73DFAFFF7A6FFFFF7C3FA00F0B9
:101A900050FCFFF76AFAFFF7C2FF00BDE01A1C080E
:101AA0002002026340003678704700B5FEF714FD4F
:101AB00047F8046D47F600060368282B08D14368F1
:101AC0001F21194089010E431F218B43FEF791FC12
:101AD000DB001E43FEF78AFD1E4301F099FD00BDA9
:101AE0003A1B1C0820020263210003CF30700E0055
:101AF000704700B5FEF7FAFC47F8046D47F20006A0
:101B00000368282B09D143681F21194089010E431E
:101B10001F218B43FEF76DFC0360DB001E438368CF
:101B2000282B02D1C368FEF758FC1E4301F070FD5C
:101B3000FEF7D5FBFEF7D3FB00BD701B1C0820028F
:101B400003632B2103CF3278121832700E007047D6
:101B500000B5FEF7CBFCFFF7D3F9FFF7A6FFFFF7C1
:101B600059FA00F0E6FBFFF700FAFFF7C2FF00BDED
:101B7000941B1C08200204626973210003CF3268A1
:101B8000024332600E00704700B547F8046D44F21E
:101B9000003630E0D41B1C08200204626963210077
:101BA00003CF3268824332600E00704700B5FEF703
:101BB0009DFCFFF7A5F9FFF7A5FEFFF72BFA47F805
:101BC000046D44F28036FFF7F0FBFFF7CEF9FFF724
:101BD000BCFE00BD141C1C08200204786F7221009A
:101BE00003CF3268424032600E00704700B547F8BC
:101BF000046D44F24006FEF779FCFFF781F9FFF728
:101C000081FEFFF707FAFFF7D4FBFFF7AEF9FFF706
:101C10009CFE00BD4A1C1C0820020462697440003E
:101C200001CF3668064018BF4FF0FF36704700B549
:101C3000FEF75CFCFFF766FE47F8046D44F2000611
:101C4000FFF7B7FBFFF72CFC00BD6E1C1C08200241
:101C500005686269732103CF3288024332800E0027
:101C6000704700B547F8046D44F2003630E0AE1C12
:101C70001C08200205686269632103CF3288824311
:101C800032800E00704700B5FEF730FCFFF738F9E0
:101C9000FFF7A1FEFFF7BEF947F8046D44F2803666
:101CA000FFF783FBFFF761F9FFF7B9FE00BDEE1CFC
:101CB0001C0820020568786F722103CF32884240E9
:101CC00032800E00704700B547F8046D44F24006BC
:101CD000FEF70CFCFFF714F9FFF77DFEFFF79AF90A
:101CE000FFF767FBFFF741F9FFF799FE00BD141DF1
:101CF0001C08200205686269744001CF36880640DE
:101D000018BF4FF0FF36704700B5FEF7EFFBFFF747
:101D100062FE91E7381D1C08200205636269732189
:101D200003CF3278024332700E00704700B547F897
:101D3000046D44F2003630E0781D1C082002056373
:101D40006269632103CF3278824332700E0070479C
:101D500000B5FEF7CBFBFFF7D3F8FFF7A6FEFFF7C2
:101D600059F947F8046D44F28036FFF71EFBFFF780
:101D7000FCF8FFF7BEFE00BDB81D1C08200205637D
:101D8000786F722103CF3278424032700E00704774
:101D900000B547F8046D44F24006FEF7A7FBFFF7D5
:101DA000AFF8FFF782FEFFF735F9FFF702FBFFF709
:101DB000DCF8FFF79EFE00BD021F1C082002056331
:101DC0006269744001CF3678064018BF4FF0FF3685
:101DD000704700B5FEF78AFBFFF767FE2CE7B84AAD
:101DE0001368B84A134000D17047B74AB54C146025
:101DF0001A00704700B5B24A136813F00403FBD110
:101E0000FFF7EDFF00D000BDAD4A136813F4803337
:101E100004D0AD4A136843F480331360002200BD40
:101E20001FB5AA4AAA4B1360AA4B1360AA4A1368AB
:101E300013F001032AD1FFF7DDFF1400002C36D187
:101E4000A54A146844F002041460BFF36F8FBFF317
:101E50004F8F0A464FF0080352F8041B40F8041B4A
:101E6000013BF9D1BFF36F8FBFF34F8FFFF7C2FF75
:101E700014469949086820F002000860964A1168E3
:101E800041F001011160002C11D11FBD00F04EFE88
:101E9000184572726F7220312077726974696E67AB
:101EA00020666C61736820210A0002F029BE47F8A1
:101EB000046D264600F0A2FE00F038FE184572724E
:101EC0006F7220322077726974696E6720666C6168
:101ED000736820210A0002F013BE00F027FE1E46A0
:101EE0006C6173682063616E6E6F74206265207729
:101EF00072697474656E2074776963650A0002F014
:101F0000FFBD7E1F1C080000083332666C617368D9
:101F100021000FB51F20304015D000F007FE2233FE
:101F200032666C61736821206E656564732033329C
:101F30002D616C69676E656420616464726573739A
:101F40000A0002F0DDBD30680130C6D17068013092
:101F5000C3D1300040CF6149CE6140CF8E6140CFC8
:101F60004E6140CF0E6140CFCE6040CF8E6040CFFB
:101F70004E6040CF0E6040CFFFF752FF0FBD6A208A
:101F80001C080000106572617365666C617368738C
:101F90006563746F720000B5012E64D3082E62D29F
:101FA0004A4A4B4B13604B4B136000F0BFFD0D458D
:101FB0007261736520736563746F722047F8046DF6
:101FC00002F0F5FBFFF716FF002A18D047F8046D62
:101FD000164600F013FE00F0A9FD1E20496E69743C
:101FE00069616C20466C617368206572726F722043
:101FF00064657465637465640A0002F081BD364AE5
:10200000136803F4E66353F0B403360233431360FA
:10201000FFF7F0FE1446304A136840F2047103EAF9
:102020000103136053F001031360002C12D047F832
:10203000046D264600F0E2FD00F078FD1320466CAA
:10204000617368206572617365206572726F720AD0
:1020500002F056BD00F06AFD0C66726F6D20466C92
:102060006173682E0A0040CF00BDE8201C08000004
:102070000A6572617365666C6173680072B600B55B
:10208000174818490268B2F1FF3F05D047F8046DC0
:102090000726FFF780FF02E004308842F2D300F009
:1020A00045FD1246696E69736865642E205265733A
:1020B000657420210A005DF804EB02F0B2BD000057
:1020C000102100520000EE0714210052042100529A
:1020D00023016745AB89EFCD0C2100520004003885
:1020E00000001E08FFFF1F080A211C0800000969E4
:1020F0006E6974666C61736888484FF49061002261
:10210000027001300139FBD17047BC211C0800006E
:102110000773746D616C656E00B58048202103B44F
:1021200000F004FD03203E0A03BC47F8046D066876
:1021300003B400F0FBFC09416472657373653A20D7
:1021400003BC00F05BFD03B400F0F0FC08496E68CE
:10215000616C743A200003BC47F8046D466800F0D7
:102160004DFD47F8046D866800F048FD47F8046DA2
:10217000C66800F043FD47F8046D066900F03EFDB7
:1021800047F8046D466900F039FD47F8046D86692B
:1021900000F034FD47F8046DC66900F02FFD47F8E4
:1021A000046D066A00F02AFD03B400F0BFFC0320B2
:1021B0003E0A03BC24300139B7D100BDAA221C0855
:1021C00000000768666C6173682130B5320040CF4B
:1021D000500813D300F0AAFC1E68666C6173682176
:1021E000206E65656473206576656E206164647237
:1021F00065737365732E0A0002F082BC484B9A42E5
:1022000010D200F093FC1943616E6E6F74207772E8
:1022100069746520696E746F20636F726520210A8E
:1022200002F06EBC53093D482021046864099C42B9
:102230002AD024300139F8D1384820210468002CF4
:1022400017D024300139F9D100F070FC21546F6FA0
:10225000206D616E792073636174746572656420AA
:10226000466C617368207772697465732E0A02F098
:1022700047BC5B010360013941608160C16001615D
:1022800041618161C16101621F21114004314652E7
:1022900040CF0168013101601F221140102903D194
:1022A00000F01AF8FFF735FE30BD24231C080000AB
:1022B0000A666C757368666C6173680000B51748D0
:1022C00020210268002A03D000F006F8FFF721FE63
:1022D00024300139F5D100BD47F8046D466847F850
:1022E000046D866847F8046DC66847F8046D066992
:1022F00047F8046D466947F8046D866947F8046D30
:10230000C66947F8046D066A47F8046D1F26F64350
:10231000026816400022026070470000880B0038F7
:1023200000001E085A231C086202012B01CF361838
:10233000704700B5FEF7DAF847F8046D43F200067F
:1023400047F8046DC94E47F8046D41F600068168F0
:10235000282917D1FEF709FE14E000241C086202A8
:10236000012D01CF861B704700B5FEF7BFF847F877
:10237000046D43F6000647F8046DBD4E47F8046D42
:1023800041F60026FEF7EEF80168282927D14168BA
:10239000FF290CD840CF40CFFEF7F8F80E438168F4
:1023A00009020E4301F034F9FDF799FF00BD47F82B
:1023B000046D0E0000F01EFD02CF002E40CF0ED0A7
:1023C00040CF04370E43816856EA0146FDF787FF88
:1023D000FEF70CF956EA032601F049F900BD04376F
:1023E0000437FEF7B5F889018268D2000E43164320
:1023F000FDF775FFFEF7FAF81E4301F009F900BD7D
:1024000018241C08610202312D00013E704747F874
:10241000046D41F640663DE030241C086102023143
:102420002B000136704747F8046D41F6404631E015
:1024300048241C08610202322D00023E704747F812
:10244000046D41F6806625E060241C0861020232BA
:102450002B000236704747F8046D41F6804619E0BC
:102460007A241C0861020563656C6C2B0436704786
:1024700047F8046D41F600560CE0AC241C086102DC
:10248000066E6567617465007642704747F8046DB3
:1024900044F2402600B5FEF71FF80168C9000E435C
:1024A000FEF7A4F81E4301F0B3F800BDC4241C08D5
:1024B0006102036E6F74F643704747F8046D44F28F
:1024C000C036E7E7DC241C086102037368727608F3
:1024D000704747F8046D40F64006DBE7EC241C0823
:1024E00061020373686C7600704706E002251C08E1
:1024F000610202322A007600704747F8046D4026D8
:10250000C8E71A251C0861020563656C6C73B60088
:10251000704747F8046D8026BCE732251C0861022D
:1025200002322F007610704747F8046D41F24006E2
:10253000B0E772251C08610203616273F017361858
:102540004640704700B5FDF7C7FF47F8046D002609
:102550000168C9000E43FEF749F81E4301F058F820
:1025600047F8046D4DF2005601F052F8FFF78EFF68
:1025700000BD90251C08420005752F6D6F6401CFCA
:102580003100B0FBF6F67143401A043F38607047E3
:10259000AE251C084200042F6D6F640001CF31008E
:1025A00090FBF6F67143401A043F38607047C2252D
:1025B0001C084200036D6F6400B5FFF7EFFF40CFCA
:1025C00000BD02261C086202012F01CF90FBF6F627
:1025D000704700B5FDF78AFFFDF7BAFFFDF7C2FFB0
:1025E00047F8046D234E01680E43816856EA0146A0
:1025F000FDF775FEFDF7FAFF56EA032601F037F8FE
:1026000000BD16261C086100046576656E00012079
:102610003040361870472E261C0881000462617312
:10262000650047F8046D144E70470A000000442608
:102630001C0800000662696E617279000E48022172
:10264000016070475A261C08000007646563696DC5
:10265000616C09480A21016070477C261C08000053
:10266000036865780448102101607047000010F18C
:102670000000B0F1F0F090FBFC87003890261C08B9
:1026800000000373776447F8046D5FEA0B06704738
:10269000B0261C080000087377642D696E69740009
:1026A00000B54FF06051002008605FEA010B00BDEB
:1026B000DA261C080000087377642D6B65793F00EB
:1026C00000B500F0BFF847F8046D5A46107851780D
:1026D0000026884218BF013E00BD08271C080000E4
:1026E000097377642D656D69743F00B500F0AAF831
:1026F00047F8046D5A469078D1780130C0B2002670
:10270000884218BF013E00BD2E271C080000077339
:1027100077642D6B657947F8046D5A4650781178C7
:102720008842FCD0011D8E5C0130507070475A27E2
:102730001C080000087377642D656D6974005B46A2
:102740009878411CC9B2DA789142FCD000F58270C9
:10275000C654997040CF7047A2E776271C088100C5
:1027600009686F6F6B2D656D697447F8046D4C4E89
:10277000704760281C0892271C08810008686F6F4A
:102780006B2D6B65790047F8046D464E70477428D1
:102790001C08B0271C0881000A686F6F6B2D656DDF
:1027A00069743F0047F8046D3F4E70478A281C0843
:1027B000CC271C08810009686F6F6B2D6B65793F12
:1027C00047F8046D394E70479E281C08EA271C08FC
:1027D00081000A686F6F6B2D70617573650047F833
:1027E000046D334E7047D24B1C0800281C080000B3
:1027F00004656D6974000FB5294800F026F80FBD17
:1028000014281C080000036B65790FB5254800F0FB
:102810001CF80FBD26281C08000005656D69743F73
:1028200021480068874638281C080000046B657939
:102830003F001E48006887464E281C0800000570AF
:10284000617573651A480068874600688746622884
:102850001C0800000B73657269616C2D656D6974ED
:102860006DE776281C0800000A73657269616C2D9B
:102870006B6579004FE78C281C0800000C736572AB
:1028800069616C2D656D69743F002EE7B4281C08E2
:1028900000000B73657269616C2D6B65793F0FE702
:1028A000F8870038F4870038F0870038EC87003864
:1028B000E8870038D8281C08000007636578706531
:1028C000637400B5386801B40130386000F00BF86B
:1028D00001BC067040CF00BD4E291C0800000661F7
:1028E00063636570740000B502CF01390022FFF701
:1028F0008CFF300040CF7F2809D0202819D209282A
:1029000016D00A281FD00D281DD00828EFD1002A84
:10291000EDD000F00BF903082008002AE7D0885C0E
:10292000013A80230340E2D040230340F5D0DEE7A4
:102930002020B242DBD247F8046D0600FFF75BFFB0
:1029400001328854D3E7160000F09FF800BD6029DB
:102950001C0840000374696247F8046D294E7047F3
:1029600076291C088100033E696E47F8046D264EE7
:102970007047000000009C291C0882000E637572DD
:1029800072656E742D736F757263650047F8046D20
:102990001E4E704700000000C0080038B8291C080F
:1029A000000009736574736F75726365174802CF11
:1029B0000660416040CF7047D6291C0800000673AE
:1029C0006F757263650047F8046D104E043F7068C0
:1029D000386036687047102A1C080000057175655C
:1029E00072790FB5084800210160FFF7B5FF47F87D
:1029F000046D47F8046DC826FFF775FFFFF7D6FF93
:102A00000FBD0000C0080038E4870038DC870038BC
:102A1000582A1C08000007636F6D706172650FB55E
:102A2000310040CF01CF884202CF10D1002810D012
:102A300001380A5C335C412A02D35B2A38BF20325A
:102A4000412B02D35B2B38BF20339A42EED00026B5
:102A50000FBD0026F6430FBD6C2A1C080000026360
:102A6000720000B500F062F8010A00BD7E2A1C0861
:102A7000000002626C0047F8046D20267047922A1D
:102A80001C08000005737061636547F8046D20261B
:102A9000B1E6B22A1C08000006737061636573001A
:102AA00000B5002E03DDFFF7F0FF013EFBD140CF64
:102AB00000BDC22A1C085000065B636861725D009D
:102AC00005E0DA2A1C08000004636861720000B5A2
:102AD00001F09EFC40CF367800BDEA2A1C08500465
:102AE000012847F8046D292606E0042B1C08500431
:102AF000015C47F8046D002600B501F093FC043733
:102B000040CF00BD482B1C083000022E2200A948EF
:102B100000B547F8046D060000F07DFA47F8046D33
:102B2000222601F07FFC00F0ADFD00BD0AB447F89D
:102B3000046D7646013E33780121013319405B185C
:102B40001EEB030E0ABC39E06E2B1C08300002633A
:102B500022009948DCE747F8046D7646013E337859
:102B60000121013319405B181EEB030E7047982BAF
:102B70001C083000027322009048C9E747F8046D32
:102B8000764647F8046D013E36780121731C1940E2
:102B90005B181EEB030E7047B02B1C08000005638A
:102BA0006F756E74013647F8046D013E36787047D4
:102BB000C82B1C08000005637479706500B5FFF729
:102BC000F1FF00F007F800BDF02B1C0800000474B2
:102BD0007970650001B501CF002E07D047F8046D6C
:102BE0000678FFF708FE0130013EF7D140CF01BD66
:102BF0002A2C1C080000046865782E0007B53100F7
:102C000040CF20200F22043847F8046D0E00C64044
:102C10001640092E01D9373600E03036FFF7EBFDBC
:102C20000028F0D1FFF731FF07BD3A2C1C08000047
:102C300003682E731FB5624C0EE04A2C1C0800007E
:102C400003752E731FB55F4C06E0EE2C1C080000C8
:102C5000022E73001FB55C4C5C49C91B8908220A0F
:102C60002020292F200A2028273E200A202F4343F6
:102C70002020203335204343430A385C29295F2034
:102C80000A0A534A106803B40A201060FFF74EFF87
:102C900008537461636B3A205B0047F8046D0E00C3
:102CA00001F08DFDFFF742FF025D200003BC2736D7
:102CB000474A106000290AD0464A106806B447F80F
:102CC000046D0600A04706BC043A0139F5D1FFF7B0
:102CD0002DFF0620544F533A200047F8046D36006C
:102CE000A047FFF723FF04202A3E0A001FBD8E2DB8
:102CF0001C08000005776F72647300B5FFF716FFBC
:102D0000010A00F005FFFFF711FF094164647265D5
:102D100073733A2047F8046DFFF770FFFFF706FF63
:102D2000064C696E6B3A200047F8046D3668FFF771
:102D300065FFFFF7FBFE07466C6167733A2047F8B3
:102D4000046DB688FFF75AFFFFF7F0FE06436F6485
:102D5000653A2000B01D00F028FF47F8046D06001A
:102D6000FFF74CFFFFF7E2FE064E616D653A20006B
:102D700047F8046D0636FFF721FFFFF7D7FE010A7B
:102D800000F0DDFE300040CFBDD040CF00BDE02DD3
:102D90001C08000006756E757365640000B500F0D0
:102DA000DAFF0D4801680D4A914201D24FF00266E8
:102DB000761A00BD2C2B1C08562B1C087C2B1C08DB
:102DC000FD2B1C08AF471C08BF471C08880A0038A9
:102DD000FC870038840A0038D087003800080038A3
:102DE000442F1C0800000D3132626974656E636FF8
:102DF00064696E670FB5FF2E04D847F8046D5FF065
:102E0000FF360FBD16F0FF10B0420ED14FF6FF7126
:102E10000840310C814208D116F0FF0656F4805666
:102E200047F8046D5FF0FF360FBD16F0FF20B0428B
:102E30000FD14FF6FF710840310C814209D1360A9B
:102E400016F0FF0656F4005647F8046D5FF0FF36A3
:102E50000FBDFF2231001140300A1040884210D1CE
:102E6000300C104088420CD1300E1040884208D1FE
:102E700016F0FF0656F4405647F8046D5FF0FF3633
:102E80000FBD300000210131001850F100007FF02B
:102E90007F020240802A05D01F29F4D347F8046D31
:102EA00000260FBD0829F9D3060036F0800611F080
:102EB0000100C001064311F00E00C002064311F0EC
:102EC00010008005064347F8046D5FF0FF360FBD24
:102ED00047F8046DDFF8C4655FF4704110EA010241
:102EE000120116435FF4006110EA0102D203164397
:102EF0005FF4E06110EA010212011643FF2110EABB
:102F0000010216431E43B2E347F8046DDFF89065F3
:102F10005FF0704110EA0102120B16435FF000618E
:102F200010EA0102520816435FF0E06110EA010264
:102F3000120B16435FF47F0110EA0102120C1643D4
:102F40001E4394E3AA2F1C08000010726567697382
:102F50007465726C69746572616C2C000FB5330016
:102F600040CF1B02FF2E05D856F400561E4300F03A
:102F70004FFB0FBDFFF73EFF002E40CF06D0DFF81E
:102F8000240506431E4300F072FB0FBDF643FFF716
:102F900031FF002E40CF06D0DFF80C0506431E435C
:102FA00000F065FB0FBDF6430BE00A301C08000083
:102FB000096D6F76776D6F76742C0FB5330040CF47
:102FC0001B02300040CFFFF783FF4FF6FF7110EA7E
:102FD000014001D0FFF798FF0FBD0FB5013630005B
:102FE00040CF0023FFF774FFFFF78EFF06E00FB519
:102FF000013647F8046D0026FFF7B0FF47F8046D6F
:1030000044F2807600F004FB0FBD70301C08000015
:103010000563616C6C2C0FB5330000F08DFE300041
:1030200040CF1B1A043BDFF884141940002906D056
:10303000DFF87C24914202D0BDE80F40D7E740CFB3
:103040005B08DFF8700440F2FF7119400843DB0AA7
:1030500040F2FF311940090408439B0A13F00101B3
:103060008906084347F8046D060000F000FB0FBD19
:10307000A6301C080000086C69746572616C2C0035
:1030800008B547F8046D4FF6470600F0C1FA47F857
:10309000046D46F6045600F0BBFA47F8046D0626A8
:1030A000FFF75CFF08BDD6301C08000006637265A0
:1030B0006174650000B500F042F843F2F700C0F615
:1030C0001C00804747F8046DBEF10106FA488645AA
:1030D00000D2103600BD30311C08200005646F6539
:1030E000733E43F2F700C0F61C00804747F8046DBA
:1030F000BEF10106704747F8046DBEF10106EF4AC4
:103100001368EF490968EC48834205D21F20084044
:10311000042805D00231F9E70220084000D002312E
:1031200002311160FFF759FF136000F0DEF900BDB6
:103130008A311C080000073C6275696C647300B535
:1031400000F0BEFBDD480168DB4A914209D200F085
:10315000F3FD1F200640042E40CF0AD000F04AFAAB
:10316000F5E700F0E9FD0220064040CF01D000F075
:1031700041FA47F8046D4BF2005600F049FA47F85F
:10318000046D0A2600F0AAFA00BD96311C08500012
:10319000035B275D03E0AE311C080000012700B58A
:1031A00001F036F900F062FD300040CF00BDDC31A7
:1031B0001C08300008706F7374706F6E650000B586
:1031C000FFF7EDFF043F3860FFF75AFFFFF758FFA6
:1031D00047F8046DBB4EFFF71EFF00BD30321C08E0
:1031E000000007696E6C696E652C00B54BF20051EA
:1031F0004BF6005244F270733088884208D09042F7
:1032000008D0984206D047F8046D060000F000FA96
:103210000236F1E740CF00BD0EB54BF6005244F246
:10322000707301880230914201D09942F9D10EBDEC
:1032300046321C080000047265742C0047F8046DC7
:103240004BF60056E4E154321C08300004657869FE
:103250007400F3E76C321C08300007726563757206
:10326000736547F8046D964E3668D4E684321C08C0
:10327000810005737461746547F8046D924E704760
:103280000000000096321C080000015D8E480021FD
:10329000C94301607047A6321C081000015B8A48D0
:1032A000002101607047C6321C080000013A00B5D9
:1032B0008648076000F004FB8348012101608448D0
:1032C0000021016000BD42331C083008013B00B5FD
:1032D0007E480168B94214D07E498E4202D17E4EAA
:1032E000FFF76CFCFFF722FC1520537461636B2021
:1032F0006E6F742062616C616E6365642E0A01F00A
:10330000FFBB71480068411C10D00B2805D847F856
:10331000046D40F6200600F01EF947F8046D44F2F3
:10332000707600F075F901F0EDFA05E047F8046DEC
:103330004BF6005600F06CF900F0D7F8FFF7AFFF3E
:1033400000BD56331C080000076578656375746519
:10335000300040CF87466A331C08100009696D6D44
:1033600065646961746510206AE07C331C08500054
:1033700006696E6C696E6500202061E092331C085E
:1033800010000B636F6D70696C656F6E6C79302027
:1033900056E0A8331C0850000A302D666F6C64613B
:1033A000626C650040204BE0BE331C0850000A31BF
:1033B0002D666F6C6461626C6500412040E0D4331F
:1033C0001C0850000A322D666F6C6461626C6500E7
:1033D000422035E0EA331C0850000A332D666F6C3A
:1033E0006461626C650043202AE000341C085000D0
:1033F0000A342D666F6C6461626C650044201FE0C6
:1034000016341C0850000A352D666F6C6461626CBE
:103410006500452014E02C341C0850000A362D6647
:103420006F6C6461626C6500462009E048341C08DA
:1034300050000A372D666F6C6461626C650047202E
:1034400047F8046D060086E078341C080000086325
:103450006F6E7374616E740000B500F031FAFFF79F
:103460000FFE47F8046D44F2707600F0D1F8FFF7D4
:1034700099FF00F03AF800BDDC341C080000093266
:10348000636F6E7374616E7400B500F019FA396879
:103490003E600E46FFF7F4FDE1E70000000040F259
:1034A0000000C0F200005FF000007FF00100C0FFEC
:1034B0000000C0FF00F800F000080038D087003896
:1034C0000C080038FE471C08D88700380808003868
:1034D00054080038851912045E2C1C0846351C0857
:1034E000000006736D756467650000B5E348016808
:1034F000E34A914220D202390A884FF6FF739A427A
:1035000005D147F8046D4FF0000600F081F800F097
:103510004EF800F061F8DB48006847F8046D0600DB
:10352000D94909680431D54A1368116000F070F870
:103530001360FEF7C3FE00BD00F039F847F8046DD4
:103540004FF0000608E08C351C0800000873657415
:10355000666C6167730000B5C8480168C84A91424B
:1035600005D2C84801683143016040CF00BD320038
:1035700040CFC5480068043001884FF6FF73994278
:1035800001D1110000E01143018000BDA2351C08EB
:10359000410007616C69676E6564033603208643EA
:1035A0007047C8351C08000005616C69676E00B57E
:1035B000B24801680220014005D047F8046D4FF081
:1035C000000600F025F800BD06361C080000086162
:1035D0006C69676E33322C0000B5A84801681F2063
:1035E000014006D047F8046D4FF0000600F010F8D7
:1035F000F3E700BD47F8046D362609E047F8046D8F
:103600004CF6407604E04A361C08000002682C00A4
:103610000FB5B6B29D480168002902D0013100D033
:10362000016096480168964A914205D247F8046DB8
:103630000E00FEF7CAFD02E0320040CF0A8047F8D4
:10364000046D022600F04AF80FBD64361C08000025
:10365000012C01B547F8046DFFF7DAFF360CFFF7D0
:10366000D7FF01BD76361C080000033E3C2C01B597
:103670001020C641EEE7D0361C08000007737472B4
:10368000696E672C07B5F1B201CF002903D100267E
:10369000FFF7BEFF07BD067836020E43FFF7B8FFFF
:1036A0000130013902290AD347F8046D4678360201
:1036B00002781643FFF7ACFF02300239F2E7002927
:1036C00000D107BD47F8046D0678FFF7A1FF07BDDD
:1036D0002C371C08000005616C6C6F74674801682A
:1036E000674A914210D2320040CF89184FF00262EF
:1036F000914219D3FFF71AFA0B466C617368206682
:10370000756C6C0A01F0FCB9320040CF8918604A30
:103710001268914208D3FFF709FA0952616D2066D9
:10372000756C6C0A01F0ECB90160704748371C08F1
:10373000810008286C6174657374290047F8046D72
:10374000544E7047E4011C0860371C0881000428AF
:103750006470290047F8046D4F4E70470810003818
:1037600084371C08000009666F7267657472616DAA
:1037700000B500F024F848484849016045484849E8
:10378000016000BDAA371C0800000D636F6D7069F1
:103790006C65746F72616D3F47F8046D3E48006858
:1037A00037498842B641F6437047CA371C080000C3
:1037B0000C636F6D70696C65746F72616D00364873
:1037C00000682F49884211D370473A381C0800001E
:1037D0000E636F6D70696C65746F666C6173680001
:1037E0002D4800682649884200D2704729482D4953
:1037F00002680B680A60036027482B4902680B685F
:103800000A60036022480068834215D300B5FFF7C1
:103810008DF923205661726961626C657320636F54
:103820006C6C696465207769746820646963746985
:103830006F6E6172790A00BD704756381C0800002F
:103840000C61646472696E666C6173683F00144851
:103850004FF002610AE0B0381C0800000A6164649D
:1038600072696E72616D3F0005481049864202D34D
:103870008E42B6417047002670470000D08700385E
:103880000008003818080038D4870038D887003876
:103890001C080038D4870038D0870038081000385A
:1038A000E4011C08140800381008003800880038AB
:1038B000AA391C0800000828637265617465290034
:1038C00000B500F0A5FD002E0ED1FFF72FF9152051
:1038D000437265617465206E65656473206E616D09
:1038E0006520210A01F00CB9386827E9410000F091
:1038F0006AF940CF002E40CF0FD0386827E9410049
:10390000FFF714F9095265646566696E6520FFF773
:1039100061F9FFF70BF9022E2000FFF748FE9148EE
:1039200000689149884227D290484FF00001016019
:10393000FFF752FE47F8046D1C26FFF7CFFE00F09C
:10394000FBF947F8046D0626FFF7C8FEFDF778FB84
:10395000FFF798FE864801680A684FF0FF339A42E5
:1039600007D1804A1368116047F8046DFFF771FEB4
:103970001360066040CF13E000F0DEF97C4847F8A2
:10398000046D0668FFF765FE47F8046D4FF6FF7695
:10399000FFF73EFE7648310040CF0160FFF772FE30
:1039A000704801687348016000BDC2391C080000FE
:1039B000087661726961626C650047F8046D0126E2
:1039C00013E0DA391C08000009327661726961621D
:1039D0006C6547F8046D022607E0483A1C080000B1
:1039E000096E7661726961626C6500B5FFF768FF08
:1039F0005C4801685C4A914218D20F200640B20030
:103A000000F047F8300040CF020006D005D00E602D
:103A10000431FFF71EFE0138F9D147F8046D802606
:103A20001643FFF798FDFFF760FD00BD00F04BF86F
:103A3000300040CF03D0FFF70CFE0138FBD1FFF779
:103A4000B1FCFFF752FD00BDFA3A1C080000076206
:103A500075666665723A00B5FFF732FF03203618C7
:103A6000864340480168404A91420DD2320000F03E
:103A700010F8FFF7EEFD47F8046D40F24016FFF72F
:103A80006AFDFFF732FD00BD00F01DF8FFF726FECE
:103A9000D5E700B538480168891A384A91420BD2F7
:103AA000FFF744F80F4E6F7420656E6F75676820DE
:103AB00052414D0A01F024B8016047F8046D0E0030
:103AC000FFF7DEFA12E000B500F036F902200640FA
:103AD00040CF01D1FFF78EFD47F8046D284EFFF768
:103AE000C6FD47F8046D274EFFF7C1FD47F8046D8A
:103AF00044F27076FFF78CFD00BD283B1C080000E7
:103B00000F64696374696F6E617279737461727442
:103B100014480068144947F8046D884201D21A4ECF
:103B20007047134E366870478C3B1C0800000E64CB
:103B3000696374696F6E6172796E6578740003B53C
:103B400031684FF0FF30814207D08879FF2804D0D8
:103B50000E0047F8046D002603BD47F8046D0026EB
:103B6000F64303BDD0870038000800381808003835
:103B7000D48700380C0800381C08003808100038BA
:103B80003E60043F02367E46E4011C08BA3B1C0836
:103B900000000A736B6970737472696E6700317824
:103BA0000231012291437618704706B40178023140
:103BB00001229143401806BC7047CC3B1C08000012
:103BC0000466696E6400304800688746E83B1C085C
:103BD000810009686F6F6B2D66696E6447F8046D2C
:103BE0002A4E7047F63B1C08943C1C08000006282F
:103BF00066696E64290030B50020002103B43500E9
:103C000040CF340040CFFFF783FF4FF6FF70B188FD
:103C100088421DD0B179A9421AD1F01D0139425C08
:103C2000635C412A02D35B2A38BF2032412B02D386
:103C30005B2B38BF20339A420AD10029EED102B063
:103C4000B01DFFF7B2FFB18803B41148864207D216
:103C500036684FF0FF30864202D0B079FF28D4D1C9
:103C600003BC060047F8046D0E0030BD00B53100FE
:103C7000386803B4FFF7A7FF03BC3A68002A01D1F4
:103C800000F0ECFE00BD0000CC870038CC87003887
:103C900000080038F23C1C08000006636A756D706D
:103CA0002C00320040CF310040CF8B1B043B6FF023
:103CB000FE01194000290ED06FF0FF0081420AD0AA
:103CC000FEF734FF0D4A756D7020746F6F206661CA
:103CD000720A00F015BF5B10FF210B401343300048
:103CE0001E0000B5CB4A13681060FFF791FC13600B
:103CF00000BD2C3D1C080000056A756D702C31005C
:103D000040CF300040CF0B1A043BC3491940002973
:103D100002D0C24A9142D3D15B1040F2FF721340ED
:103D200053F4604347F8046D1E00DAE7423D1C0877
:103D3000000004686572650047F8046DB54E36688A
:103D40007047703E1C0800000D666C6173687661F8
:103D5000722D6865726547F8046DB14E366870471C
:103D600000B547F8046D42F60066FFF751FCFFF717
:103D700045FC00BDE0E700B500F03AF839683E6068
:103D80000E4647F8046D4DF20016FFF78AFF00BD9E
:103D900000B500F02DF839683E600E4647F8046D16
:103DA0004DF20076FFF77DFF00BD00B5FFF7D8FFAD
:103DB00000F01EF839683E600E4647F8046D4DF27B
:103DC0000006FFF76EFF00BD00B500F011F839687E
:103DD0003E600E46FFF793FF00BD00B5FFF7C0FF42
:103DE000FFF7AAFF47F8046D0226FFF777FC00BD36
:103DF00000B5FFF7A1FF47F8046D0226FFF76EFC40
:103E000000BD00B5FFF798FFFFF779FF00BD00B5D3
:103E1000FFF792FF47F8046D4DF20006FFF741FFF0
:103E200000BD00B5FFF788FF47F8046D4DF200169E
:103E3000FFF737FF00BD00B5FCF74EFBFCF786FA35
:103E4000FCF789FAFCF78CFA8168282901D1FCF784
:103E500089FBFCF77DFB47F8046D42F6000609027A
:103E60000E43FFF7D5FBFCF73AFAFCF763FA00BD07
:103E70009C3E1C083000047468656E00052E01D15C
:103E800040CFBEE7F1B200296DD100B5FFF754FF76
:103E900039683E600E46FFF704FF00BDB83E1C08BF
:103EA000300004656C73650000B500F036F8FCF76F
:103EB000DEFBFFF7E3FF00BD0E3F1C083006026982
:103EC000660000B5FFF789FF47F8046D4DF2000664
:103ED00000BD00B5FCF793FBFDF765FC816A002986
:103EE00007D002B4FCF726FAFFF782FF47F8046D0B
:103EF00040BDFFF7A0FFFFF71FFF47F8046D022644
:103F0000FFF7ECFB47F8046D4DF2000600BD283FBB
:103F10001C08300005616865616400B5FFF768FF43
:103F200047F8046D052600BD423F1C0830000672AC
:103F300065706561740000B500F05BF8FFF79EFFE7
:103F400000BD863F1C083006057768696C6500B5C2
:103F5000FFF7B7FFFCF78BFB00BD00B5FFF7B9FF1C
:103F6000FCF785FB00BDFEF7E1FD17537472756326
:103F7000747572657320646F6E2774206D6174634D
:103F8000680A00F0BDBDE63F1C08300605756E747A
:103F9000696C012EE7D140CF07E77047012EE2D1CF
:103FA00040CF00B5FDF7FFFB816A00290DD002B4B8
:103FB000FCF7C0F9FFF71CFF39683E600E4647F872
:103FC000046D40BCFFF76DFE00BDFFF734FFFFF747
:103FD0000FFF39683E600E4647F8046D4DF200064B
:103FE000FFF75FFE00BDFA3F1C0830000561676106
:103FF000696E012EB7D140CFE6E624401C083000A0
:1040000005626567696E00B5FFF7B4FE47F8046D99
:10401000012600BDD087003801F8FFFF00F8FFFF40
:104020001C0800383E401C082002016B47F8046D54
:10403000029E704747F8046D49F602060BE06C409B
:104040001C082002016A47F8046D009E704747F87B
:10405000046D49F6000600B5FCF737F9FCF708FADD
:1040600003601B021E43FFF7D3FA00BD98401C08F3
:104070002002016947F8046D2600704700B547F833
:10408000046D40F22006FCF720F9FCF7F1F903601B
:104090001E43FFF7BDFA00BDD6401C083000056C7A
:1040A0006561766500B5754801683B00043F1A6894
:1040B000043B1A6008338B42F9D103B4FFF798FE32
:1040C00003BC330040CF04390B60016004390A6837
:1040D00001320A6000BDE8401C08200006756E6CC5
:1040E0006F6F700030BC704720411C083000052BFA
:1040F0006C6F6F70032E00D035E740CF00B547F8E6
:10410000046D5F4EFFF771F8FFF742FE1AE014F1FD
:104110000044641BA41940CF2C44A4F10044704710
:1041200062411C083000046C6F6F7000032E00D0D9
:1041300019E740CF00B547F8046D524EFFF755F828
:10414000FFF719FE00F04AF94C48310040CF0160FA
:1041500047F8046D4C4EFFF748F800BD0134AC42FF
:104160007047AA411C08300202646F0000B547F88E
:10417000046D464EFFF739F84048016847F8046D72
:104180000E0047F8046D00260760FFF7F3FD47F8BF
:10419000046D032600BD00B500F02FF8ECE730B445
:1041A000340040CF350040CF704790421C083002A9
:1041B000033F646F00B547F8046D344EFFF715F800
:1041C00047F8046D44F2AC26FFF722FA2B48016849
:1041D00047F8046D0E00FFF70BFE013647F8046D3B
:1041E000012626480760FFF7C5FD47F8046D032642
:1041F00000BD00B500F001F8E2E700B5FCF7FFF9FB
:10420000FCF774F9FCF7A2F8FCF7A5F8FCF7A8F89E
:1042100047F8046D4BF23046FFF7FAF90168282998
:1042200008D047F8046D40F20406C9000E43FFF7BA
:10423000EFF907E047F8046D466847F8046D042677
:10424000FEF78CFE8168282908D047F8046D40F2FB
:104250000506C9000E43FFF7DBF907E047F8046DD8
:10426000C66847F8046D0526FEF778FEFCF737F8B8
:10427000FCF735F8FCF77EF800BD000004080038B4
:104280000E411C085C411C08E4401C089E411C08AF
:10429000B0421C08300004636173650000B5FCF790
:1042A000AEF947F8046D002647F8046D082600BDF6
:1042B000C6421C083000033F6F666B4809E0013EB0
:1042C000B64140CF704784431C083002026F66003D
:1042D0006648082E00D046E640CF00B547F8046D8A
:1042E0000600FEF782FFFFF783FD39683E600E4649
:1042F000013647F8046D0926FFF780F900BD082E46
:1043000000D030E640CF00B5FCF7F0F8FCF71EF81F
:10431000FCF721F8FCF724F847F8046D44F28026F6
:10432000FCF720F90E430268282A1ED14268FF2AB2
:1043300008D840CF47F8046D42F60006164309023C
:104340000E4314E047F8046D4668FEF753FD04CFB2
:10435000002E40CF06D0464E164356EA0146FFF7E0
:1043600086F906E0FCF7F4F80A00D2001643FFF7DE
:104370004FF9FBF7B4FFFBF7FDFFB4E7300040CF88
:10438000B0427047BA431C08300005656E646F6622
:10439000092E00D0E7E540CF00B540B440CFFFF78D
:1043A00027FD39683E600E46FFF73BFD47F8046D78
:1043B00040BC47F8046D082600BD04441C083000CA
:1043C00007656E6463617365082E00D0CBE540CF4E
:1043D00000B5FFF713F900F001F800BD00B530009B
:1043E00040CF00280DD003B401213140002903D073
:1043F000013EFFF70CFD01E0FFF703FD03BC0138B0
:10440000EFE700BD18441C08000005746F6B656E73
:1044100047F8046D202605E07C441C080000057068
:104420006172736510B5134801684068124A1268DA
:104430008418202E07D191420FD0835CB34202D161
:1044400001328418F7E7914207D0835C0132B3420E
:10445000F9D18618361B013E01E08618361B043F51
:104460003C600548026010BDBE421C087C431C082D
:10447000000FB0F1DC870038E4870038BA441C082C
:104480000000056469676974CF4B1B68303E0BD32D
:104490000A2E0BD3073E0A2E06D3242E06D3203E27
:1044A0000A2E01D3242E01D3002670479E42FBD250
:1044B00047F8046D0026F6437047C4451C08000009
:1044C000066E756D626572003FB5310040CF701E9B
:1044D0000126012204B4BC4B1B68002400250029DE
:1044E0003CD00130013902782D2A04D101B00022DC
:1044F000D24304B4F3E7232A01D10A23EFE7242AA5
:1045000001D11023EBE7252A01D10223E7E72E2A68
:1045100001D10226E3E72C2A36D047F8046D1600B5
:10452000FFF7B4FF002E40CF2BD047F8046D2600D4
:1045300047F8046D2E0047F8046D1E0047F8046D1F
:1045400000260FB4FCF763FA0FBC350040CF3400EF
:1045500040CF0022A419554140CFC0E704BC002A37
:1045600004D50022E443ED430134554133002600D5
:10457000012B02D047F8046D2E0047F8046D1E0091
:104580003FBD01B000263FBD2500002402260029C2
:10459000E4D0425C01392E2AF9D047F8046D1600A8
:1045A000FFF774FF002E40CFEBD0043F3C6047F88C
:1045B000046D1E000FB4FCF7D9FA0FBC340040CFD5
:1045C00040CFE4E7E6451C080000062E64696769F1
:1045D00074000A2E01D230367047242E01D23736AD
:1045E0007047232670471C461C08000004686F6C47
:1045F0006400330040CF7548017843290DD2013162
:1046000001704018012907D001380278013002708A
:10461000013801390129F7D1037070473C461C0865
:10462000000005686F6C643C330040CF6748017838
:10463000432902D2013101704354704754461C088B
:104640000000047369676E00002E01D440CF7047EC
:104650002D26CEE768461C08000002233E005B487A
:10466000067801303860704780461C0800000366F9
:10467000235310B5202400F008F8013CFBD110BDF5
:10468000A2461C0800000266230000B547F8046D2E
:104690004D4E3668FCF77DF9FFF79BFFFFF7C4FF2F
:1046A00000BDBE461C0800000223530000B500F008
:1046B0000AF8002EFBD138680028F8D100BDEA4680
:1046C0001C080000012300B547F8046D3E4E366813
:1046D00047F8046D0026FCF768FAFBF7C8FF40CFE7
:1046E000FFF777FFFFF785FF00BDFC461C080000C1
:1046F000023C230035480021017070470E471C081A
:10470000000002662E0047F8046D202604E05C4796
:104710001C08000003662E6E00B510B4340040CFB4
:10472000FCF760FCFCF7BAF847F8046D0026FFF7C9
:10473000E1FFFFF7BBFF40CF2C26FFF775FF002CF2
:1047400003D0FFF7A2FF013CFBD110BC40CFFFF725
:104750007BFF47F8046D47F8046D1CE072471C08A6
:1047600000000375642E00B5FFF7C4FFFFF79EFF3E
:1047700011E0A4471C08000002642E0000B5FCF7FD
:1047800031FCFCF78BF8FFF7B5FFFFF78FFFFCF765
:104790003BFCFFF759FFFFF762FFFEF71BFAFEF73E
:1047A00074F900BDB6471C08000002752E0047F8DA
:1047B000046D0026D7E78C491C080000012E47F83D
:1047C000046DF617DAE70000FC8700387C08003833
:1047D00030B5DC4C2568002D01D13D00256030BD91
:1047E00030B5D84C3D00256030BD30B5D54C0025E6
:1047F000256030BDD34B1B68DB1B9B08704700B5A1
:10480000310040CF4FF48050084002D000F0A6F8AD
:1048100000BD4FF48060084001D1FCF77DFF3200FD
:1048200040CFFFF7D5FF4FF40050084003D047F8C2
:10483000046D160000BDFFF7DDFF8020084006D1A3
:104840004020084009D00F200840834205D347F894
:10485000046D1600FEF77CFD00BD4FF400700840AB
:1048600014D0FBF7D4FC47F8046D160047F8046D2C
:104870000E0000F031F81000FEF7CEFC421CB248EA
:104880009047FFF7ADFFFBF7D1FC00BDFBF7BFFC86
:1048900047F8046D160047F8046D0E0000F01CF890
:1048A000FBF748FDFFF7A1FF4FF40060084001D17E
:1048B000FBF7A5FE47F8046D160010220A4002D04F
:1048C000FEF746FD00BD20220A4002D0FEF78DFC17
:1048D00000BDFEF7A0FB00BD0FB5320040CF330096
:1048E00040CF9A480168062907D2062041439848DC
:1048F000401803801B0C438082809448016801317A
:1049000001600FBD0FB59148016806291FD8904876
:1049100001391DD047F8046D0E00FEF779FE47F807
:10492000046D0688FEF774FE47F8046D4688FEF7AE
:104930006FFE47F8046D8688FEF76AFE063001397F
:10494000EDD147F8046D41F20006FEF704FE0FBDFD
:1049500047F8046D4026FEF7FEFD0FBD00B53000A0
:1049600040CFFEF759FC0188023047F8046D0688F5
:1049700042881204164347F8046D868803B4FFF793
:104980003EFF03BC06300139EFD100BDD4491C08FD
:104990000000086576616C756174650000B5FEF70E
:1049A00012F801CF01B440B440CF6A48016802B4A4
:1049B00000210160FDF7FAFF00F014F8654802BC21
:1049C000016047F8046D40BC01BC043F3860FDF74E
:1049D000EDFF00BDD84A1C08000009696E746572BD
:1049E0007072657400B55C4887420BD9FEF79EF87B
:1049F00010537461636B20756E646572666C6F77BB
:104A00000A007DE0554887420AD2FEF78FF80F531F
:104A10007461636B206F766572666C6F770A6FE006
:104A2000FFF7D6FEFFF7F4FC002E02D1043740CF8B
:104A300000BD386827E94100FFF7C5F8310040CFD5
:104A4000320040CF002A1BD138683100FCF764FEE9
:104A5000FFF73AFD320040CF002AC4D147F8046D79
:104A6000060047F8046D0E00FEF7B4F8FEF75EF896
:104A70000C206E6F7420666F756E642E0A003FE026
:104A8000374B1B68002B1CD1FFF7AFFE30230B40C8
:104A9000302B0ED1FEF79EF8FEF748F8122069730E
:104AA00020636F6D70696C652D6F6E6C792E0A00D6
:104AB00026E0043740CF47F8046D1600FEF748FCA7
:104AC00091E7043740CF47F8046D160047F8046DAE
:104AD0000E00FFF794FE86E7F44A1C08810009687F
:104AE0006F6F6B2D7175697447F8046D1D4E7047BB
:104AF000304B1C08784B1C08000004717569740069
:104B0000DFF864D0144FFDF7F7FA18480A21016066
:104B10001348002101600B480160FBF752FC0D486F
:104B2000016013480160134941600E4800688746E0
:104B3000FDF757FFFFF756FFFDF7F8FF05206F6BF6
:104B40002E0AF5E70008003820080038540800381D
:104B500058080038E4870038880A00388809003887
:104B6000D8870038C8870038880B0038FC870038A1
:104B7000DC870038C0080038924B1C08000005652F
:104B8000696E743F47F8046DEFF31086013EB6413D
:104B90007047A24B1C0820000465696E740062B661
:104BA0007047B24B1C0820000464696E740072B632
:104BB0007047C84B1C08200004697073720047F8E6
:104BC000046DEFF305867047D44B1C080000036E9C
:104BD0006F707047164C1C08000009756E68616E96
:104BE000646C656400B5FDF7A1FF14556E68616ED5
:104BF000646C656420496E7465727275707420000F
:104C000047F8046DEFF30586FDF7F8FFFDF78EFF1B
:104C100002210A0000BD284C1C08000005726573C3
:104C20006574C648C6490160524C1C0881000B6976
:104C300072712D7379737469636B47F8046DC14E9B
:104C40007047E44B1C0848F2C470C3F600000068CB
:104C500087467A4C1C088100096972712D6661755E
:104C60006C7447F8046DB84E7047E44B1C0848F26A
:104C7000C070C3F6000000688746A84C1C0881007D
:104C80000E6972712D636F6C6C656374696F6E0071
:104C900047F8046DAD4E7047E44B1C0848F2BC70F9
:104CA000C3F6000000688746D04C1C0881000969E3
:104CB00072712D657874693047F8046DA44E7047A1
:104CC000E44B1C0848F2B870C3F600000068874641
:104CD000F84C1C088100096972712D65787469317E
:104CE00047F8046D9B4E7047E44B1C0848F2B470C3
:104CF000C3F6000000688746204D1C088100096942
:104D000072712D657874693247F8046D924E704760
:104D1000E44B1C0848F2B070C3F6000000688746F8
:104D2000484D1C088100096972712D6578746933DA
:104D300047F8046D894E7047E44B1C0848F2AC708C
:104D4000C3F6000000688746704D1C0881000969A1
:104D500072712D657874693447F8046D804E704720
:104D6000E44B1C0848F2A870C3F6000000688746B0
:104D7000964D1C088100076972712D61646347F8C4
:104D8000046D784E7047E44B1C0848F2A470C3F6DB
:104D9000000000688746BE4D1C08810008697271DA
:104DA0002D74696D320047F8046D6F4E7047E44B07
:104DB0001C0848F2A070C3F6000000688746E64D64
:104DC0001C088100086972712D74696D330047F801
:104DD000046D664E7047E44B1C0848F29C70C3F6A5
:104DE0000000006887460E4E1C0881000869727139
:104DF0002D74696D340047F8046D5D4E7047E44BC7
:104E00001C0848F29870C3F60000006887461C0032
:104E10001E08FFFF182D2D2D20466C61736820445D
:104E2000696374696F6E617279202D2D2D00FDF715
:104E300093FC50488546504F2A2647F8046D4F4E44
:104E40004F4DB1884FF6FF73994220D04FF48073D5
:104E50000B400AD0B01DFEF7A8FEFEF7DDF903886F
:104E6000408800040343ED1A11E080230B400ED06C
:104E70000907890E6D1AB01DFEF797FEFEF7CCF9F3
:104E80000C3FBE6078603D600E00FCF70BFDFEF746
:104E900056FE300040CFD4D03A48066040CF3A4862
:104EA00005604FF0026039494FF6FF72884204D026
:104EB000023803889342F9D0023035490860FDF783
:104EC0001BF9FDF733FE494D6563726973702D530D
:104ED00074656C6C6172697320524120332E302EE0
:104EE0003020666F722053544D3332483734355F6B
:104EF000434D342076302E34206279204D61747415
:104F000068696173204B6F636820657420616C0A67
:104F1000204800210160FBF754FA083F7E601E4ED6
:104F20003E600426FEF74FFE40CF002E02D0FEF773
:104F30000FFAFAE540CFE3E5696E69740CED00E025
:104F40000400FA05C4870038C0870038BC870038E1
:104F5000B8870038B4870038B0870038AC8700388D
:104F6000A8870038A4870038A08700389C870038BD
:104F700098870038880B0038880A0038E4011C083C
:104F800000880038140800381C08003800001E088B
:0C4F90001008003800080038384F1C08DA
:04000005081C0000D3
:00000001FF
