:020000040800F2
:100000008803002097520008D7500000D750000006
:10001000D7500000D7500000D7500000000000006B
:10002000000000000000000000000000055100007A
:10003000055100000000000005510000AF50000015
:100040000551000005510000055100000551000058
:1000500005510000055100002D51000055510000D0
:100060007D510000A5510000CD5100000551000058
:100070000551000005510000055100000551000028
:100080000551000005510000F3510000055100002A
:100090000551000005510000055100000551000008
:1000A00005510000055100000551000005510000F8
:1000B0001B520000435200006B520000055100002B
:1000C00005510000055100000551000005510000D8
:1000D00005510000055100000551000005510000C8
:1000E00005510000055100000551000005510000B8
:1000F00005510000055100000551000005510000A8
:100100000551000005510000055100000551000097
:100110000551000005510000055100000551000087
:100120000551000005510000055100000551000077
:100130000551000005510000055100000551000067
:100140000551000005510000055100000551000057
:100150000551000005510000055100000551000047
:100160000551000005510000055100000551000037
:100170000551000005510000055100000551000027
:100180000551000005510000055100000551000017
:100190000551000005510000055100000551000007
:1001A00005510000055100000551000005510000F7
:1001B00005510000055100000551000005510000E7
:1001C00005510000055100000551000005510000D7
:1001D00005510000055100000551000005510000C7
:1001E0000551000020060000FFFF222D2D2D204D7F
:1001F0006563726973702D5374656C6C6172697399
:1002000020524120322E362E35202D2D2D0007B5BF
:100210009048002B09D000F03DF800F043F800F0C2
:1002200028F8426028210160F3E707BD00B589483E
:1002300000230168282905D1426800F004F800F085
:100240004EF8F6E700BD03B547F8046D160047F811
:10025000046D1E0008B400F09FFF08BC013347F88E
:10026000046D7D4E47F8046D40F2612604F032FDC6
:1002700003BD03B5013B47F8046D1E0008B400F050
:1002800075FF08BC320047F8046D4FF4005604F0C7
:1002900021FD03BD03B5714801681E2901D000F09E
:1002A00034F803BD8169016201698161816801617E
:1002B00001688160C16941624169C161C168416190
:1002C0004168C1601E21016070470FB56148016837
:1002D0001E2903D0FFF7DEFFFFF7E4FF0FBD02B5D5
:1002E00081680160C168416000E002B50169816018
:1002F0004169C16081690161C1694161016A8161CE
:10030000416AC1611E21016202BD08B501681E2259
:100310000260082901D20B0004E0282909D14368B2
:1003200000F05BF847F8046D4D4E56EA033603F0D3
:1003300067FB08BD00B500F009F800F00CF800F00C
:100340000FF800F012F800F015F800BD0FB54348A3
:10035000FFF7DBFF0FBD0FB54248FFF7D6FF0FBD1C
:100360000FB54148FFF7D1FF0FBD0FB53F48FFF76D
:10037000CCFF0FBD0FB537480168062202601E2969
:1003800006D147F8046D4CF6407603F009FB15E002
:10039000282909D1436847F8046D1E0047F8046D09
:1003A000062602F08FFF09E0062907D047F8046D02
:1003B00044F20666C9000E4303F0F2FA00F001F8B9
:1003C0000FBD24481E210162816101618160C1620B
:1003D0000621016000218162704707B547F8046D6E
:1003E0001E0000F045F847F8046D1E0002F06AFF99
:1003F00007BD07B5C16A282904D1016B994201D113
:10040000002307BD0168002918D08168002915D094
:100410000169002912D0816900290FD0016A0029E1
:100420000CD0036347F8046D1E0047F8046D0026E6
:1004300002F048FF2821C162002307BD47F8046D80
:100440001E0000F015F847F8046D1E0002F03AFF98
:1004500007BD000020000020200F00004000002009
:10046000040D47F83800002030000020280000204C
:1004700037B536480168826803698469056A0620D1
:1004800000F00EF8032000F00BF8022000F008F84E
:10049000012000F005F800232C481E21C16237BD61
:1004A000814209D0824207D0834205D0844203D0E2
:1004B000854201D0030037BD704747F8046D4CF604
:1004C000007600B581581E2905D1FFF7D1FF835072
:1004D000012199400E4300BD00B501681E2904D1D9
:1004E0000022FFF7EAFF03F05BFA00BD00B5816868
:1004F0001E2907D10822FFF7E0FF0022FFF7E1FFE6
:1005000003F04EFA00BD00B501691E290AD1102280
:10051000FFF7D3FF0822FFF7D4FF0022FFF7D1FF38
:1005200003F03EFA00BD00B581691E290DD11822E5
:10053000FFF7C3FF1022FFF7C4FF0822FFF7C1FF38
:100540000022FFF7BEFF03F02BFA00BD20000020C1
:1005500000B50168282904D14368FFF73EFF036016
:10056000190000BD00B58168282904D1C368FFF7D0
:1005700034FF8360190000BD00B50169282904D14A
:100580004369FFF72AFF0361190000BD3EB5826889
:1005900003698469056A9A4203D0A24201D0AA4243
:1005A0000AD1072A08D847F8046DD600FFF760FF84
:1005B0001E43836003F0F4F93EBD3EB501688268D6
:1005C00003698469056A914206D0994204D0A14228
:1005D00002D0A94200D03EBD47F8046DCE00FFF71F
:1005E00047FF1E43036003F0DBF93EBD00B5FFF794
:1005F00076FEFFF76AFEFFF73BFF036000BD01B523
:1006000006480368013308D00023DB43036047F842
:10061000046D4BF2005603F0C3F901BDD8FF012071
:10062000440600004202043264757000386847F8DE
:10063000046D043F3860704700B500F0C3FC00F063
:10064000C1FC00BD620600006202053264726F7078
:10065000043740CF704700B500F064FC00F062FC46
:1006600000BDA8060000440205327377617007CF11
:10067000043F386047F8046D043F3A600E0070474D
:1006800000B5FFF750FF026803690360026142682A
:100690004369436042618268836983608261C268A2
:1006A000C369C360C26100BDD006000062020432AB
:1006B0006E69700007CF043F3860704700B5FFF7E0
:1006C00032FFFFF7DDFFFFF70AFEFFF708FE00BD70
:1006D000EA060000440005326F766572B86847F894
:1006E000046D043F3860FE6870470E070000440048
:1006F00005327475636B07CF043F386047F8046DAB
:10070000043F3A60043F3960043F38607047300767
:10071000000046000432726F74003868B9683A69A4
:10072000B86039613A6079687E60FE68F960704748
:1007300052070000460005322D726F743868B968A0
:100740003A6938613960BA60F968FE607E6879603C
:1007500070477A070000200203323E7201CF01B4D5
:1007600040B440CF704700B5FFF749FF00F0FDFBF4
:1007700000F09DFC00F09BFC00BDA60700002002DD
:100780000332723E47F8046D40BC01BC043F386040
:10079000704700B5FFF733FF00F0A5FC00F0A3FCA5
:1007A00000F0E3FB00BDD6070000200203327240D8
:1007B00047F8046D019E47F8046D009E704700B530
:1007C000FFF71DFF47F8046D49F6010603F03DFEF3
:1007D00003F037FE00BDFC07000020020632726401
:1007E000726F700002B0704700B5FFF708FF47F85E
:1007F000046D4BF2020603F0D3F800BD14080000AC
:1008000042000364322F3868F1077610400808432D
:10081000386070472A08000062020364322A386890
:10082000001876413860704717E044080000420025
:100830000464736872003868F1077608400808435A
:1008400038607047900800006202046473686C00AE
:100850003868001876413860704700B5FFF746FEEB
:10086000FFF776FEFFF7A9FE00F07FFBFFF770FEB3
:10087000FFF7A3FE47F8046D402601F09BFE00F051
:1008800074FB47F8046D44F2401601F093FE00BD7E
:10089000A20800004200046461627300002E07D4C5
:1008A0007047C0080000420007646E6567617465A8
:1008B00038680021C043F64301304E41386070472C
:1008C00010090000640202642D0007CF121AB14122
:1008D0000E00043F3A60704700B5FFF724FE00F0B9
:1008E00099FBFFF735FEFFF768FE00F03EFBFFF7D0
:1008F0002FFEFFF762FEFFF7C3FE01F0C5FD00F01B
:10090000A5FB47F8046D44F2801600F04EFD00BDD3
:100910005E090000640202642B0007CF12184E41EA
:10092000043F3A60704700B5FFF7FDFD00F072FB31
:10093000FFF70EFEFFF741FE00F017FBFFF708FE82
:10094000FFF73BFEFFF79CFE01F083FD00F07EFB0E
:1009500047F8046D44F2401600F02BFD00BD8809F5
:100960000000610203733E6447F8046DF617704798
:1009700000B500F0C5FAFFF720FE47F8046D41F21C
:10098000C07601F017FE00BDE609000062020375A3
:100990006D2A3868A0FB06063860704747F8046D7A
:1009A000DFF8006500B5FFF7A1FDFFF7D1FDFFF708
:1009B000D9FD01680E43816856EA0146FFF78FFCB6
:1009C000FFF78DFCFFF781FCFFF752FD036056EA4D
:1009D0000336FFF77AFCFFF74BFD036056EA032668
:1009E00003F00EF800BD040A00006202026D2A0046
:1009F000386880FB06063860704747F8046DDFF8FA
:100A0000A864CFE7420A000044000375642A07CFB8
:100A1000564341437618010C130C59437618010CC8
:100A200080B292B25143434350430022C91852410D
:100A30001204B6180A04090C80184E41043F3860AD
:100A40007047D40A000044000475646D2A0010B594
:100A5000002447F8046D7E6847F8046D3E69FFF78F
:100A600098FF310040CF300040CF47F8046D3E681A
:100A700047F8046DFE6803B4FFF78BFF03BC330037
:100A800040CF320040CF47F8046D3E6847F8046D10
:100A90003E690FB4FFF77DFF0FBC9219634140CF51
:100AA00089196241634140CF47F8046D7E6847F879
:100AB000046DFE680FB4FFF76CFF0FBC9219634121
:100AC00040CF89196241634140CF1E003A6079608E
:100AD000B86010BDF60A00004300022A2F0000B5DE
:100AE00040B440CFFFF784FF47F8046D40BC00F0EE
:100AF0004CF8043700BD180B00004300052A2F6D89
:100B00006F6400B540B440CFFFF772FF47F8046D43
:100B100040BC00F03AF800BD3A0B000043000375FA
:100B20002A2F00B540B440CFFFF733FF47F8046DDC
:100B300040BC00F01BF8043700BD5E0B0000430012
:100B400006752A2F6D6F640000B540B440CFFFF7E3
:100B500020FF47F8046D40BC00F008F800BD7E0B94
:100B60000000430006756D2F6D6F640000B547F8F7
:100B7000046D002600F019F840CF043700BD9C0B2F
:100B800000004300056D2F6D6F6400B547F8046DDC
:100B9000F61700F032F840CF043700BDEE0B00002E
:100BA00044000675642F6D6F640030B4002300228A
:100BB0007968B86835003C68402640004941524198
:100BC0005B41AB4202D804D3A24202D3121BAB4119
:100BD0000130013EF1D10E0038607B60BA6030BC5C
:100BE000704730B400237A68B9680020E2E7640CEB
:100BF0000000440005642F6D6F6400B5F01719D034
:100C0000FFF756FEFFF733FDF0170CD0FFF750FE4D
:100C1000FFF72DFDFFF7C9FFFFF729FDFFF748FE9E
:100C2000FFF725FD00BDFFF722FDFFF7BEFFFFF731
:100C30003FFE00BDFFF71BFDF0170ED0FFF738FE9B
:100C4000FFF715FDFFF7B1FFFFF732FEFFF70FFDCE
:100C5000FFF72EFEFFF70BFD00BDFFF708FDFFF7C6
:100C6000A4FF00BD7A0C0000440002642F0000B510
:100C7000FFF7C3FFFFF71EFD00BDC20C00004400DC
:100C800002662A0000B5F0170DD0FFF711FEFFF73E
:100C9000EEFCF0170DD0FFF70BFEFFF7D8FE40CFAC
:100CA00001CF386000BDFFF7E2FCF017F5D0FFF789
:100CB000FFFDFFF7CCFE40CF01CF3860FFF7F8FD16
:100CC00000BD0E0D0000440002662F0000B5F017B5
:100CD0000ED0FFF7EDFDFFF7CAFCF0170ED0FFF7BF
:100CE000E7FDFFF7C4FCFFF77CFFFFF7E3FC00BD67
:100CF000FFF7BDFCF017F4D0FFF7DAFDFFF7B7FC04
:100D0000FFF76FFFFFF7D4FDFFF7D4FC00BD560DD2
:100D1000000020020232210006CF3160726040CF15
:100D2000704700B5FFF7EFFB0168426806B400F0BA
:100D30000CFEFFF7CAFA06BC0160282906D047F866
:100D4000046D46F2400600F004FE00BD043242602D
:100D500000F0FBFD00BDA00D0000200202324000AB
:100D6000043F706838603668704700B500F0C8F816
:100D7000016828290AD047F8046D46F6400600F0BD
:100D8000C5FD00F0F2F800F0BDFD00BD4168043182
:100D9000416000F0B7FD00F0E8F800F0B3FD00BDE1
:100DA000B40D000044000364753C07CF121AB14132
:100DB000B6417047C80D000044000364753E07CF7C
:100DC000801A8E41B6417047DE0D00004400026477
:100DD0003C0007CF121AB1410CDB00267047FA0D18
:100DE0000000440002643E0007CF801A8E4101DB00
:100DF000002670470026F6437047160E0000620278
:100E00000364303C0437F617704700B500F0C0F8B3
:100E100000F058FB00BD3E0E000062020364303D4E
:100E200001CF0643013EB641704700B547F8046D57
:100E300044F2003600F0BDFA00F01EFB00BD640E67
:100E40000000440203643C3E07CF50404E4006433E
:100E5000013EB641F643704700B500F015F800F0CA
:100E60001FFB00BDAC0E0000440202643D0007CF32
:100E700050404E400643013EB641704700B500F079
:100E800003F800F0F9FA00BD00B5FFF74CFB00F0E5
:100E9000C1F800F0C3F900F0D9F800F0BFF900F094
:100EA000B0F900BD0000A0FB000080FBBE0E0000FA
:100EB00020000373704047F8046D3E007047CE0E6B
:100EC0000000200003737021370040CF7047E00E10
:100ED000000020000372704047F8046D6E467047B2
:100EE000F00E0000200003727021B54640CF70471D
:100EF000140F000061020364757047F8046D7047B9
:100F000006B5FFF7E9FA01684268FFF7DEF901600C
:100F1000426006BD400F000061020464726F700001
:100F200040CF704700B501681E2906D147F8046D0F
:100F300043F2047602F034FD00BDFFF7D0F900BDA6
:100F4000560F00006100043F64757000002E01D050
:100F500047F8046D7047820F0000620204737761E6
:100F6000700039683E600E0070470CB5FFF7BEFA9E
:100F700002688368036082604268C3684360C2603D
:100F80000CBDB00F00006202036E69700437704739
:100F900000B5FFF7A1FA81681E2902D0FFF7A5F975
:100FA00000BD47F8046D43F2047602F0F9FC00BD81
:100FB000D80F00006202046F7665720047F8046D76
:100FC0007E68704700B5FFF791FA8168C268FFF745
:100FD0007CF90160426000BDFE0F000062020474F3
:100FE00075636B0001CF083F7E603860704700B5C5
:100FF000FFF77CFAFFF784FF00F028F800BD3410FB
:101000000000630203726F7403CF083F78603E6094
:101010000E0070470EB5FFF776FA01688268036923
:101020008160026103604168C2684369C1604261D6
:1010300043600EBD581000006302042D726F7400EF
:1010400003CF083F7E6039600600704700B5FFF7A8
:10105000E1FFFFF7DFFF00BD6A1000002000047011
:1010600069636B0057F8266070478210000000002B
:101070000564657074684F49C91B47F8046D8E108C
:1010800070479E100000000006726465707468006E
:1010900047F8046D6E464849891B8E107047D4107E
:1010A00000002002023E720040B440CF704700B5FD
:1010B000FFF7A5FAFFF710FAFFF74AFA47F8046DB1
:1010C0004BF2004601228A40164302F069FCFFF70A
:1010D00006F900BD0A110000200202723E0047F826
:1010E000046D40BC704700B5FFF789FAFFF7EDF8D3
:1010F000FFF7BEF9036047F8046D4BF60046012286
:101100009A40164302F04CFC00BD2811000020025A
:101110000272400047F8046D009E704700B5FFF76B
:101120006EFA03F08EF900BD4C110000200205722A
:1011300064726F7001B0704700B5FFF760FA47F84E
:10114000046D4BF2010602F02BFC00BD60110000A3
:10115000200005727069636BB6006E443668704794
:101160008C110000000004726F6C6C00002E01D125
:1011700040CF7047B0003958C019031F1A68026089
:101180000438013EF9D104370E007047BC1100004D
:101190000000052D726F6C6C002E01D140CF70479E
:1011A000386839464A680A600431013EFAD108605D
:1011B00040CF70478802002088030020D61100002D
:1011C000620203616E6401CF0640704747F8046D08
:1011D00044F20006EDE0F21100006202036269636E
:1011E00001CFB0430600704747F8046D44F28036E3
:1011F000DBE00C1200006202026F720001CF0643B6
:10120000704747F8046D44F20036D2E02612000021
:10121000620203786F7201CF4640704747F8046D51
:1012200044F24006C5E03E1200006202012A01CFEE
:101230004643704747F8046D44F24036B9E07212F5
:101240000000610203636C7AB6FA86F6704700B557
:10125000FFF742F947F8046D7E4EFFF779F90E4328
:1012600056EA0146FFF7C2F956EA032602F0C8FB28
:1012700000BD90120000611803726F720120C64118
:1012800070470200010000000020BC120000620252
:10129000AE120000611803726F6C1F20C6417047C8
:1012A00002001F0000000020BC1200006202CE12EB
:1012B000000062020772726F7461746501CFF041C1
:1012C0000600704747F8046D44F2C0166DE006133F
:1012D00000006202076172736869667401CF304171
:1012E0000600704700B547F8046D44F2001647F851
:1012F000046D41F20006FFF7F9F841681F292AD969
:101300001F21416027E030130000620206727368FB
:101310006966740001CFF0400600704700B547F8D9
:10132000046D44F2C00647F8046D40F6000612E072
:10133000681400006202066C73686966740001CF6D
:10134000B0400600704700B547F8046D44F28006CF
:1013500047F8046D0026FFF7C9F80168282903D073
:1013600040CF00F022F800BD04374168FEF7B7FF18
:10137000002901D140CF00BD1F290AD889010E43A1
:101380000268D2001643FFF731F91E4302F008FB52
:1013900000BD40CFFFF72AF947F8046D42F200067E
:1013A0001B021E4302F0FCFA00BD0FB5FFF79EF8CA
:1013B0000CE00FB5FFF79AF80168062901D1FFF795
:1013C000D4FD8268282A01D1FFF7CFFDFFF7CAF8C4
:1013D000016828291ED147F8046D466801F0BEFE59
:1013E00002CF002E40CF15D0B6F5804F01D11A4E56
:1013F0001EE044F24002964201D1184E18E0B6F5C4
:10140000864F01D1164E13E04FF48742964201D128
:10141000144E0DE0FFF7BAF8FFF79AF8C90082689A
:101420000E43164302F0BCFAFEF759FF0FBD0FB58D
:101430000E43816856EA0146FEF751FFFEF74FFF63
:10144000FEF743FFFFF714F8036056EA032602F0A5
:10145000D7FA0FBD80F0B0FA000010F0000090F055
:10146000000050F0000030F08E14000061020230E5
:101470003D00013EB641704700B500F0FBF801F0B9
:1014800056F8FEF72CFF4FF45241816200BDB614AE
:101490000000610203303C3E013EB641F643704716
:1014A00000B500F0E7F801F042F8FEF718FF4FF43E
:1014B0005341816200BDDE140000610202303C0035
:1014C000F617704700B500F0D5F847F8046D41F203
:1014D000C07601F06FF84FF45541816200BDF414FD
:1014E0000000600004747275650047F8046D002602
:1014F000F64370470815000060000566616C73656F
:1015000047F8046D002670472E1500004202023E87
:101510003D0001CFB042EADA0026704747F8046D7B
:101520004DF6003647F8046D4DF60026AEE0541532
:1015300000004202023C3D0001CFB042D7DD002650
:10154000704747F8046D4DF6004647F8046D4DF6B8
:1015500000569BE0781500004202013C01CFB042EA
:10156000C5DB0026704747F8046D4DF6002647F8A6
:10157000046D4DF6003689E09C1500004202013EE4
:1015800001CFB042B3DC0026704747F8046D4DF63A
:10159000005647F8046D4DF6004677E0C21500008E
:1015A000620203753E3D01CF861BB641F64370478C
:1015B00047F8046D4DF2003647F8046D4DF20026F1
:1015C00064E0E8150000620203753C3D01CF361A65
:1015D000B641F643704747F8046D4DF6000647F8EC
:1015E000046D4DF6001651E00C1600006202027503
:1015F0003C0001CF861BB641704747F8046D4DF2A1
:10160000002647F8046D4DF200363FE0301600002A
:10161000620202753E0001CF361AB641704747F8A4
:10162000046D4DF6001647F8046D4DF600062DE0EA
:10163000541600006202023C3E0001CF361A013E01
:10164000B641F643704747F8046D4DF2000647F87F
:10165000046D1BE0B61700006202013D01CF361A8F
:10166000013EB641704747F8046D4DF2001647F849
:10167000046D0BE000B5FEF72FFFFEF767FEFEF7E7
:101680006AFEFEF76DFEFEF76DFF00BD00B5FEF7CA
:101690002DFFFEF75BFEFEF75EFEFEF76DFF826834
:1016A000282A05D1FFF761FC39683E600E46826842
:1016B00040CF016828291DD14168FF2907D847F884
:1016C000046D42F600060E43816809021AE047F8ED
:1016D000046D466801F042FD02CF002E40CF09D0D4
:1016E00047F8046D6A4E0E43816856EA014602F0DF
:1016F00087F90AE0FEF72CFF47F8046D44F28026D4
:10170000C90016430E4302F04BF9FEF7E8FDFEF761
:10171000E6FD866240CF00BD0FB55E48816A0029B4
:1017200035D047F8046D866A00218162310AD529D7
:1017300001D140CF0FBDFEF7C8FDFEF799FE036053
:10174000D22904D14FF4834600F034FF0FBDD329D2
:1017500006D14FF4834600F02DFF00F03EFF0FBD91
:10176000023602F01DF947F8046D42F2000600F05F
:101770000FF800F032FF47F8046D4EF2000602F059
:101780000FF947F8046D42F2000600F001F80FBDB2
:1017900000B5FEF7A1FEFEF710FF016809020E4337
:1017A00002F0FEF800BD00B5816A090AD52901D111
:1017B000FEF795FD00BDD41700006202036D696E4F
:1017C00001CFB04200DC0600704747F8046D4DF6CB
:1017D00000362DE0F21700006202036D617801CF40
:1017E000B04200DB0600704747F8046D4DF6004636
:1017F0001EE012180000620204756D61780001CFCE
:10180000B04200D30600704747F8046D4DF600065D
:101810000EE098180000620204756D696E0001CF39
:10182000B04200D80600704747F8046D4DF200360C
:1018300000B5FEF75BFE01688268914203D140CF9C
:10184000FEF753FD00BD062A01D1FFF78EFB0168AC
:10185000282901D1FFF789FBFEF7AFFEFEF782FED4
:10186000C900026847F8046D44F280260E4316430F
:1018700002F096F802F094F847F8046D44F200661E
:101880000E43164302F08CF8FEF72FFD00BD00005A
:10189000000FB0F120000020D61800000000046DF9
:1018A0006F76650007B5310040CF320040CF002988
:1018B0000FD0B2420DD006D3013E013A705C5054B5
:1018C0000139FBD105E03078107001360132013961
:1018D000F9D140CF07BDF818000000000466696C1C
:1018E0006C00300040CF310040CF002902D00139D8
:1018F0007054FCD140CF70473A19000020020140DB
:101900003668704747F8046D46F6000600B5FEF7E6
:10191000E3FD0368282B08D143687C2119400901A5
:101920000E437C218B43FEF764FDDB001E43FEF774
:101930005DFE1E4302F034F800BD92190000200243
:10194000012103CF30600E00704747F8046D46F266
:10195000000600B5FEF7CAFD0368282B09D14368CD
:101960007C21194009010E437C218B43FEF741FD88
:101970000360DB001E438368282B02D1C368FEF797
:101980002CFD1E4302F00CF8FEF7A9FCFEF7A7FCA5
:1019900000BDC81900002002022B210003CF3268CD
:1019A000121832600E00704700B5FEF79FFDFFF77A
:1019B000A7FAFFF7A7FFFFF72DFB00F04AFDFFF79F
:1019C000D4FAFFF7C2FF00BD0C1A00002002026823
:1019D00040003688704700B5FEF77EFD47F8046D7D
:1019E00048F600060368282B08D143683E211940B9
:1019F00049010E433E218B43FEF7FBFCDB001E43F7
:101A0000FEF7F4FD1E4301F0CBFF00BD661A000097
:101A100020020268210003CF30800E00704700B51D
:101A2000FEF764FD47F8046D48F200060368282BB2
:101A300009D143683E21194049010E433E218B43A1
:101A4000FEF7D7FC0360DB001E438368282B02D11E
:101A5000C368FEF7C2FC1E4301F0A2FFFEF73FFC85
:101A6000FEF73DFC00BD9C1A0000200203682B21FC
:101A700003CF3288121832800E00704700B5FEF78F
:101A800035FDFFF73DFAFFF7A6FFFFF7C3FA00F0B9
:101A9000E0FCFFF76AFAFFF7C2FF00BDE01A0000A2
:101AA0002002026340003678704700B5FEF714FD4F
:101AB00047F8046D47F600060368282B08D14368F1
:101AC0001F21194089010E431F218B43FEF791FC12
:101AD000DB001E43FEF78AFD1E4301F061FF00BDDF
:101AE0003A1B000020020263210003CF30700E0079
:101AF000704700B5FEF7FAFC47F8046D47F20006A0
:101B00000368282B09D143681F21194089010E431E
:101B10001F218B43FEF76DFC0360DB001E438368CF
:101B2000282B02D1C368FEF758FC1E4301F038FF92
:101B3000FEF7D5FBFEF7D3FB00BD701B00002002B3
:101B400003632B2103CF3278121832700E007047D6
:101B500000B5FEF7CBFCFFF7D3F9FFF7A6FFFFF7C1
:101B600059FA00F076FCFFF700FAFFF7C2FF00BD5C
:101B7000941B0000200204626973210003CF3268C5
:101B8000024332600E00704700B547F8046D44F21E
:101B9000003630E0D41B000020020462696321009B
:101BA00003CF3268824332600E00704700B5FEF703
:101BB0009DFCFFF7A5F9FFF7A5FEFFF72BFA47F805
:101BC000046D44F28036FFF7F0FBFFF7CEF9FFF724
:101BD000BCFE00BD141C0000200204786F722100BE
:101BE00003CF3268424032600E00704700B547F8BC
:101BF000046D44F24006FEF779FCFFF781F9FFF728
:101C000081FEFFF707FAFFF7D4FBFFF7AEF9FFF706
:101C10009CFE00BD4A1C0000200204626974400062
:101C200001CF3668064018BF4FF0FF36704700B549
:101C3000FEF75CFCFFF766FE47F8046D44F2000611
:101C4000FFF7B7FBFFF72CFC00BD6E1C0000200265
:101C500005686269732103CF3288024332800E0027
:101C6000704700B547F8046D44F2003630E0AE1C12
:101C70000000200205686269632103CF3288824335
:101C800032800E00704700B5FEF730FCFFF738F9E0
:101C9000FFF7A1FEFFF7BEF947F8046D44F2803666
:101CA000FFF783FBFFF761F9FFF7B9FE00BDEE1CFC
:101CB000000020020568786F722103CF328842400D
:101CC00032800E00704700B547F8046D44F24006BC
:101CD000FEF70CFCFFF714F9FFF77DFEFFF79AF90A
:101CE000FFF767FBFFF741F9FFF799FE00BD141DF1
:101CF0000000200205686269744001CF3688064002
:101D000018BF4FF0FF36704700B5FEF7EFFBFFF747
:101D100062FE91E7381D00002002056362697321AD
:101D200003CF3278024332700E00704700B547F897
:101D3000046D44F2003630E0781D00002002056397
:101D40006269632103CF3278824332700E0070479C
:101D500000B5FEF7CBFBFFF7D3F8FFF7A6FEFFF7C2
:101D600059F947F8046D44F28036FFF71EFBFFF780
:101D7000FCF8FFF7BEFE00BDB81D000020020563A1
:101D8000786F722103CF3278424032700E00704774
:101D900000B547F8046D44F24006FEF7A7FBFFF7D5
:101DA000AFF8FFF782FEFFF735F9FFF702FBFFF709
:101DB000DCF8FFF79EFE00BDDE1D0000200205637B
:101DC0006269744001CF3678064018BF4FF0FF3685
:101DD000704700B5FEF78AFBFFF767FE2CE7FC1D96
:101DE000000000000C666C6173682D3430304D4883
:101DF0007A00DFF828062221016070471A1E0000D1
:101E000040000C7370692D726561642D737231002E
:101E100047F8046D4FF005067047381E000040007B
:101E20000C7370692D726561642D7372320047F80E
:101E3000046D4FF035067047561E000040000C73CD
:101E400070692D726561642D7372330047F8046DFB
:101E50004FF0150670471C1F0000000008696E69EE
:101E6000742D73706900DFF8B805026842F0020251
:101E70000260DFF8AC05026842F008020260DFF899
:101E8000A4150A6842F480520A60DFF89C05D0F875
:101E9000202022F47F2242F4AA22C0F82020D0F889
:101EA000082042F47072C0F80820D0F8002022F414
:101EB000707242F42072C0F80020DFF87005D0F88C
:101EC000202022F0704242F0A042C0F82020D0F83A
:101ED000082042F44042C0F80820D0F8002022F444
:101EE000404242F40042C0F80020D0F8002022F422
:101EF000405242F48052C0F80020D0F8142042F042
:101F00004002C0F81420DFF82815DFF828258A6081
:101F1000DFF82425CA6001220A607047821F000092
:101F20000000086A656465632D696400DFF80005D8
:101F300047F8046D4FF09F36002101600421416095
:101F40001821816101210160DFF8E054D5F81440C7
:101F500024F04004C5F8144040F2012101600662FB
:101F6000416911F4004FFBD0066B36BA26F07F466C
:101F7000DFF8B854D5F8144044F04004C5F81440D4
:101F80007047A01F000000000B3E6A656465632D6A
:101F900073697A65012006F0FF0600FA06F67047BD
:101FA0000020000000000B7370692D73746174755C
:101FB0007340DFF87C0466F30F26002101600221E4
:101FC00041601821816101210160DFF86054D5F87A
:101FD000144024F04004C5F8144040F2012101608F
:101FE0000684416911F4804FFBD0068E360ADFF873
:101FF0003C54D5F8144044F04004C5F814407047F0
:102000006A2000000000067370692D634000DFF84D
:10201000200426F07F4606F1407636BA00210160A2
:10202000052141601821816101210160FF4DD5F832
:10203000144024F04004C5F8144040F2012101602E
:10204000066280F82060416911F4004FFBD0016BFB
:10205000416911F4005FFBD0066BF44DD5F81440D4
:1020600044F04004C5F814407047CE200000000042
:10207000057370692D40EE4826F07F4606F14076E4
:1020800036BA0021016008214160182181610121D7
:102090000160E64DD5F8144024F04004C5F8144022
:1020A00040F20121016006620662416911F4004FAD
:1020B000FBD0016B416911F4004FFBD0066BDB4D87
:1020C000D5F8144044F04004C5F81440704754213A
:1020D00000000000087370692D7265616400D448C7
:1020E00006CF22F07F4202F1407212BA0023036051
:1020F00004364660043E1823836101230360CB4D00
:10210000D5F8144024F04004C5F8144040F20123EF
:1021100003600262436913F4004FFBD0036B32008B
:10212000838A002A05D013F0020F02D080F8200025
:10213000013A5B0BF4D090F830300B700131013E66
:10214000EED1BA4DD5F8144044F04004C5F814401F
:1021500040CF70479E2100000000087370692D6D0C
:102160006F76650000B5300006CF27E9070027E944
:10217000060040F6FB739E4228BF1E46FFF7AFFFE6
:1021800040F6FB7306CFC918D218F61A05D33000F3
:1021900027E9070027E90600EDE740CF00BD202230
:1021A000000000000768666C6173682100B500F0EC
:1021B00083F89F48324648CF1380A049BFF35F8F12
:1021C0000A609F490A6022F07F4202F1007212BA4F
:1021D0000021016006214160182181610121016017
:1021E000924DD5F8144024F04004C5F8144040F254
:1021F0000121016002620384416911F4004FFBD0A8
:10220000016B416911F4804FFBD0016B874DD5F80C
:10221000144044F04004C5F814405DF804EB77E046
:10222000A422000000000763666C6173682100B59A
:1022300000F042F87E48324648CF13707F49BFF322
:102240005F8F0A607E490A6022F07F4202F10072CD
:1022500012BA00210160052141601821816101212C
:102260000160724DD5F8144024F04004C5F81440C4
:1022700040F201210160026280F82030416911F4CE
:10228000004FFBD0016B416911F4005FFBD0016B83
:10229000664DD5F8144044F04004C5F814405DF88C
:1022A00004EB35E00023000000000C7772697465D0
:1022B0002D656E61626C65005D4800210160012141
:1022C00041601821816101210160584DD5F8144009
:1022D00024F04004C5F8144040F2012101600621B9
:1022E00080F82010416911F4005FFBD090F83010A5
:1022F0004E4DD5F8144044F04004C5F814407047E2
:10230000202300000000087370692D776169740054
:1023100040B50526FFF74DFE16F0010FF9D140BD7F
:102320003623000000000865726173652D346B0070
:102330004FF0200314E04C23000000000965726197
:1023400073652D33326B4FF0520309E0B623000062
:1023500000000965726173652D36346B4FF0D80348
:1023600000B5FFF7A9FF324826F07F4636BAF618C7
:102370000021016004214160182181610121016077
:102380002A4DD5F8144024F04004C5F8144040F21A
:10239000012101600662416911F4004FFBD0016B1D
:1023A000224DD5F8144044F04004C5F8144040CF05
:1023B0005DF804EBACE74424000000000A6572619C
:1023C00073652D636869700000B5FFF775FF1848E5
:1023D000002101600121416018218161012101601A
:1023E000124DD5F8144024F04004C5F8144040F2D2
:1023F00001210160C72180F82010416911F4005FBC
:10240000FBD090F83010094DD5F8144044F040044A
:10241000C5F81440FFF77CFF00BD0000002000520B
:10242000E0440258F044025800040258000C0258DC
:102430000030014007000710010040A064EF00E0F9
:1024400058EF00E07A2400006202012B01CF361819
:10245000704700B5FEF74AF847F8046D43F20006EE
:1024600047F8046DC94E47F8046D41F600068168CF
:10247000282917D1FEF779FD14E02025000062021B
:10248000012D01CF861B704700B5FEF72FF847F8E6
:10249000046D43F6000647F8046DBD4E47F8046D21
:1024A00041F60026FEF75EF80168282927D1416829
:1024B000FF290CD840CF40CFFEF768F80E43816863
:1024C00009020E4301F06CFAFDF709FF00BD47F861
:1024D000046D0E0000F042FE02CF002E40CF0ED061
:1024E00040CF04370E43816856EA0146FDF7F7FEF8
:1024F000FEF77CF856EA032601F082FA00BD0437A5
:102500000437FEF725F889018268D2000E4316438E
:10251000FDF7E5FEFEF76AF81E4301F041FA00BD43
:1025200038250000610202312D00013E704747F856
:10253000046D41F640663DE0502500006102023125
:102540002B000136704747F8046D41F6404631E0F4
:1025500068250000610202322D00023E704747F8F4
:10256000046D41F6806625E080250000610202329C
:102570002B000236704747F8046D41F6804619E09B
:102580009A25000061020563656C6C2B0436704768
:1025900047F8046D41F600560CE0CC2500006102BE
:1025A000066E6567617465007642704747F8046D92
:1025B00044F2402600B5FDF78FFF0168C9000E43C5
:1025C000FEF714F81E4301F0EBF900BDE42500000E
:1025D0006102036E6F74F643704747F8046D44F26E
:1025E000C036E7E7FC2500006102037368727608D5
:1025F000704747F8046D40F64006DBE70C26000004
:1026000061020373686C7600704706E022260000C2
:10261000610202322A007600704747F8046D4026B6
:10262000C8E73A26000061020563656C6C73B6006A
:10263000704747F8046D8026BCE75226000061020F
:1026400002322F007610704747F8046D41F24006C1
:10265000B0E792260000610203616273F01736183A
:102660004640704700B5FDF737FF47F8046D002678
:102670000168C9000E43FDF7B9FF1E4301F090F950
:1026800047F8046D4DF2005601F08AF9FFF78EFF0E
:1026900000BDB0260000420005752F6D6F6401CFAC
:1026A0003100B0FBF6F67143401A043F38607047C2
:1026B000CE2600004200042F6D6F640001CF310070
:1026C00090FBF6F67143401A043F38607047E226EB
:1026D00000004200036D6F6400B5FFF7EFFF40CFCD
:1026E00000BD222700006202012F01CF90FBF6F609
:1026F000704700B5FDF7FAFEFDF72AFFFDF732FF40
:1027000047F8046D234E01680E43816856EA01467E
:10271000FDF7E5FDFDF76AFF56EA032601F070F9C3
:1027200000BD362700006100046576656E0001205B
:102730003040361870474E270000810004626173F4
:10274000650047F8046D144E70470A0000006427C6
:10275000000000000662696E617279000E48022175
:10276000016070477A270000000007646563696DA7
:10277000616C09480A2101607047F62700000000DB
:10278000036865780448102101607047000010F16B
:102790000000B0F1F0F090FBFCFF012000B56F4BA2
:1027A000186810F4803F15D16D4840F2FF11CA0936
:1027B000920761F34B1202600139F8D1BFF34F8FDA
:1027C000BFF36F8F186840F480301860BFF34F8FED
:1027D000BFF36F8F10F4003F0CD1624A1060BFF35B
:1027E0004F8FBFF36F8F40F400301860BFF34F8FEF
:1027F000BFF36F8F00BD1628000000000C646361FA
:102800006368652D636C65616E0057480660BFF3B1
:102810004F8F40CF70473A28000000001164636179
:102820006368652D696E76616C69646174654F4893
:102830000660BFF34F8F40CF70475828000000005C
:10284000066C646F2D6F6E004948016841F002010B
:1028500021F005010160704778280000000004762F
:102860006F7331004348016841F4404101600168E1
:1028700011F4005FFBD070479A2800000000066842
:1028800073652D6F6E003C48016841F48031016032
:10289000016811F4003FFBD07047F42800000000ED
:1028A0000A706C6C2D3430304D487A003248816AA1
:1028B00041F00201052262F309118162016941F0D0
:1028C000080101612D490163016841F080710160D7
:1028D000016811F0007FFBD04FF0480181614FF497
:1028E0008861C1614FF040010162016941F003015B
:1028F0000161704710290000000008696E69742D9D
:10290000637263001E48016881F40021016007E0E2
:102910002829000000000972657365742D637263D5
:102920001848012181607047462900000000043EDC
:1029300063726300134802CF043E02D304C90260ED
:10294000FAE740CF704788290000000004637263F3
:1029500040000C4847F8046D0668704714ED00E02D
:1029600060EF00E050EF00E068EF00E05CEF00E0B7
:102970000C48025818480258004402589F020301AC
:10298000E0440258004C0258A429000000000969E4
:102990006E69742D686173680848016881F02001D0
:1029A00001607047C4290000000007686173685F18
:1029B000637247F8046D024E70470000DC44025811
:1029C00000140248D829000000000373776447F818
:1029D000046D5FEA0B067047082A000000000873C8
:1029E00077642D696E69740000B56E480168002037
:1029F00008605FEA010B47F8046D47F8046D40F288
:102A0000042601F03BF800BD322A000000000873E4
:102A100077642D6B65793F0000B500F0BEF847F88C
:102A2000046D5A46107851780026884218BF013E3E
:102A300000BD602A00000000097377642D656D6990
:102A4000743F00B500F0A9F847F8046D5A46907835
:102A5000D1780130C0B20026884218BF013E00BDC7
:102A6000862A00000000077377642D6B657947F8AC
:102A7000046D5A46507811788842FCD0011D8E5C56
:102A8000013050707047B02A00000000087377646E
:102A90002D656D6974005B469878411CC9B2DA787F
:102AA0009142FCD000F58270C654997040CF7047B7
:102AB000CC2A0000810009686F6F6B2D656D697409
:102AC00047F8046D384E7047962A0000E82A000047
:102AD000810008686F6F6B2D6B65790047F8046D96
:102AE000324E70476E2A0000062B000081000A68F3
:102AF0006F6F6B2D656D69743F0047F8046D2C4E48
:102B00007047422A0000222B0000810009686F6F85
:102B10006B2D6B65793F47F8046D264E7047182A78
:102B20000000402B000081000A686F6F6B2D706100
:102B30007573650047F8046D1F4E70473A500000EA
:102B4000562B0000000004656D6974000FB516482F
:102B500000F026F80FBD6A2B00000000036B6579BA
:102B60000FB5124800F01CF80FBD7C2B00000000D0
:102B700005656D69743F0E48006887468E2B00001E
:102B80000000046B65793F000A4800688746BC2B4B
:102B9000000000000570617573650748006887468E
:102BA00000688746D0FF0120F8FF0120F4FF0120D4
:102BB000F0FF0120ECFF0120E8FF0120D82B0000EE
:102BC00000000B6261636B75702D6261736547F87D
:102BD000046D4FF0625670471C2C00000000096223
:102BE00061636B75702D6F6E0948016841F080510B
:102BF00001600848016841F480710160064801687D
:102C000041F001010160016811F4803FFBD0704781
:102C1000E04402580048025808480258402C00007E
:102C20000000076365787065637400B5386801B4A7
:102C30000130386000F00BF801BC067040CF00BDD9
:102C4000B62C00000000066163636570740000B577
:102C500002CF01390022FFF783FF300040CF7F28E9
:102C600009D0202819D2092816D00A281FD00D28EB
:102C70001DD00828EFD1002AEDD000F00BF9030891
:102C80002008002AE7D0885C013A80230340E2D084
:102C900040230340F5D0DEE72020B242DBD247F8E4
:102CA000046D0600FFF752FF01328854D3E7160087
:102CB00000F09FF800BDC82C00004000037469625A
:102CC00047F8046D294E7047DE2C00008100033E5A
:102CD000696E47F8046D264E704700000000042D11
:102CE000000082000E63757272656E742D736F75CD
:102CF0007263650047F8046D1E4E704700000000C7
:102D0000C0000020202D0000000009736574736F5F
:102D100075726365174802CF0660416040CF704707
:102D20003E2D0000000006736F757263650047F862
:102D3000046D104E043F7068386036687047782D17
:102D4000000000000571756572790FB50848002113
:102D50000160FFF7B5FF47F8046D47F8046DC8261A
:102D6000FFF775FFFFF7D6FF0FBD0000C000002082
:102D7000E4FF0120DCFF0120C02D000000000763FC
:102D80006F6D706172650FB5310040CF01CF884221
:102D900002CF10D1002810D001380A5C335C412AE0
:102DA00002D35B2A38BF2032412B02D35B2B38BFC2
:102DB00020339A42EED000260FBD0026F6430FBD09
:102DC000D42D000000000263720000B500F062F82C
:102DD000010A00BDE62D0000000002626C0047F809
:102DE000046D20267047FA2D000000000573706105
:102DF000636547F8046D2026A8E61A2E000000003F
:102E0000067370616365730000B5002E03DDFFF784
:102E1000F0FF013EFBD140CF00BD2A2E0000500044
:102E2000065B636861725D0005E0422E00000000F1
:102E300004636861720000B501F0E4FC40CF3678AD
:102E400000BD522E00005004012847F8046D2926C9
:102E500006E06C2E00005004015C47F8046D00266B
:102E600000B501F0D9FC043740CF00BDB02E000002
:102E70003000022E2200A94800B547F8046D060074
:102E800000F07DFA47F8046D222601F0C5FC00F041
:102E9000C2FD00BD0AB447F8046D7646013E3378A2
:102EA0000121013319405B181EEB030E0ABC39E007
:102EB000D62E00003000026322009948DCE747F874
:102EC000046D7646013E33780121013319405B18C9
:102ED0001EEB030E7047002F00003000027322002B
:102EE0009048C9E747F8046D764647F8046D013EFF
:102EF00036780121731C19405B181EEB030E7047D6
:102F0000182F0000000005636F756E74013647F8D6
:102F1000046D013E36787047302F000000000563D5
:102F20007479706500B5FFF7F1FF00F007F800BD98
:102F3000582F0000000004747970650001B501CFBE
:102F4000002E07D047F8046D0678FFF7FFFD01302B
:102F5000013EF7D140CF01BD922F00000000046870
:102F600065782E0007B5310040CF20200F220438AD
:102F700047F8046D0E00C6401640092E01D93736B9
:102F800000E03036FFF7E2FD0028F0D1FFF731FF17
:102F900007BDA22F0000000003682E731FB5624C0E
:102FA0000EE0B22F0000000003752E731FB55F4CBA
:102FB00006E0563000000000022E73001FB55C4C86
:102FC0005C49C91B8908220A2020292F200A2028B1
:102FD000273E200A202F434320202033352043431F
:102FE000430A385C29295F200A0A534A106803B44F
:102FF0000A201060FFF74EFF08537461636B3A209C
:103000005B0047F8046D0E0001F0D3FDFFF742FFAF
:10301000025D200003BC2736474A106000290AD011
:10302000464A106806B447F8046D0600A04706BC7F
:10303000043A0139F5D1FFF72DFF0620544F533ADA
:10304000200047F8046D3600A047FFF723FF042057
:103050002A3E0A001FBDF6300000000005776F729F
:10306000647300B5FFF716FF010A00F042FFFFF797
:1030700011FF09416464726573733A2047F8046D67
:10308000FFF770FFFFF706FF064C696E6B3A2000F2
:1030900047F8046D3668FFF765FFFFF7FBFE07464C
:1030A0006C6167733A2047F8046DB688FFF75AFFE2
:1030B000FFF7F0FE06436F64653A2000B01D00F094
:1030C00065FF47F8046D0600FFF74CFFFFF7E2FECF
:1030D000064E616D653A200047F8046D0636FFF72D
:1030E00021FFFFF7D7FE010A00F01BFF300040CFA1
:1030F000BDD040CF00BD48310000000006756E75A0
:103100007365640000B501F01BF80D4801684FF0CD
:103110001052914200D30B4E761A00BD942E00003F
:10312000BE2E0000E42E0000652F0000A34B00001F
:10313000B34B000088020020FCFF01208402002025
:10314000D0FF012000000824AC32000000000D3147
:1031500032626974656E636F64696E670FB5FF2EC6
:1031600004D847F8046D5FF0FF360FBD16F0FF106E
:10317000B0420ED14FF6FF710840310C814208D1A8
:1031800016F0FF0656F4805647F8046D5FF0FF36E0
:103190000FBD16F0FF20B0420FD14FF6FF7108406F
:1031A000310C814209D1360A16F0FF0656F400565A
:1031B00047F8046D5FF0FF360FBDFF22310011406C
:1031C000300A1040884210D1300C104088420CD197
:1031D000300E1040884208D116F0FF0656F44056D3
:1031E00047F8046D5FF0FF360FBD3000002101315C
:1031F000001850F100007FF07F020240802A05D0C5
:103200001F29F4D347F8046D00260FBD0829F9D310
:10321000060036F0800611F00100C001064311F0EF
:103220000E00C002064311F010008005064347F867
:10323000046D5FF0FF360FBD47F8046DDFF8C4651D
:103240005FF4704110EA0102120116435FF400615D
:1032500010EA0102D20316435FF4E06110EA0102B2
:1032600012011643FF2110EA010216431E43C7E371
:1032700047F8046DDFF890655FF0704110EA0102D5
:10328000120B16435FF0006110EA01025208164368
:103290005FF0E06110EA0102120B16435FF47F0158
:1032A00010EA0102120C16431E43A9E31233000078
:1032B00000001072656769737465726C6974657279
:1032C000616C2C000FB5330040CF1B02FF2E05D8D8
:1032D00056F400561E4300F063FB0FBDFFF73EFFA0
:1032E000002E40CF06D0DFF8240506431E4300F031
:1032F00087FB0FBDF643FFF731FF002E40CF06D00E
:10330000DFF80C0506431E4300F07AFB0FBDF643C1
:103310000BE0723300000000096D6F76776D6F76F9
:10332000742C0FB5330040CF1B02300040CFFFF7A5
:1033300083FF4FF6FF7110EA014001D0FFF798FFBD
:103340000FBD0FB50136300040CF0023FFF774FFEB
:10335000FFF78EFF06E00FB5013647F8046D002633
:10336000FFF7B0FF47F8046D44F2807600F018FBD9
:103370000FBDD833000000000563616C6C2C0FB5E5
:10338000330000F0CEFE300040CF1B1A043BDFF8C4
:1033900084141940002906D0DFF87C24914202D021
:1033A000BDE80F40D7E740CF5B08DFF8700440F27C
:1033B000FF7119400843DB0A40F2FF31194009044C
:1033C00008439B0A13F001018906084347F8046D7E
:1033D000060000F015FB0FBD0E3400000000086C65
:1033E00069746572616C2C0008B547F8046D4FF67E
:1033F000470600F0D5FA47F8046D46F6045600F08B
:10340000CFFA47F8046D0626FFF75CFF08BD363497
:1034100000000000066372656174650000B500F08D
:1034200035F843F25740C0F20000804747F8046D7A
:10343000BEF1010600BD7E340000200005646F650A
:10344000733E43F25740C0F20000804747F8046DD6
:10345000BEF10106704747F8046DBEF10106F04A5F
:103460001368F04909680220084000D00231023197
:103470001160FFF766FF136000F0E9F900BDBA3490
:1034800000000000073C6275696C647300B500F0D1
:10349000F5FB00F046FE0220064040CF01D000F0D0
:1034A00071FA47F8046D4BF2005600F079FA47F8CC
:1034B000046D0A2600F0E2FA00BDC6340000500098
:1034C000035B275D03E0DE3400000000012700B548
:1034D00001F098F900F0BDFD300040CF00BD14357B
:1034E0000000300008706F7374706F6E650000B577
:1034F000FFF7EDFF47F8046D060039683E600E46A1
:10350000FFF772FFFFF770FF47F8046DC64EFFF735
:1035100036FF00BD6A350000000007696E6C696EF9
:10352000652C00B54BF200514BF6005244F270731B
:103530003088884208D0904208D0984206D047F898
:10354000046D060000F02CFA0236F1E740CF00BD12
:103550000EB44BF6005244F270730188023091426F
:1035600001D09942F9D10EBC7047803500000000AF
:10357000047265742C0047F8046D4BF600560FE298
:103580008E3500003000046578697400F3E7A635D5
:1035900000003000077265637572736547F8046D4B
:1035A000A04E3668EBE6BE350000810005737461FD
:1035B000746547F8046D9D4E704700000000D035DB
:1035C00000000000015D99480021C9430160704777
:1035D000E03500001000015B944800210160704755
:1035E000003600000000013A00B59148076000F085
:1035F00045FB8E48012101608E480021016000BD1D
:10360000863600003008013B00B589480168B942A0
:1036100019D089498E4202D1884EFFF783FCFFF70B
:1036200039FC1F151B5B33316D20537461636B20B4
:103630006E6F742062616C616E6365642E1B5B301B
:103640006D0A01F071BC79480068411C10D00B284C
:1036500005D847F8046D40F6200600F02BF947F82E
:10366000046D44F2707600F09BF901F049FB05E02F
:1036700047F8046D4BF6005600F092F900F0E7F8B9
:10368000FFF7AAFF00BD9A360000000007657865C5
:1036900063757465300040CF8746B2360000100075
:1036A00009696D6D65646961746547F8046D10267C
:1036B00000E1C8360000500006696E6C696E650056
:1036C00047F8046D2026F5E0E236000010000B6399
:1036D0006F6D70696C656F6E6C7947F8046D30269C
:1036E000E8E0FC36000050000A302D666F6C646123
:1036F000626C650047F8046D4026DBE01637000079
:1037000050000A312D666F6C6461626C650047F889
:10371000046D4126CEE03037000050000A322D669D
:103720006F6C6461626C650047F8046D4226C1E00D
:103730004A37000050000A332D666F6C6461626C7A
:10374000650047F8046D4326B4E06437000050007C
:103750000A342D666F6C6461626C650047F8046D15
:103760004426A7E07E37000050000A352D666F6CB6
:103770006461626C650047F8046D45269AE09837ED
:10378000000050000A362D666F6C6461626C650043
:1037900047F8046D46268DE0B237000050000A3726
:1037A0002D666F6C6461626C650047F8046D472696
:1037B00080E0E2370000000008636F6E7374616E92
:1037C000740000B500F05AFAFFF70EFE47F8046DDA
:1037D00044F2707600F0E4F8FFF78CFF00F037F861
:1037E00000BD4038000000000932636F6E737461E1
:1037F0006E7400B500F042FA39683E600E46FFF77D
:10380000F3FDE1E7000040F20000C0F200005FF0CD
:1038100000007FF00100C0FF0000C0FF00F800F0D2
:10382000D0FF01200C000020FA4B0000D8FF01203F
:10383000080000205400002085191204C62F000043
:10384000A4380000000006736D756467650000B55C
:10385000F94801684FF0105291421CD302390A888E
:103860004FF6FF739A4205D147F8046D4FF00006FA
:1038700000F096F800F05CF8F048006847F8046D36
:103880000600EF4909680431EB4A1368116000F043
:1038900087F8136000BD00F04BF847F8046D4FF057
:1038A000000608E0EC380000000008736574666CE0
:1038B0006167730000B5E04801684FF01052914213
:1038C00005D3DE4801683143016040CF00BD3200BE
:1038D00040CFDB480068043001884FF6FF739942FF
:1038E00001D1110000E01143018000BD0239000048
:1038F000410007616C69676E656403360320864387
:1039000070472439000000000668616C69676E002A
:10391000C94801680120014003D047F8046D002622
:103920001AE070474E390000000005616C69676E4F
:1039300000B5FFF7EDFFC04801680220014005D047
:1039400047F8046D4FF0000600F02AF800BD9639E4
:103950000000000002632C0000B5B74801684FF07A
:103960001052914205D347F8046D0E00FEF75FFC3C
:1039700002E0320040CF0A7047F8046D012600F0E3
:103980007DF800BD47F8046D362609E047F8046D60
:103990004CF6407604E0DC390000000002682C00A0
:1039A0000FB5B6B2A7480168002902D0013100D096
:1039B0000160A14801684FF01052914205D347F8C9
:1039C000046D0E00FEF7F2FB02E0320040CF0A80E9
:1039D00047F8046D022600F051F80FBDF6390000DB
:1039E0000000012C01B547F8046DFFF7D9FF360C34
:1039F000FFF7D6FF01BD083A00000000033E3C2C53
:103A000001B51020C641EEE7703A000000000773D0
:103A10007472696E672C07B5FF21314040CF3000CA
:103A200040CF002905D147F8046D0026FFF7B8FF05
:103A300007BD47F8046D067836020E43FFF7B0FF66
:103A40000130013902290AD347F8046D467836025D
:103A500002781643FFF7A4FF02300239F2E700298B
:103A600000D107BD47F8046D0678FFF799FF07BD41
:103A7000E03A0000000005616C6C6F746E480168EC
:103A80004FF01052914214D3320040CF89186E4A41
:103A9000914223D3FFF7FEF915151B5B33316D46B9
:103AA0006C6173682066756C6C1B5B306D0A01F08D
:103AB0003BBA320040CF8918644A126891420DD354
:103AC000FFF7E8F913151B5B33316D52616D20660A
:103AD000756C6C1B5B306D0A01F026BA0160704793
:103AE000FC3A0000810008286C6174657374290039
:103AF00047F8046D564E7047E4010000143B000087
:103B0000810004286470290047F8046D514E704705
:103B100088030020383B0000000009666F7267656B
:103B20007472616D00B500F024F84A484A4901609A
:103B300047484A49016000BD5E3B000000000D633C
:103B40006F6D70696C65746F72616D3F47F8046DDD
:103B5000404800684FF010518842B6417047803BA2
:103B6000000000000C636F6D70696C65746F7261AA
:103B70006D00384800684FF01051884212D27047EB
:103B8000F63B000000000E636F6D70696C65746F2A
:103B9000666C617368002F4800684FF010518842CE
:103BA00000D370472A482E4902680B680A600360F8
:103BB00028482C4902680B680A60036023480068A3
:103BC000834217D3824215D300B5FFF763F9232050
:103BD0005661726961626C657320636F6C6C6964B5
:103BE0006520776974682064696374696F6E6172B7
:103BF000790A00BD7047103C000000000C6164644D
:103C000072696E666C6173683F0014480E490BE080
:103C10006C3C000000000A61646472696E72616D40
:103C20003F004FF000501049864202D38E42B64109
:103C30007047002670470000D0FF012018000020C8
:103C4000D4FF0120D8FF0120000008241C00002020
:103C5000D4FF0120D0FF012088030020E4010000F0
:103C6000140000201000002000000220763D00001B
:103C700000000828637265617465290000B500F0D2
:103C8000C1FD002E13D1FFF705F91F151B5B333162
:103C90006D20437265617465206E65656473206E86
:103CA000616D6520211B5B306D0A01F03DB93868FC
:103CB00047F8046D043F386000F077F940CF002EDC
:103CC00040CF16D0386847F8046D043F3860FFF7DE
:103CD000E1F80F1B5B33336D205265646566696ED6
:103CE0006520FFF72BF9FFF7D5F8062E1B5B306D2B
:103CF0002000FFF71DFE944800684FF010518842E5
:103D000020D392484FF00001016000F00AFA47F812
:103D1000046D0626FFF7B2FEFDF792F9FFF77BFE72
:103D20008B4801680A684FF0FF339A4207D1864AF0
:103D30001368116047F8046DFFF754FE13600660C6
:103D400040CF13E000F0EDF9814847F8046D0668B4
:103D5000FFF748FE47F8046D4FF6FF76FFF720FEA9
:103D60007B48310040CF0160FFF755FE764801687F
:103D70007848016000BD8E3D000000000876617249
:103D80006961626C650047F8046D012613E0A63D89
:103D90000000000009327661726961626C6547F863
:103DA000046D022607E0183E00000000096E7661EF
:103DB000726961626C6500B5FFF760FF6248016877
:103DC0004FF01052914218D30F200640B20000F07D
:103DD0004CF8300040CF0200002805D00E600431BE
:103DE000FFF700FE0138F9D147F8046D802616432D
:103DF000FFF760FDFFF72BFD00BD00F055F8300028
:103E000040CF002803D0FFF7EDFD0138FBD1FFF7CD
:103E100071FCFFF71CFD00BDDC3E000000000762E6
:103E200075666665723A00B5FFF728FF01203040DD
:103E30003618022030403618434801684FF01052BF
:103E400091420DD3320000F010F8FFF7CBFD47F898
:103E5000046D40F24016FFF72DFDFFF7F8FC00BDA2
:103E600000F022F8FFF70AFED1E700B53A480168F2
:103E7000891A3A4A914210D2FFF70CF819151B5BC8
:103E800033316D4E6F7420656E6F756768205241D7
:103E90004D1B5B306D0A01F047B8016047F8046DB7
:103EA0000E00FFF7A1FA12E000B500F03AF9022087
:103EB000064040CF01D1FFF765FD47F8046D284E5D
:103EC000FFF79EFD47F8046D264EFFF799FD47F872
:103ED000046D44F27076FFF763FD00BD0C3F0000F7
:103EE00000000F64696374696F6E61727973746145
:103EF0007274154800684FF0105147F8046D8842FD
:103F000001D3194E7047124E366870476C3F00005F
:103F100000000E64696374696F6E6172796E657812
:103F2000740003B531684FF0FF30814207D08879C3
:103F3000FF2804D00E0047F8046D002603BD47F8A3
:103F4000046D0026F64303BDD0FF012018000020B9
:103F5000D4FF01200C0000201C000020880300205A
:103F60003E60043F02367E46E40100009E3F0000B2
:103F700000000A736B6970737472696E6700317840
:103F8000013101220A4089187618704706B4017879
:103F9000013101220A408918401806BC7047B03F21
:103FA000000000000466696E6400304800688746BF
:103FB000CC3F0000810009686F6F6B2D66696E64ED
:103FC00047F8046D2A4E7047DA3F00007440000045
:103FD0000000062866696E64290030B500200021C3
:103FE00003B4350040CF340040CFFFF782FF4FF6D7
:103FF000FF70B18888421ED0B179A9421BD1F01D53
:104000000139425C635C412A02D35B2A38BF20320B
:10401000412B02D35B2B38BF20339A420BD10029AE
:10402000EED102B0B01DFFF7B1FFB18803B44FF07D
:104030001050864207D336684FF0FF30864202D0D8
:10404000B079FF28D3D103BC060047F8046D0E00F9
:1040500030BD00B53100386803B4FFF7A6FF03BCDC
:104060003A68002A01D100F003FF00BDCCFF012017
:10407000CCFF0120DC400000000006636A756D7013
:104080002C00320040CF310040CF8B1B043B6FF03F
:10409000FE011940002913D06FF0FF0081420FD0BC
:1040A000FEF7F8FE17151B5B33316D4A756D7020F6
:1040B000746F6F206661721B5B306D0A00F034BF55
:1040C0005B10FF210B40134330001E0000B5CE4AA9
:1040D00013681060FFF764FC136000BD1641000018
:1040E0000000056A756D702C310040CF300040CF64
:1040F0000B1A043BC5491940002902D0C44A914219
:10410000CED15B1040F2FF72134053F4604347F886
:10411000046D1E00DAE72C4100000000046865729F
:10412000650047F8046DB84E366870475A42000083
:1041300000000D666C6173687661722D686572654A
:1041400047F8046DB34E3668704700B547F8046D04
:1041500042F60066FFF724FCFFF718FC00BDE0E71D
:1041600000B500F03AF839683E600E4647F8046D35
:104170004DF20016FFF785FF00BD00B500F02DF8E9
:1041800039683E600E4647F8046D4DF20076FFF741
:1041900078FF00BD00B5FFF7D8FF00F01EF83968C2
:1041A0003E600E4647F8046D4DF20006FFF769FFCA
:1041B00000BD00B500F011F839683E600E46FFF70B
:1041C00093FF00BD00B5FFF7C0FFFFF7AAFF47F858
:1041D000046D0226FFF752FC00BD00B5FFF7A1FFFA
:1041E00047F8046D0226FFF749FC00BD00B5FFF754
:1041F00098FFFFF779FF00BD00B5FFF792FF47F882
:10420000046D4DF20006FFF73CFF00BD00B5FFF75F
:1042100088FF47F8046D4DF20016FFF732FF00BD2E
:1042200000B5FCF759F9FCF791F8FCF794F8FCF7A6
:1042300097F88168282901D1FCF794F9FCF788F9EF
:1042400047F8046D42F6000609020E43FFF7A8FB8B
:10425000FCF745F8FCF76EF800BD86420000300020
:10426000047468656E00052E01D140CFBEE7F1B23F
:1042700000296DD100B5FFF754FF39683E600E4646
:10428000FFF7FFFE00BDA2420000300004656C7322
:10429000650000B500F036F8FCF7E9F9FFF7E3FF39
:1042A00000BDF842000030060269660000B5FFF765
:1042B00089FF47F8046D4DF2000600BD00B5FCF71C
:1042C0009EF9FDF770FA816A002907D002B4FCF765
:1042D00031F8FFF782FF47F8046D40BDFFF7A0FFFC
:1042E000FFF71FFF47F8046D0226FFF7C7FB47F8EB
:1042F000046D4DF2000600BD124300003000056160
:104300006865616400B5FFF768FF47F8046D05262E
:1043100000BD2C43000030000672657065617400BA
:1043200000B500F060F8FFF79EFF00BD7A43000083
:104330003006057768696C6500B5FFF7B7FFFCF7D5
:1043400096F900BD00B5FFF7B9FFFCF790F900BD85
:10435000FEF7A0FD21151B5B33316D53747275633D
:10436000747572657320646F6E2774206D61746359
:10437000681B5B306D0A00F0D7BDDA4300003006E1
:1043800005756E74696C012EE2D140CF02E770476B
:10439000012EDDD140CF00B5FDF705FA816A002975
:1043A0000DD002B4FBF7C6FFFFF717FF39683E6078
:1043B0000E4647F8046D40BCFFF763FE00BDFFF7F3
:1043C0002FFFFFF70AFF39683E600E4647F8046D7D
:1043D0004DF20006FFF755FE00BDEE430000300031
:1043E00005616761696E012EB2D140CFE1E61844E4
:1043F0000000300005626567696E00B5FFF7AFFE2B
:1044000047F8046D012600BDD0FF012001F8FFFF31
:1044100000F8FFFF1C000020324400002002016B66
:1044200047F8046D029E704747F8046D49F602068E
:104430000BE0604400002002016A47F8046D009E12
:10444000704747F8046D49F6000600B5FBF73DFFDD
:10445000FCF70EF803601B021E43FFF7A1FA00BD34
:104460008C4400002002016947F8046D2600704763
:1044700000B547F8046D40F22006FBF726FFFBF776
:10448000F7FF03601E43FFF78BFA00BDCA4400002C
:104490003000056C6561766500B5754801683B00C4
:1044A000043F1A68043B1A6008338B42F9D103B405
:1044B000FFF793FE03BC330040CF04390B6001606B
:1044C00004390A6801320A6000BDDC4400002000A3
:1044D00006756E6C6F6F700030BC7047144500003D
:1044E0003000052B6C6F6F70032E00D030E740CF8B
:1044F00000B547F8046D5F4EFFF713F8FFF73DFE78
:104500001AE014F10044641BA41940CF2C44A4F118
:1045100000447047564500003000046C6F6F700017
:10452000032E00D014E740CF00B547F8046D524E7B
:10453000FEF7F7FFFFF714FE00F04AF94C48310090
:1045400040CF016047F8046D4C4EFEF7EAFF00BD16
:104550000134AC4270479E450000300202646F0097
:1045600000B547F8046D464EFEF7DBFF4048016892
:1045700047F8046D0E0047F8046D00260760FFF74A
:10458000EEFD47F8046D032600BD00B500F02FF8DE
:10459000ECE730B4340040CF350040CF704784465C
:1045A00000003002033F646F00B547F8046D344EDD
:1045B000FEF7B7FF47F8046D44F2AC26FFF7F0F9B9
:1045C0002B48016847F8046D0E00FFF706FE013620
:1045D00047F8046D012626480760FFF7C0FD47F83D
:1045E000046D032600BD00B500F001F8E2E700B558
:1045F000FCF705F8FBF77AFFFBF7A8FEFBF7ABFE2D
:10460000FBF7AEFE47F8046D4BF23046FFF7C8F9F2
:104610000168282908D047F8046D40F20406C90053
:104620000E43FFF7BDF907E047F8046D466847F809
:10463000046D0426FEF746FE8168282908D047F855
:10464000046D40F20506C9000E43FFF7A9F907E023
:1046500047F8046DC66847F8046D0526FEF732FE7C
:10466000FBF73DFEFBF73BFEFBF784FE00BD0000C1
:10467000040000200245000050450000D84400001E
:1046800092450000A4460000300004636173650099
:1046900000B5FBF7B4FF47F8046D002647F8046D3A
:1046A000082600BDBA4600003000033F6F666B4825
:1046B00009E0013EB64140CF704778470000300224
:1046C000026F66006648082E00D041E640CF00B574
:1046D00047F8046D0600FEF724FFFFF77EFD3968FA
:1046E0003E600E46013647F8046D0926FFF74EF985
:1046F00000BD082E00D02BE640CF00B5FBF7F6FE3C
:10470000FBF724FEFBF727FEFBF72AFE47F8046DB4
:1047100044F28026FBF726FF0E430268282A1ED1AA
:104720004268FF2A08D840CF47F8046D42F60006D9
:10473000164309020E4314E047F8046D4668FEF77D
:104740000DFD04CF002E40CF06D0464E164356EA4C
:104750000146FFF755F906E0FBF7FAFE0A00D20022
:104760001643FFF71DF9FBF7BAFDFBF703FEB4E7AD
:10477000300040CFB0427047AE47000030000565C2
:104780006E646F66092E00D0E2E540CF00B540B4FC
:1047900040CFFFF722FD39683E600E46FFF736FD39
:1047A00047F8046D40BC47F8046D082600BDF84783
:1047B0000000300007656E6463617365082E00D0E9
:1047C000C6E540CF00B5FFF7E1F800F001F800BD05
:1047D00000B5300040CF00280DD003B40121314096
:1047E000002903D0013EFFF707FD01E0FFF7FEFCC3
:1047F00003BC0138EFE700BD0C4800000000057461
:104800006F6B656E47F8046D202605E07048000068
:10481000000005706172736510B513480168406847
:10482000124A12688418202E07D191420FD0835C5F
:10483000B34202D101328418F7E7914207D0835C7A
:104840000132B342F9D18618361B013E01E08618C9
:10485000361B043F3C600548026010BDB2460000B4
:1048600070470000000FB0F1DCFF0120E4FF0120E1
:10487000AE4800000000056469676974CF4B1B688F
:10488000303E0BD30A2E0BD3073E0A2E06D3242E1E
:1048900006D3203E0A2E01D3242E01D300267047D2
:1048A0009E42FBD247F8046D0026F6437047B84994
:1048B00000000000066E756D626572003FB5310044
:1048C00040CF701E0126012204B4BC4B1B6800249B
:1048D000002500293CD00130013902782D2A04D16D
:1048E00001B00022D24304B4F3E7232A01D10A2302
:1048F000EFE7242A01D11023EBE7252A01D1022377
:10490000E7E72E2A01D10226E3E72C2A36D047F822
:10491000046D1600FFF7B4FF002E40CF2BD047F8F0
:10492000046D260047F8046D2E0047F8046D1E0044
:1049300047F8046D00260FB4FCF769F80FBC35008A
:1049400040CF340040CF0022A419554140CFC0E7EA
:1049500004BC002A04D50022E443ED430134554150
:1049600033002600012B02D047F8046D2E0047F8D3
:10497000046D1E003FBD01B000263FBD2500002490
:1049800002260029E4D0425C01392E2AF9D047F8EA
:10499000046D1600FFF774FF002E40CFEBD0043FEC
:1049A0003C6047F8046D1E000FB4FCF7DFF80FBC45
:1049B000340040CF40CFE4E7DA4900000000062E83
:1049C0006469676974000A2E01D230367047242E5C
:1049D00001D23736704723267047104A0000000086
:1049E00004686F6C6400330040CF75480178432938
:1049F0000DD2013101704018012907D00138027829
:104A000001300270013801390129F7D10370704774
:104A1000304A0000000005686F6C643C330040CFF2
:104A200067480178432902D201310170435470472D
:104A3000484A00000000047369676E00002E01D42C
:104A400040CF70472D26CEE75C4A000000000223CD
:104A50003E005B480678013038607047744A0000B9
:104A600000000366235310B5202400F008F8013C31
:104A7000FBD110BD964A000000000266230000B57D
:104A800047F8046D4D4E3668FBF783FFFFF79BFF39
:104A9000FFF7C4FF00BDB24A00000000022353002C
:104AA00000B500F00AF8002EFBD138680028F8D1D4
:104AB00000BDDE4A00000000012300B547F8046D88
:104AC0003E4E366847F8046D0026FCF76EF8FBF79B
:104AD000CEFD40CFFFF777FFFFF785FF00BDF04A1F
:104AE00000000000023C230035480021017070479F
:104AF000024B0000000002662E0047F8046D2026DD
:104B000004E0504B0000000003662E6E00B510B4A8
:104B1000340040CFFCF766FAFBF7C0FE47F8046D9F
:104B20000026FFF7E1FFFFF7BBFF40CF2C26FFF782
:104B300075FF002C03D0FFF7A2FF013CFBD110BC96
:104B400040CFFFF77BFF47F8046D47F8046D1CE08A
:104B5000664B000000000375642E00B5FFF7C4FF2C
:104B6000FFF79EFF11E0984B0000000002642E004A
:104B700000B5FCF737FAFBF791FEFFF7B5FFFFF73B
:104B80008FFFFCF741FAFFF759FFFFF762FFFEF7CF
:104B9000D5F9FEF72EF900BDAA4B00000000027502
:104BA0002E0047F8046D0026D7E7884D000000006E
:104BB000012E47F8046DF617DAE70000FCFF01202C
:104BC0007C00002030B54FF000542568002D01D145
:104BD0003D00256030BD30B54FF000543D002560EC
:104BE00030BD30B54FF000540025256030BD4FF08A
:104BF00000531B68DB1B9B08704700B5310040CF9A
:104C00004FF48050084002D000F0A6F800BD4FF4E9
:104C10008060084001D1FCF77FFD320040CFFFF7F4
:104C2000D1FF4FF40050084003D047F8046D160040
:104C300000BDFFF7DCFF8020084006D1402008407F
:104C400009D00F200840834205D347F8046D1600B1
:104C5000FEF720FD00BD4FF40070084014D0FBF7B4
:104C6000D6FA47F8046D160047F8046D0E0000F000
:104C700031F81000FEF76CFC421CCC489047FFF75F
:104C8000AAFFFBF7D3FA00BDFBF7C1FA47F8046DA2
:104C9000160047F8046D0E0000F01CF8FBF74AFB05
:104CA000FFF79FFF4FF40060084001D1FBF7A7FC1E
:104CB00047F8046D160010220A4002D0FEF7EAFC05
:104CC00000BD20220A4002D0FEF72BFC00BDFEF7FB
:104CD00056FB00BD0FB5320040CF330040CFB44883
:104CE0000168062907D206204143B24840180380D4
:104CF0001B0C43808280AE480168013101600FBD0A
:104D00000FB5AB48016806291FD8AA4801391DD044
:104D100047F8046D0E00FEF743FE47F8046D068861
:104D2000FEF73EFE47F8046D4688FEF739FE47F869
:104D3000046D8688FEF734FE06300139EDD147F860
:104D4000046D41F20006FEF7B5FD0FBD47F8046D96
:104D50004026FEF7AFFD0FBD00B5300040CFFEF797
:104D6000F7FB0188023047F8046D06884288120478
:104D7000164347F8046D868803B4FFF73EFF03BC73
:104D800006300139EFD100BDD04D000000000865AC
:104D900076616C756174650000B5FDF7C8FF01CFE1
:104DA00001B440B440CF8448016802B400210160DE
:104DB000FDF7B0FF00F014F87F4802BC016047F82F
:104DC000046D40BC01BC043F3860FDF7A3FF00BD8B
:104DD000004F0000000009696E746572707265749E
:104DE00000B57648874210D9FEF754F81A151B5BB8
:104DF00033316D537461636B20756E646572666CDC
:104E00006F771B5B306D0A008EE06D4887420FD2D2
:104E1000FEF740F819151B5B33316D537461636BFA
:104E2000206F766572666C6F771B5B306D0A7BE076
:104E3000FFF7C8FEFFF7E6FC002E02D1043740CF93
:104E400000BD386847F8046D043F3860FFF7ADF8DF
:104E5000310040CF320040CF002A20D138683100E5
:104E6000FCF75AFCFFF72AFD320040CF002AB8D1E8
:104E700047F8046D060047F8046D0E00FEF75EF873
:104E8000FEF708F816151B5B33316D206E6F74202A
:104E9000666F756E642E1B5B306D0A0044E0494BF3
:104EA0001B68002B21D1FFF79CFE30230B40302BD9
:104EB00013D1FEF743F8FDF7EDFF1C151B5B3331F3
:104EC0006D20697320636F6D70696C652D6F6E6CFA
:104ED000792E1B5B306D0A0026E0043740CF47F87F
:104EE000046D1600FEF7D6FB7BE7043740CF47F88A
:104EF000046D160047F8046D0E00FFF77EFE70E7A4
:104F00001C4F0000810009686F6F6B2D717569740B
:104F100047F8046D2C4E7047564F0000E04F0000DC
:104F20000000047175697400DFF8A0D0234F284891
:104F30000A2101602348002101604FF00050016008
:104F4000FBF73FFA1C48016022480160224941609A
:104F50001D4800688746FDF7F8FEFFF741FF194836
:104F60000068002806D0FDF795FF0720061B5B337D
:104F7000346D05E0FDF78EFF0720061B5B33366DB1
:104F8000164800684FF01051884207D3FDF782FFA2
:104F9000086F6B271B5B306D0A00DCE7FDF77AFFBB
:104FA000086F6B2E1B5B306D0A00D4E720000020D9
:104FB0005400002058000020E4FF01208802002057
:104FC00088010020D8FF0120C8FF012088030020AD
:104FD000FCFF0120DCFF0120C0000020D0FF0120E9
:104FE000FA4F000000000565696E743F47F8046DD4
:104FF000EFF31086013EB64170470A5000002000D2
:105000000465696E740062B670471A500000200093
:105010000464696E740072B670473050000020005E
:1050200004697073720047F8046DEFF305867047EA
:105030003C5000000000036E6F7070477E5000000F
:10504000000009756E68616E646C656400B5FDF7FB
:1050500021FF14556E68616E646C656420496E743E
:10506000657272757074200047F8046DEFF3058661
:10507000FDF778FFFDF70EFF02210A0000BD9050FA
:10508000000000000572657365748E488E490160EA
:10509000BA50000081000B6972712D7379737469C5
:1050A000636B47F8046D894E70474C5000004FF613
:1050B000C470C2F2010000688746E250000081001F
:1050C000096972712D6661756C7447F8046D804EC4
:1050D00070474C5000004FF6C070C2F201000068EB
:1050E00087461051000081000E6972712D636F6C4C
:1050F0006C656374696F6E0047F8046D754E704798
:105100004C5000004FF6BC70C2F2010000688746A8
:10511000385100008100096972712D657874693019
:1051200047F8046D6C4E70474C5000004FF6B87055
:10513000C2F20100006887466051000081000969E1
:1051400072712D657874693147F8046D634E70474C
:105150004C5000004FF6B470C2F201000068874660
:10516000885100008100096972712D657874693277
:1051700047F8046D5A4E70474C5000004FF6B0701F
:10518000C2F2010000688746B05100008100096941
:1051900072712D657874693347F8046D514E70470C
:1051A0004C5000004FF6AC70C2F201000068874618
:1051B000D85100008100096972712D6578746934D5
:1051C00047F8046D484E70474C5000004FF6A870E9
:1051D000C2F2010000688746FE51000081000769A5
:1051E00072712D61646347F8046D404E70474C50F6
:1051F00000004FF6A470C2F20100006887462652F4
:1052000000008100086972712D74696D320047F8E1
:10521000046D374E70474C5000004FF6A070C2F23C
:105220000100006887464E520000810008697271D3
:105230002D74696D330047F8046D2E4E70474C5045
:1052400000004FF69C70C2F201000068874676525B
:1052500000008100086972712D74696D340047F88F
:10526000046D254E70474C5000004FF69870C2F206
:1052700001000068874600000024FFFF182D2D2D37
:1052800020466C6173682044696374696F6E617253
:1052900079202D2D2D00FDF781FA5FF000605FF081
:1052A000000145F2C04208C808C19142FBD1134831
:1052B00000210160BFF34F8FBFF36F8F45F20131C3
:1052C000084700000CED00E00400FA05C4FF0120CF
:1052D000C0FF0120BCFF0120B8FF0120B4FF012066
:1052E000B0FF0120ACFF0120A8FF0120A4FF012096
:1052F000A0FF01209CFF012098FF012008ED00E0A5
:10530000FCF777FDFDF7A0FAFDF7ACFAFDF7BBFA65
:10531000FDF7CCFAFCF7A7FDFDF7F4FA4FF01050BB
:105320005D494FF0FF3213000CC08842FCD14FF0B2
:10533000000C5A4F002647F8046D4FF0105647F8FE
:10534000046D4FF40026FCF70DFF55488546534F7A
:105350002A2647F8046D534E534DB1884FF6FF731C
:10536000994225D04FF480730B400AD0B01DFEF750
:105370000DFEFEF7EDF80388408800040343ED1AA4
:1053800016E080230B4013D00F23194089006D1ABB
:10539000B01DFEF7FBFDFEF7DBF847F8046D0600D5
:1053A00047F8046D2E0047F8046D0E00FCF77AFAFA
:1053B000FEF7B7FD300040CFCFD03C48066040CF6D
:1053C0003B48056034484FF010514FF6FF72884259
:1053D00004D0023803889342F9D00230354908607E
:1053E000FDF702FBFDF756FD434D6563726973706F
:1053F0002D5374656C6C6172697320524120322E9A
:10540000362E3520666F722053544D33324837356F
:1054100030205765414354205632206279204D6137
:10542000747468696173204B6F63680ABCF1000F84
:1054300019D0FDF72FFD1E45726173696E672065F7
:10544000787465726E616C2053504920666C61738C
:10545000682E2E2E2000FCF7B7FFFDF71BFD06443B
:105460004F4E45210A004FF0005000210160FAF72D
:10547000A8FF47F8046D104E47F8046D0426FEF7A8
:1054800094FD40CF002E02D0FEF704F960E540CF36
:105490004AE5696E69740000000008248802002053
:1054A00088030020E4010000000002201400002016
:1054B0001C0000201000002092540000FFFFFFFF9E
:0400000508000000EF
:00000001FF
