:020000040800F2
:100000008803002413510008534F0008534F000881
:10001000534F0008534F0008534F000800000000E2
:10002000000000000000000000000000814F0008F8
:10003000814F000800000000814F00082B4F00088E
:10004000814F0008814F0008814F0008814F000850
:10005000814F0008814F0008A94F0008D14F0008C8
:10006000F94F00082150000849500008814F00084E
:10007000814F0008814F0008814F0008814F000820
:10008000814F0008814F00086F500008814F000821
:10009000814F0008814F0008814F0008814F000800
:1000A000814F0008814F0008814F0008814F0008F0
:1000B00097500008BF500008E7500008814F000823
:1000C000814F0008814F0008814F0008814F0008D0
:1000D000814F0008814F0008814F0008814F0008C0
:1000E000814F0008814F0008814F0008814F0008B0
:1000F000814F0008814F0008814F0008814F0008A0
:10010000814F0008814F0008814F0008814F00088F
:10011000814F0008814F0008814F0008814F00087F
:10012000814F0008814F0008814F0008814F00086F
:10013000814F0008814F0008814F0008814F00085F
:10014000814F0008814F0008814F0008814F00084F
:10015000814F0008814F0008814F0008814F00083F
:10016000814F0008814F0008814F0008814F00082F
:10017000814F0008814F0008814F0008814F00081F
:10018000814F0008814F0008814F0008814F00080F
:10019000814F0008814F0008814F0008814F0008FF
:1001A000814F0008814F0008814F0008814F0008EF
:1001B000814F0008814F0008814F0008814F0008DF
:1001C000814F0008814F0008814F0008814F0008CF
:1001D000814F0008814F0008814F0008814F0008BF
:1001E000814F000820060008FFFF222D2D2D204DF5
:1001F0006563726973702D5374656C6C6172697399
:1002000020524120322E362E35202D2D2D0007B5BF
:100210009048002B09D000F03DF800F043F800F0C2
:1002200028F8426028210160F3E707BD00B589483E
:1002300000230168282905D1426800F004F800F085
:100240004EF8F6E700BD03B547F8046D160047F811
:10025000046D1E0008B400F09FFF08BC013347F88E
:10026000046D7D4E47F8046D40F2612604F0A4FC55
:1002700003BD03B5013B47F8046D1E0008B400F050
:1002800075FF08BC320047F8046D4FF4005604F0C7
:1002900093FC03BD03B5714801681E2901D000F02D
:1002A00034F803BD8169016201698161816801617E
:1002B00001688160C16941624169C161C168416190
:1002C0004168C1601E21016070470FB56148016837
:1002D0001E2903D0FFF7DEFFFFF7E4FF0FBD02B5D5
:1002E00081680160C168416000E002B50169816018
:1002F0004169C16081690161C1694161016A8161CE
:10030000416AC1611E21016202BD08B501681E2259
:100310000260082901D20B0004E0282909D14368B2
:1003200000F05BF847F8046D4D4E56EA033603F0D3
:10033000F7FA08BD00B500F009F800F00CF800F07D
:100340000FF800F012F800F015F800BD0FB54348A3
:10035000FFF7DBFF0FBD0FB54248FFF7D6FF0FBD1C
:100360000FB54148FFF7D1FF0FBD0FB53F48FFF76D
:10037000CCFF0FBD0FB537480168062202601E2969
:1003800006D147F8046D4CF6407603F099FA15E073
:10039000282909D1436847F8046D1E0047F8046D09
:1003A000062602F01DFF09E0062907D047F8046D74
:1003B00044F20666C9000E4303F082FA00F001F829
:1003C0000FBD24481E210162816101618160C1620B
:1003D0000621016000218162704707B547F8046D6E
:1003E0001E0000F045F847F8046D1E0002F0F8FE0C
:1003F00007BD07B5C16A282904D1016B994201D113
:10040000002307BD0168002918D08168002915D094
:100410000169002912D0816900290FD0016A0029E1
:100420000CD0036347F8046D1E0047F8046D0026E6
:1004300002F0D6FE2821C162002307BD47F8046DF3
:100440001E0000F015F847F8046D1E0002F0C8FE0B
:1004500007BD000020000024200F000840000024F9
:10046000040D47F838000024300000242800002440
:1004700037B536480168826803698469056A0620D1
:1004800000F00EF8032000F00BF8022000F008F84E
:10049000012000F005F800232C481E21C16237BD61
:1004A000814209D0824207D0834205D0844203D0E2
:1004B000854201D0030037BD704747F8046D4CF604
:1004C000007600B581581E2905D1FFF7D1FF835072
:1004D000012199400E4300BD00B501681E2904D1D9
:1004E0000022FFF7EAFF03F0EBF900BD00B58168D9
:1004F0001E2907D10822FFF7E0FF0022FFF7E1FFE6
:1005000003F0DEF900BD00B501691E290AD11022F1
:10051000FFF7D3FF0822FFF7D4FF0022FFF7D1FF38
:1005200003F0CEF900BD00B581691E290DD1182256
:10053000FFF7C3FF1022FFF7C4FF0822FFF7C1FF38
:100540000022FFF7BEFF03F0BBF900BD200000242E
:1005500000B50168282904D14368FFF73EFF036016
:10056000190000BD00B58168282904D1C368FFF7D0
:1005700034FF8360190000BD00B50169282904D14A
:100580004369FFF72AFF0361190000BD3EB5826889
:1005900003698469056A9A4203D0A24201D0AA4243
:1005A0000AD1072A08D847F8046DD600FFF760FF84
:1005B0001E43836003F084F93EBD3EB50168826846
:1005C00003698469056A914206D0994204D0A14228
:1005D00002D0A94200D03EBD47F8046DCE00FFF71F
:1005E00047FF1E43036003F06BF93EBD00B5FFF704
:1005F00076FEFFF76AFEFFF73BFF036000BD01B523
:1006000006480368013308D00023DB43036047F842
:10061000046D4BF2005603F053F901BDD8FF0724D7
:10062000440600084202043264757000386847F8D6
:10063000046D043F3860704700B500F0C3FC00F063
:10064000C1FC00BD620600086202053264726F7070
:10065000043740CF704700B500F064FC00F062FC46
:1006600000BDA8060008440205327377617007CF09
:10067000043F386047F8046D043F3A600E0070474D
:1006800000B5FFF750FF026803690360026142682A
:100690004369436042618268836983608261C268A2
:1006A000C369C360C26100BDD006000862020432A3
:1006B0006E69700007CF043F3860704700B5FFF7E0
:1006C00032FFFFF7DDFFFFF70AFEFFF708FE00BD70
:1006D000EA060008440005326F766572B86847F88C
:1006E000046D043F3860FE6870470E070008440040
:1006F00005327475636B07CF043F386047F8046DAB
:10070000043F3A60043F3960043F38607047300767
:10071000000846000432726F74003868B9683A699C
:10072000B86039613A6079687E60FE68F960704748
:1007300052070008460005322D726F743868B96898
:100740003A6938613960BA60F968FE607E6879603C
:1007500070477A070008200203323E7201CF01B4CD
:1007600040B440CF704700B5FFF749FF00F0FDFBF4
:1007700000F09DFC00F09BFC00BDA60700082002D5
:100780000332723E47F8046D40BC01BC043F386040
:10079000704700B5FFF733FF00F0A5FC00F0A3FCA5
:1007A00000F0E3FB00BDD6070008200203327240D0
:1007B00047F8046D019E47F8046D009E704700B530
:1007C000FFF71DFF47F8046D49F6010603F0AFFD82
:1007D00003F0A9FD00BDFC07000820020632726488
:1007E000726F700002B0704700B5FFF708FF47F85E
:1007F000046D4BF2020603F063F800BD1408000814
:1008000042000364322F3868F1077610400808432D
:10081000386070472A08000862020364322A386888
:10082000001876413860704717E04408000842001D
:100830000464736872003868F1077608400808435A
:1008400038607047900800086202046473686C00A6
:100850003868001876413860704700B5FFF746FEEB
:10086000FFF776FEFFF7A9FE00F07FFBFFF770FEB3
:10087000FFF7A3FE47F8046D402601F043FE00F0A9
:1008800074FB47F8046D44F2401601F03BFE00BDD6
:10089000A20800084200046461627300002E07D4BD
:1008A0007047C0080008420007646E6567617465A0
:1008B00038680021C043F64301304E41386070472C
:1008C00010090008640202642D0007CF121AB1411A
:1008D0000E00043F3A60704700B5FFF724FE00F0B9
:1008E00099FBFFF735FEFFF768FE00F03EFBFFF7D0
:1008F0002FFEFFF762FEFFF7C3FE01F06DFD00F073
:10090000A5FB47F8046D44F2801600F04EFD00BDD3
:100910005E090008640202642B0007CF12184E41E2
:10092000043F3A60704700B5FFF7FDFD00F072FB31
:10093000FFF70EFEFFF741FE00F017FBFFF708FE82
:10094000FFF73BFEFFF79CFE01F02BFD00F07EFB66
:1009500047F8046D44F2401600F02BFD00BD8809F5
:100960000008610203733E6447F8046DF617704790
:1009700000B500F0C5FAFFF720FE47F8046D41F21C
:10098000C07601F0BFFD00BDE609000862020375F4
:100990006D2A3868A0FB06063860704747F8046D7A
:1009A000DFF8006500B5FFF7A1FDFFF7D1FDFFF708
:1009B000D9FD01680E43816856EA0146FFF78FFCB6
:1009C000FFF78DFCFFF781FCFFF752FD036056EA4D
:1009D0000336FFF77AFCFFF74BFD036056EA032668
:1009E00002F09EFF00BD040A00086202026D2A00A8
:1009F000386880FB06063860704747F8046DDFF8FA
:100A0000A864CFE7420A000844000375642A07CFB0
:100A1000564341437618010C130C59437618010CC8
:100A200080B292B25143434350430022C91852410D
:100A30001204B6180A04090C80184E41043F3860AD
:100A40007047D40A000844000475646D2A0010B58C
:100A5000002447F8046D7E6847F8046D3E69FFF78F
:100A600098FF310040CF300040CF47F8046D3E681A
:100A700047F8046DFE6803B4FFF78BFF03BC330037
:100A800040CF320040CF47F8046D3E6847F8046D10
:100A90003E690FB4FFF77DFF0FBC9219634140CF51
:100AA00089196241634140CF47F8046D7E6847F879
:100AB000046DFE680FB4FFF76CFF0FBC9219634121
:100AC00040CF89196241634140CF1E003A6079608E
:100AD000B86010BDF60A00084300022A2F0000B5D6
:100AE00040B440CFFFF784FF47F8046D40BC00F0EE
:100AF0004CF8043700BD180B00084300052A2F6D81
:100B00006F6400B540B440CFFFF772FF47F8046D43
:100B100040BC00F03AF800BD3A0B000843000375F2
:100B20002A2F00B540B440CFFFF733FF47F8046DDC
:100B300040BC00F01BF8043700BD5E0B000843000A
:100B400006752A2F6D6F640000B540B440CFFFF7E3
:100B500020FF47F8046D40BC00F008F800BD7E0B94
:100B60000008430006756D2F6D6F640000B547F8EF
:100B7000046D002600F019F840CF043700BD9C0B2F
:100B800000084300056D2F6D6F6400B547F8046DD4
:100B9000F61700F032F840CF043700BDEE0B000826
:100BA00044000675642F6D6F640030B4002300228A
:100BB0007968B86835003C68402640004941524198
:100BC0005B41AB4202D804D3A24202D3121BAB4119
:100BD0000130013EF1D10E0038607B60BA6030BC5C
:100BE000704730B400237A68B9680020E2E7640CEB
:100BF0000008440005642F6D6F6400B5F01719D02C
:100C0000FFF756FEFFF733FDF0170CD0FFF750FE4D
:100C1000FFF72DFDFFF7C9FFFFF729FDFFF748FE9E
:100C2000FFF725FD00BDFFF722FDFFF7BEFFFFF731
:100C30003FFE00BDFFF71BFDF0170ED0FFF738FE9B
:100C4000FFF715FDFFF7B1FFFFF732FEFFF70FFDCE
:100C5000FFF72EFEFFF70BFD00BDFFF708FDFFF7C6
:100C6000A4FF00BD7A0C0008440002642F0000B508
:100C7000FFF7C3FFFFF71EFD00BDC20C00084400D4
:100C800002662A0000B5F0170DD0FFF711FEFFF73E
:100C9000EEFCF0170DD0FFF70BFEFFF7D8FE40CFAC
:100CA00001CF386000BDFFF7E2FCF017F5D0FFF789
:100CB000FFFDFFF7CCFE40CF01CF3860FFF7F8FD16
:100CC00000BD0E0D0008440002662F0000B5F017AD
:100CD0000ED0FFF7EDFDFFF7CAFCF0170ED0FFF7BF
:100CE000E7FDFFF7C4FCFFF77CFFFFF7E3FC00BD67
:100CF000FFF7BDFCF017F4D0FFF7DAFDFFF7B7FC04
:100D0000FFF76FFFFFF7D4FDFFF7D4FC00BD560DD2
:100D1000000820020232210006CF3160726040CF0D
:100D2000704700B5FFF7EFFB0168426806B400F0BA
:100D30000CFEFFF7CAFA06BC0160282906D047F866
:100D4000046D46F2400600F004FE00BD043242602D
:100D500000F0FBFD00BDA00D0008200202324000A3
:100D6000043F706838603668704700B500F0C8F816
:100D7000016828290AD047F8046D46F6400600F0BD
:100D8000C5FD00F0F2F800F0BDFD00BD4168043182
:100D9000416000F0B7FD00F0E8F800F0B3FD00BDE1
:100DA000B40D000844000364753C07CF121AB1412A
:100DB000B6417047C80D000844000364753E07CF74
:100DC000801A8E41B6417047DE0D0008440002646F
:100DD0003C0007CF121AB1410CDB00267047FA0D18
:100DE0000008440002643E0007CF801A8E4101DBF8
:100DF000002670470026F6437047160E0008620270
:100E00000364303C0437F617704700B500F0C0F8B3
:100E100000F058FB00BD3E0E000862020364303D46
:100E200001CF0643013EB641704700B547F8046D57
:100E300044F2003600F0BDFA00F01EFB00BD640E67
:100E40000008440203643C3E07CF50404E40064336
:100E5000013EB641F643704700B500F015F800F0CA
:100E60001FFB00BDAC0E0008440202643D0007CF2A
:100E700050404E400643013EB641704700B500F079
:100E800003F800F0F9FA00BD00B5FFF74CFB00F0E5
:100E9000C1F800F0C3F900F0D9F800F0BFF900F094
:100EA000B0F900BD0000A0FB000080FBBE0E0008F2
:100EB00020000373704047F8046D3E007047CE0E6B
:100EC0000008200003737021370040CF7047E00E08
:100ED000000820000372704047F8046D6E467047AA
:100EE000F00E0008200003727021B54640CF704715
:100EF000140F000861020364757047F8046D7047B1
:100F000006B5FFF7E9FA01684268FFF7DEF901600C
:100F1000426006BD400F000861020464726F7000F9
:100F200040CF704700B501681E2906D147F8046D0F
:100F300043F2047602F0C4FC00BDFFF7D0F900BD17
:100F4000560F00086100043F64757000002E01D048
:100F500047F8046D7047820F0008620204737761DE
:100F6000700039683E600E0070470CB5FFF7BEFA9E
:100F700002688368036082604268C3684360C2603D
:100F80000CBDB00F00086202036E69700437704731
:100F900000B5FFF7A1FA81681E2902D0FFF7A5F975
:100FA00000BD47F8046D43F2047602F089FC00BDF1
:100FB000D80F00086202046F7665720047F8046D6E
:100FC0007E68704700B5FFF791FA8168C268FFF745
:100FD0007CF90160426000BDFE0F000862020474EB
:100FE00075636B0001CF083F7E603860704700B5C5
:100FF000FFF77CFAFFF784FF00F028F800BD3410FB
:101000000008630203726F7403CF083F78603E608C
:101010000E0070470EB5FFF776FA01688268036923
:101020008160026103604168C2684369C1604261D6
:1010300043600EBD581000086302042D726F7400E7
:1010400003CF083F7E6039600600704700B5FFF7A8
:10105000E1FFFFF7DFFF00BD6A1000082000047009
:1010600069636B0057F82660704782100008000023
:101070000564657074684F49C91B47F8046D8E108C
:1010800070479E1000080000067264657074680066
:1010900047F8046D6E464849891B8E107047D4107E
:1010A00000082002023E720040B440CF704700B5F5
:1010B000FFF7A5FAFFF710FAFFF74AFA47F8046DB1
:1010C0004BF2004601228A40164302F0F9FBFFF77B
:1010D00006F900BD0A110008200202723E0047F81E
:1010E000046D40BC704700B5FFF789FAFFF7EDF8D3
:1010F000FFF7BEF9036047F8046D4BF60046012286
:101100009A40164302F0DCFB00BD281100082002C3
:101110000272400047F8046D009E704700B5FFF76B
:101120006EFA03F000F900BD4C11000820020572B0
:1011300064726F7001B0704700B5FFF760FA47F84E
:10114000046D4BF2010602F0BBFB00BD601100080C
:10115000200005727069636BB6006E443668704794
:101160008C110008000004726F6C6C00002E01D11D
:1011700040CF7047B0003958C019031F1A68026089
:101180000438013EF9D104370E007047BC11000845
:101190000000052D726F6C6C002E01D140CF70479E
:1011A000386839464A680A600431013EFAD108605D
:1011B00040CF70478802002488030024D61100081D
:1011C000620203616E6401CF0640704747F8046D08
:1011D00044F20006EDE0F211000862020362696366
:1011E00001CFB0430600704747F8046D44F28036E3
:1011F000DBE00C1200086202026F720001CF0643AE
:10120000704747F8046D44F20036D2E02612000819
:10121000620203786F7201CF4640704747F8046D51
:1012200044F24006C5E03E1200086202012A01CFE6
:101230004643704747F8046D44F24036B9E07212F5
:101240000008610203636C7AB6FA86F6704700B54F
:10125000FFF742F947F8046D7E4EFFF779F90E4328
:1012600056EA0146FFF7C2F956EA032602F058FB98
:1012700000BD90120008611803726F720120C64110
:1012800070470200010000000020BC12000862024A
:10129000AE120008611803726F6C1F20C6417047C0
:1012A00002001F0000000020BC1200086202CE12E3
:1012B000000862020772726F7461746501CFF041B9
:1012C0000600704747F8046D44F2C0166DE006133F
:1012D00000086202076172736869667401CF304169
:1012E0000600704700B547F8046D44F2001647F851
:1012F000046D41F20006FFF7F9F841681F292AD969
:101300001F21416027E030130008620206727368F3
:101310006966740001CFF0400600704700B547F8D9
:10132000046D44F2C00647F8046D40F6000612E072
:10133000681400086202066C73686966740001CF65
:10134000B0400600704700B547F8046D44F28006CF
:1013500047F8046D0026FFF7C9F80168282903D073
:1013600040CF00F022F800BD04374168FEF7B7FF18
:10137000002901D140CF00BD1F290AD889010E43A1
:101380000268D2001643FFF731F91E4302F098FAC3
:1013900000BD40CFFFF72AF947F8046D42F200067E
:1013A0001B021E4302F08CFA00BD0FB5FFF79EF83A
:1013B0000CE00FB5FFF79AF80168062901D1FFF795
:1013C000D4FD8268282A01D1FFF7CFFDFFF7CAF8C4
:1013D000016828291ED147F8046D466801F04CFECB
:1013E00002CF002E40CF15D0B6F5804F01D11A4E56
:1013F0001EE044F24002964201D1184E18E0B6F5C4
:10140000864F01D1164E13E04FF48742964201D128
:10141000144E0DE0FFF7BAF8FFF79AF8C90082689A
:101420000E43164302F04CFAFEF759FF0FBD0FB5FD
:101430000E43816856EA0146FEF751FFFEF74FFF63
:10144000FEF743FFFFF714F8036056EA032602F0A5
:1014500067FA0FBD80F0B0FA000010F0000090F0C5
:10146000000050F0000030F08E14000861020230DD
:101470003D00013EB641704700B500F0FBF800F0BA
:10148000FEFFFEF72CFF4FF45241816200BDB614FF
:101490000008610203303C3E013EB641F64370470E
:1014A00000B500F0E7F800F0EAFFFEF718FF4FF490
:1014B0005341816200BDDE140008610202303C002D
:1014C000F617704700B500F0D5F847F8046D41F203
:1014D000C07601F017F84FF45541816200BDF41455
:1014E0000008600004747275650047F8046D0026FA
:1014F000F64370470815000860000566616C736567
:1015000047F8046D002670472E1500084202023E7F
:101510003D0001CFB042EADA0026704747F8046D7B
:101520004DF6003647F8046D4DF60026AEE0541532
:1015300000084202023C3D0001CFB042D7DD002648
:10154000704747F8046D4DF6004647F8046D4DF6B8
:1015500000569BE0781500084202013C01CFB042E2
:10156000C5DB0026704747F8046D4DF6002647F8A6
:10157000046D4DF6003689E09C1500084202013EDC
:1015800001CFB042B3DC0026704747F8046D4DF63A
:10159000005647F8046D4DF6004677E0C215000886
:1015A000620203753E3D01CF861BB641F64370478C
:1015B00047F8046D4DF2003647F8046D4DF20026F1
:1015C00064E0E8150008620203753C3D01CF361A5D
:1015D000B641F643704747F8046D4DF6000647F8EC
:1015E000046D4DF6001651E00C16000862020275FB
:1015F0003C0001CF861BB641704747F8046D4DF2A1
:10160000002647F8046D4DF200363FE03016000822
:10161000620202753E0001CF361AB641704747F8A4
:10162000046D4DF6001647F8046D4DF600062DE0EA
:10163000541600086202023C3E0001CF361A013EF9
:10164000B641F643704747F8046D4DF2000647F87F
:10165000046D1BE0B61700086202013D01CF361A87
:10166000013EB641704747F8046D4DF2001647F849
:10167000046D0BE000B5FEF72FFFFEF767FEFEF7E7
:101680006AFEFEF76DFEFEF76DFF00BD00B5FEF7CA
:101690002DFFFEF75BFEFEF75EFEFEF76DFF826834
:1016A000282A05D1FFF761FC39683E600E46826842
:1016B00040CF016828291DD14168FF2907D847F884
:1016C000046D42F600060E43816809021AE047F8ED
:1016D000046D466801F0D0FC02CF002E40CF09D047
:1016E00047F8046D6A4E0E43816856EA014602F0DF
:1016F00017F90AE0FEF72CFF47F8046D44F2802644
:10170000C90016430E4302F0DBF8FEF7E8FDFEF7D2
:10171000E6FD866240CF00BD0FB55E48816A0029B4
:1017200035D047F8046D866A00218162310AD529D7
:1017300001D140CF0FBDFEF7C8FDFEF799FE036053
:10174000D22904D14FF4834600F0DCFE0FBDD3292B
:1017500006D14FF4834600F0D5FE00F0E6FE0FBD43
:10176000023602F0ADF847F8046D42F2000600F0D0
:101770000FF800F0DAFE47F8046D4EF2000602F0B2
:101780009FF847F8046D42F2000600F001F80FBD23
:1017900000B5FEF7A1FEFEF710FF016809020E4337
:1017A00002F08EF800BD00B5816A090AD52901D181
:1017B000FEF795FD00BDD41700086202036D696E47
:1017C00001CFB04200DC0600704747F8046D4DF6CB
:1017D00000362DE0F21700086202036D617801CF38
:1017E000B04200DB0600704747F8046D4DF6004636
:1017F0001EE012180008620204756D61780001CFC6
:10180000B04200D30600704747F8046D4DF600065D
:101810000EE098180008620204756D696E0001CF31
:10182000B04200D80600704747F8046D4DF200360C
:1018300000B5FEF75BFE01688268914203D140CF9C
:10184000FEF753FD00BD062A01D1FFF78EFB0168AC
:10185000282901D1FFF789FBFEF7AFFEFEF782FED4
:10186000C900026847F8046D44F280260E4316430F
:1018700002F026F802F024F847F8046D44F20066FE
:101880000E43164302F01CF8FEF72FFD00BD0000CA
:10189000000FB0F120000024D61800080000046DED
:1018A0006F76650007B5310040CF320040CF002988
:1018B0000FD0B2420DD006D3013E013A705C5054B5
:1018C0000139FBD105E03078107001360132013961
:1018D000F9D140CF07BDF818000800000466696C14
:1018E0006C00300040CF310040CF002902D00139D8
:1018F0007054FCD140CF70473A19000820020140D3
:101900003668704747F8046D46F6000600B5FEF7E6
:10191000E3FD0368282B08D143687C2119400901A5
:101920000E437C218B43FEF764FDDB001E43FEF774
:101930005DFE1E4301F0C4FF00BD921900082002A5
:10194000012103CF30600E00704747F8046D46F266
:10195000000600B5FEF7CAFD0368282B09D14368CD
:101960007C21194009010E437C218B43FEF741FD88
:101970000360DB001E438368282B02D1C368FEF797
:101980002CFD1E4301F09CFFFEF7A9FCFEF7A7FC0F
:1019900000BDC81900082002022B210003CF3268C5
:1019A000121832600E00704700B5FEF79FFDFFF77A
:1019B000A7FAFFF7A7FFFFF72DFB00F0F2FCFFF7F8
:1019C000D4FAFFF7C2FF00BD0C1A0008200202681B
:1019D00040003688704700B5FEF77EFD47F8046D7D
:1019E00048F600060368282B08D143683E211940B9
:1019F00049010E433E218B43FEF7FBFCDB001E43F7
:101A0000FEF7F4FD1E4301F05BFF00BD661A0008FF
:101A100020020268210003CF30800E00704700B51D
:101A2000FEF764FD47F8046D48F200060368282BB2
:101A300009D143683E21194049010E433E218B43A1
:101A4000FEF7D7FC0360DB001E438368282B02D11E
:101A5000C368FEF7C2FC1E4301F032FFFEF73FFCF5
:101A6000FEF73DFC00BD9C1A0008200203682B21F4
:101A700003CF3288121832800E00704700B5FEF78F
:101A800035FDFFF73DFAFFF7A6FFFFF7C3FA00F0B9
:101A900088FCFFF76AFAFFF7C2FF00BDE01A0008F2
:101AA0002002026340003678704700B5FEF714FD4F
:101AB00047F8046D47F600060368282B08D14368F1
:101AC0001F21194089010E431F218B43FEF791FC12
:101AD000DB001E43FEF78AFD1E4301F0F1FE00BD50
:101AE0003A1B000820020263210003CF30700E0071
:101AF000704700B5FEF7FAFC47F8046D47F20006A0
:101B00000368282B09D143681F21194089010E431E
:101B10001F218B43FEF76DFC0360DB001E438368CF
:101B2000282B02D1C368FEF758FC1E4301F0C8FE03
:101B3000FEF7D5FBFEF7D3FB00BD701B00082002AB
:101B400003632B2103CF3278121832700E007047D6
:101B500000B5FEF7CBFCFFF7D3F9FFF7A6FFFFF7C1
:101B600059FA00F01EFCFFF700FAFFF7C2FF00BDB4
:101B7000941B0008200204626973210003CF3268BD
:101B8000024332600E00704700B547F8046D44F21E
:101B9000003630E0D41B0008200204626963210093
:101BA00003CF3268824332600E00704700B5FEF703
:101BB0009DFCFFF7A5F9FFF7A5FEFFF72BFA47F805
:101BC000046D44F28036FFF7F0FBFFF7CEF9FFF724
:101BD000BCFE00BD141C0008200204786F722100B6
:101BE00003CF3268424032600E00704700B547F8BC
:101BF000046D44F24006FEF779FCFFF781F9FFF728
:101C000081FEFFF707FAFFF7D4FBFFF7AEF9FFF706
:101C10009CFE00BD4A1C000820020462697440005A
:101C200001CF3668064018BF4FF0FF36704700B549
:101C3000FEF75CFCFFF766FE47F8046D44F2000611
:101C4000FFF7B7FBFFF72CFC00BD6E1C000820025D
:101C500005686269732103CF3288024332800E0027
:101C6000704700B547F8046D44F2003630E0AE1C12
:101C70000008200205686269632103CF328882432D
:101C800032800E00704700B5FEF730FCFFF738F9E0
:101C9000FFF7A1FEFFF7BEF947F8046D44F2803666
:101CA000FFF783FBFFF761F9FFF7B9FE00BDEE1CFC
:101CB000000820020568786F722103CF3288424005
:101CC00032800E00704700B547F8046D44F24006BC
:101CD000FEF70CFCFFF714F9FFF77DFEFFF79AF90A
:101CE000FFF767FBFFF741F9FFF799FE00BD141DF1
:101CF0000008200205686269744001CF36880640FA
:101D000018BF4FF0FF36704700B5FEF7EFFBFFF747
:101D100062FE91E7381D00082002056362697321A5
:101D200003CF3278024332700E00704700B547F897
:101D3000046D44F2003630E0781D0008200205638F
:101D40006269632103CF3278824332700E0070479C
:101D500000B5FEF7CBFBFFF7D3F8FFF7A6FEFFF7C2
:101D600059F947F8046D44F28036FFF71EFBFFF780
:101D7000FCF8FFF7BEFE00BDB81D00082002056399
:101D8000786F722103CF3278424032700E00704774
:101D900000B547F8046D44F24006FEF7A7FBFFF7D5
:101DA000AFF8FFF782FEFFF735F9FFF702FBFFF709
:101DB000DCF8FFF79EFE00BD021F0008200205634D
:101DC0006269744001CF3678064018BF4FF0FF3685
:101DD000704700B5FEF78AFBFFF767FE2CE7C94A9C
:101DE0001368C94A134000D17047C84AC64C1460F2
:101DF0001A00704700B5C34A136813F00403FBD1FF
:101E0000FFF7EDFF00D000BDBE4A136813F4803326
:101E100004D0BE4A136843F480331360002200BD2F
:101E20001FB5BB4ABB4B1360BB4B1360BB4A136867
:101E300013F001032AD1FFF7DDFF1400002C36D187
:101E4000B64A146844F002041460BFF36F8FBFF306
:101E50004F8F0A464FF0080352F8041B40F8041B4A
:101E6000013BF9D1BFF36F8FBFF34F8FFFF7C2FF75
:101E70001446AA49086820F002000860A74A1168C1
:101E800041F001011160002C11D11FBD00F090FF45
:101E9000184572726F7220312077726974696E67AB
:101EA00020666C61736820210A0002F09BBF47F82E
:101EB000046D264600F0E4FF00F07AFF18457272C8
:101EC0006F7220322077726974696E6720666C6168
:101ED000736820210A0002F085BF00F069FF1E46EA
:101EE0006C6173682063616E6E6F74206265207729
:101EF00072697474656E2074776963650A0002F014
:101F000071BF801F00080000083332666C6173687F
:101F100021000FB51F20304015D000F049FF2233BB
:101F200032666C61736821206E656564732033329C
:101F30002D616C69676E656420616464726573739A
:101F40000A0002F04FBF30680130C6D1706801301E
:101F5000C3D1300040CF4FF00051CE6140CF8E61F1
:101F600040CF4E6140CF0E6140CFCE6040CF8E60FB
:101F700040CF4E6040CF0E6040CFFFF751FF0FBD06
:101F8000FA1F00080000106572617365666C61736A
:101F900068736563746F720000B5012E2BD3082E31
:101FA00029D25B4A5B4B13605B4B136000F000FF70
:101FB0000D457261736520736563746F722047F815
:101FC000046D02F060FD554A4FF08403F600334380
:101FD00013604C4A136813F48033FBD14F4A4FF01F
:101FE0000103136000F0E4FE0C66726F6D20466C16
:101FF0006173682E0A0040CF00BD58210008000020
:102000000A6572617365666C6173680072B600B5CB
:10201000434844490268B2F1FF3F05D047F8046DD8
:102020000126FFF7B9FF02E004308842F2D33E48B0
:102030003E490268B2F1FF3F05D047F8046D022621
:10204000FFF7AAFF02E004308842F2D3384839494A
:102050000268B2F1FF3F05D047F8046D0326FFF791
:102060009BFF02E004308842F2D3334833490268D0
:10207000B2F1FF3F05D047F8046D0426FFF78CFF4F
:1020800002E004308842F2D32D482E490268B2F1B2
:10209000FF3F05D047F8046D0526FFF77DFF02E0FE
:1020A00004308842F2D3284828490268B2F1FF3F41
:1020B00005D047F8046D0626FFF76EFF02E00430F6
:1020C0008842F2D3224823490268B2F1FF3F05D08B
:1020D00047F8046D0726FFF75FFF02E004308842EF
:1020E000F2D300F065FE1246696E69736865642E6E
:1020F00020526573657420210A005DF804EB02F03C
:1021000002BF0000102000520000EE171420005201
:102110000420005223016745AB89EFCD0C2000520B
:1021200000800008FFFF000800000108FF7F010891
:1021300000800108FFFF010800000208FFFF0308FC
:1021400000000408FFFF070800000808FFFF0B0855
:1021500000000C08FFFF0F087A2100080000096941
:102160006E6974666C61736888484FF490610022F0
:10217000027001300139FBD170472C2200080000A9
:102180000773746D616C656E00B58048202103B4DF
:1021900000F00EFE03203E0A03BC47F8046D0668FB
:1021A00003B400F005FE09416472657373653A205B
:1021B00003BC00F065FE03B400F0FAFD08496E6848
:1021C000616C743A200003BC47F8046D466800F067
:1021D00057FE47F8046D866800F052FE47F8046D1C
:1021E000C66800F04DFE47F8046D066900F048FE31
:1021F00047F8046D466900F043FE47F8046D8669B0
:1022000000F03EFE47F8046DC66900F039FE47F85D
:10221000046D066A00F034FE03B400F0C9FD03202B
:102220003E0A03BC24300139B7D100BD1A2300088F
:1022300000000768666C6173682130B5320040CFDA
:10224000500813D300F0B4FD1E68666C61736821FA
:10225000206E65656473206576656E2061646472C6
:1022600065737365732E0A0002F0BCBD484B9A4239
:1022700010D200F09DFD1943616E6E6F742077726D
:1022800069746520696E746F20636F726520210A1E
:1022900002F0A8BD53093D482021046864099C420E
:1022A0002AD024300139F8D1384820210468002C84
:1022B00017D024300139F9D100F07AFD21546F6F25
:1022C000206D616E7920736361747465726564203A
:1022D000466C617368207772697465732E0A02F028
:1022E00081BD5B010360013941608160C1600161B2
:1022F00041618161C16101621F2111400431465277
:1023000040CF0168013101601F221140102903D123
:1023100000F01AF8FFF7FDFD30BD9423000800001F
:102320000A666C757368666C6173680000B517485F
:1023300020210268002A03D000F006F8FFF7E9FD2B
:1023400024300139F5D100BD47F8046D466847F8DF
:10235000046D866847F8046DC66847F8046D066921
:1023600047F8046D466947F8046D866947F8046DBF
:10237000C66947F8046D066A47F8046D1F26F643E0
:1023800002681640002202607047000088030024A3
:1023900000800008CA2300086202012B01CF361812
:1023A000704700B5FEF7A2F847F8046D43F2000647
:1023B00047F8046DC94E47F8046D41F60006816880
:1023C000282917D1FEF7D1FD14E07024000862021D
:1023D000012D01CF861B704700B5FEF787F847F83F
:1023E000046D43F6000647F8046DBD4E47F8046DD2
:1023F00041F60026FEF7B6F80168282927D1416882
:10240000FF290CD840CF40CFFEF7C0F80E438168BB
:1024100009020E4301F054FAFDF761FF00BD47F8D1
:10242000046D0E0000F028FE02CF002E40CF0ED02B
:1024300040CF04370E43816856EA0146FDF74FFF4F
:10244000FEF7D4F856EA032601F06AFA00BD043715
:102450000437FEF77DF889018268D2000E431643E7
:10246000FDF73DFFFEF7C2F81E4301F029FA00BD5B
:1024700088240008610202312D00013E704747F8B0
:10248000046D41F640663DE0A0240008610202317F
:102490002B000136704747F8046D41F6404631E0A5
:1024A000B8240008610202322D00023E704747F84E
:1024B000046D41F6806625E0D024000861020232F6
:1024C0002B000236704747F8046D41F6804619E04C
:1024D000EA24000861020563656C6C2B04367047C2
:1024E00047F8046D41F600560CE01C250008610217
:1024F000066E6567617465007642704747F8046D43
:1025000044F2402600B5FDF7E7FF0168C9000E431D
:10251000FEF76CF81E4301F0D3F900BD3425000826
:102520006102036E6F74F643704747F8046D44F21E
:10253000C036E7E74C25000861020373687276082D
:10254000704747F8046D40F64006DBE75C2500085D
:1025500061020373686C7600704706E0722500081C
:10256000610202322A007600704747F8046D402667
:10257000C8E78A25000861020563656C6C73B600C4
:10258000704747F8046D8026BCE7A2250008610269
:1025900002322F007610704747F8046D41F2400672
:1025A000B0E7E2250008610203616273F017361894
:1025B0004640704700B5FDF78FFF47F8046D0026D1
:1025C0000168C9000E43FEF711F81E4301F078F9C7
:1025D00047F8046D4DF2005601F072F9FFF78EFFD7
:1025E00000BD00260008420005752F6D6F6401CF05
:1025F0003100B0FBF6F67143401A043F3860704773
:102600001E2600084200042F6D6F640001CF3100C8
:1026100090FBF6F67143401A043F3860704732264B
:1026200000084200036D6F6400B5FFF7EFFF40CF75
:1026300000BD722600086202012F01CF90FBF6F662
:10264000704700B5FDF752FFFDF782FFFDF78AFFE7
:1026500047F8046D234E01680E43816856EA01462F
:10266000FDF73DFEFDF7C2FF56EA032601F058F9DB
:1026700000BD862600086100046576656E000120B5
:102680003040361870479E2600088100046261734E
:10269000650047F8046D144E70470A000000B42628
:1026A000000800000662696E617279000E4802211E
:1026B00001607047CA260008000007646563696D01
:1026C000616C09480A21016070477C2900080000FC
:1026D000036865780448102101607047000010F11C
:1026E0000000B0F1F0F090FBFCFF0724BFF34F8F28
:1026F000BFF36F8F8C494FF000000860BFF34F8F1E
:10270000BFF36F8F8949086840F400300860BFF359
:102710004F8FBFF36F8F7047BFF34F8FBFF34F8F54
:10272000BFF34F8FBFF36F8F70478149086820F068
:102730000F0040F004000860086800F00F00042853
:10274000FAD170477B49086820F03F0040F0040050
:10275000086070477849086820F4404040F44040E1
:102760000860086810F40050FBD07047734908688F
:1027700040F4802008607149086840F480300860A7
:10278000086810F40030FBD070476D49086820F0ED
:10279000030040F0020008606A49086840F4803095
:1027A00008606849086840F4802008606549086846
:1027B00020F00C0040F0040008606249086820F036
:1027C000020040F0000008605D49086820F47C7059
:1027D00040F04000086040F28F125B49086820F426
:1027E000FF7040EA020008605749086820F47E4004
:1027F00040F4007008605449086820F4FE0040F47A
:10280000403008605049086820F0FE4040F0807079
:10281000086070474949086840F08070086008689F
:1028200010F00070FBD070474849086820F00F0096
:1028300040F0080008604649086820F0070040F0B2
:10284000030008604149086820F00F0040F00800CC
:1028500008603E49086820F0700040F040000860C1
:102860003C49086820F0700040F040000860394999
:10287000086820F4E06040F4806008603649086829
:1028800020F0700040F040000860704700B5FFF78E
:102890002DFFFFF741FFFFF755FFFFF75BFFFFF746
:1028A00065FFFFF772FFFFF7B5FFFFF7BDFFFFF70B
:1028B0003CFF2A494FF0030008602949086850F09E
:1028C0000F0050F4FE6008602649086820F440308C
:1028D00050F4003008602349086820F4402050F488
:1028E000002008602049086820F00F0050F0070021
:1028F00008601D49086820F0F00050F07000086082
:102900001A49086850F48020086019495FF40B7078
:10291000086018494FF48050086017494FF00D00C7
:1029200008605DF804EB704750EF00E014ED00E044
:10293000002000520C48025818480258004402581F
:10294000284402582C440258304402581844025873
:10295000104402581C44025820440258544402585F
:10296000E0440258000C0258240C0258E844025873
:102970000C480040084800400048004098290008E2
:10298000810009686F6F6B2D656D697447F8046D80
:10299000614E7047822A0008B42900088100086847
:1029A0006F6F6B2D6B65790047F8046D5B4E704758
:1029B000A82A0008D229000881000A686F6F6B2DD1
:1029C000656D69743F0047F8046D554E7047D22A13
:1029D0000008EE290008810009686F6F6B2D6B6598
:1029E000793F47F8046D4F4E7047FE2A00080C2AC5
:1029F000000881000A686F6F6B2D70617573650048
:102A000047F8046D484E7047B64E0008222A000869
:102A1000000004656D6974000FB53F4800F026F8AA
:102A20000FBD362A00080000036B65790FB53B48DF
:102A300000F01CF80FBD482A0008000005656D690C
:102A4000743F3748006887465A2A00080000046B24
:102A500065793F00334800688746702A0008000007
:102A60000570617573653048006887460068874661
:102A7000962A000800000B73657269616C2D656D04
:102A8000697400B500F025F8002E40CFFAD0274A2F
:102A9000167040CF00BDBE2A000800000A736572A0
:102AA00069616C2D6B65790000B500F028F8002E87
:102AB00040CFFAD047F8046D1D4A167800BDEC2AC5
:102AC000000800000C73657269616C2D656D697496
:102AD0003F0000B5FFF7C7FF47F8046D0026154813
:102AE00001688020014000D0F64300BD382B00086B
:102AF00000000B73657269616C2D6B65793F00B5E1
:102B0000FFF7B1FF47F8046D00260A48016820204E
:102B1000014000D0F64300BDF8FF0724F4FF07246E
:102B2000F0FF0724ECFF0724E8FF072428480040B3
:102B3000244800401C4800405C2B0008000007634C
:102B400065787065637400B5386801B40130386029
:102B500000F00BF801BC067040CF00BDD22B00087E
:102B60000000066163636570740000B502CF01392F
:102B70000022FFF75BFF300040CF7F2809D02028DC
:102B800019D2092816D00A281FD00D281DD00828D0
:102B9000EFD1002AEDD000F00BF903082008002A3D
:102BA000E7D0885C013A80230340E2D04023034011
:102BB000F5D0DEE72020B242DBD247F8046D0600F4
:102BC000FFF72AFF01328854D3E7160000F09FF880
:102BD00000BDE42B000840000374696247F8046DEF
:102BE000294E7047FA2B00088100033E696E47F8B2
:102BF000046D264E704700000000202C0008820063
:102C00000E63757272656E742D736F7572636500F5
:102C100047F8046D1E4E704700000000C0000024FD
:102C20003C2C0008000009736574736F757263654E
:102C3000174802CF0660416040CF70475A2C000809
:102C4000000006736F757263650047F8046D104EDF
:102C5000043F7068386036687047942C00080000A4
:102C60000571756572790FB5084800210160FFF79D
:102C7000B5FF47F8046D47F8046DC826FFF775FFE8
:102C8000FFF7D6FF0FBD0000C0000024E4FF0724BB
:102C9000DCFF0724DC2C0008000007636F6D706107
:102CA00072650FB5310040CF01CF884202CF10D1FD
:102CB000002810D001380A5C335C412A02D35B2A19
:102CC00038BF2032412B02D35B2B38BF20339A42CE
:102CD000EED000260FBD0026F6430FBDF02C0008F5
:102CE00000000263720000B500F062F8010A00BD46
:102CF000022D0008000002626C0047F8046D2026D7
:102D00007047162D0008000005737061636547F871
:102D1000046D202680E6362D0008000006737061E1
:102D20006365730000B5002E03DDFFF7F0FF013E81
:102D3000FBD140CF00BD462D00085000065B636804
:102D400061725D0005E05E2D0008000004636861AB
:102D5000720000B501F0C8FC40CF367800BD6E2D82
:102D600000085004012847F8046D292606E0882D44
:102D700000085004015C47F8046D002600B501F01E
:102D8000BDFC043740CF00BDCC2D00083000022E22
:102D90002200AA4800B547F8046D060000F07DFA4D
:102DA00047F8046D222601F0A9FC00F0C4FD00BD27
:102DB0000AB447F8046D7646013E337801210133A9
:102DC00019405B181EEB030E0ABC39E0F22D000817
:102DD0003000026322009A48DCE747F8046D76462B
:102DE000013E33780121013319405B181EEB030EBD
:102DF00070471C2E00083000027322009148C9E77A
:102E000047F8046D764647F8046D013E3678012197
:102E1000731C19405B181EEB030E7047342E00081C
:102E2000000005636F756E74013647F8046D013E4E
:102E3000367870474C2E0008000005637479706581
:102E400000B5FFF7F1FF00F007F800BD742E000891
:102E5000000004747970650001B501CF002E07D021
:102E600047F8046D0678FFF7D7FD0130013EF7D132
:102E700040CF01BDAE2E00080000046865782E002A
:102E800007B5310040CF20200F22043847F8046DE9
:102E90000E00C6401640092E01D9373600E0303604
:102EA000FFF7BAFD0028F0D1FFF731FF07BDBE2EB6
:102EB0000008000003682E731FB5634C0EE0CE2E91
:102EC0000008000003752E731FB5604C06E0722FDA
:102ED00000080000022E73001FB55D4C5D49C91B40
:102EE0008908220A2020292F200A2028273E200A8C
:102EF000202F43432020203335204343430A385CAE
:102F000029295F200A0A544A106803B40A20106075
:102F1000FFF74EFF08537461636B3A205B0047F87C
:102F2000046D0E0001F0B7FDFFF742FF025D2000C7
:102F300003BC2736484A106000290AD0474A106867
:102F400006B447F8046D0600A04706BC043A0139F0
:102F5000F5D1FFF72DFF0620544F533A200047F8D4
:102F6000046D3600A047FFF723FF04202A3E0A0025
:102F70001FBD12300008000005776F72647300B542
:102F8000FFF716FF010A00F030FFFFF711FF0941BC
:102F90006464726573733A2047F8046DFFF770FF3D
:102FA000FFF706FF064C696E6B3A200047F8046D88
:102FB0003668FFF765FFFFF7FBFE07466C61677336
:102FC0003A2047F8046DB688FFF75AFFFFF7F0FE86
:102FD00006436F64653A2000B01D00F053FF47F8C8
:102FE000046D0600FFF74CFFFFF7E2FE064E616D31
:102FF000653A200047F8046D0636FFF721FFFFF71A
:10300000D7FE010A00F009FF300040CFBDD040CF0D
:1030100000BD64300008000006756E7573656400BD
:1030200000B501F004F80E4801684FF010529142CB
:1030300001D24FF00166761A00BD0000B02D0008E5
:10304000DA2D0008002E0008812E0008874A0008AB
:10305000974A000888020024FCFF07248402002409
:10306000D0FF0724C831000800000D3132626974B6
:10307000656E636F64696E670FB5FF2E04D847F8FD
:10308000046D5FF0FF360FBD16F0FF10B0420ED199
:103090004FF6FF710840310C814208D116F0FF064F
:1030A00056F4805647F8046D5FF0FF360FBD16F0FA
:1030B000FF20B0420FD14FF6FF710840310C814222
:1030C00009D1360A16F0FF0656F4005647F8046D8B
:1030D0005FF0FF360FBDFF2231001140300A104073
:1030E000884210D1300C104088420CD1300E104074
:1030F000884208D116F0FF0656F4405647F8046D92
:103100005FF0FF360FBD300000210131001850F193
:1031100000007FF07F020240802A05D01F29F4D3EF
:1031200047F8046D00260FBD0829F9D3060036F0D4
:10313000800611F00100C001064311F00E00C0022C
:10314000064311F010008005064347F8046D5FF058
:10315000FF360FBD47F8046DDFF8F0655FF470418E
:1031600010EA0102120116435FF4006110EA010245
:10317000D20316435FF4E06110EA01021201164324
:10318000FF2110EA010216431E43C9E347F8046D0C
:10319000DFF8BC655FF0704110EA0102120B1643C4
:1031A0005FF0006110EA0102520816435FF0E0612F
:1031B00010EA0102120B16435FF47F0110EA0102CC
:1031C000120C16431E43ABE32E32000800001072AF
:1031D000656769737465726C69746572616C2C00E3
:1031E0000FB5330040CF1B02FF2E05D856F4005612
:1031F0001E4300F065FB0FBDFFF73EFF002E40CFE2
:1032000006D0DFF8500506431E4300F089FB0FBDD2
:10321000F643FFF731FF002E40CF06D0DFF8380528
:1032200006431E4300F07CFB0FBDF6430BE08E32DD
:1032300000080000096D6F76776D6F76742C0FB5FE
:10324000330040CF1B02300040CFFFF783FF4FF623
:10325000FF7110EA014001D0FFF798FF0FBD0FB5D5
:103260000136300040CF0023FFF774FFFFF78EFFD9
:1032700006E00FB5013647F8046D0026FFF7B0FFF2
:1032800047F8046D44F2807600F01AFB0FBDF4326B
:10329000000800000563616C6C2C0FB5330000F072
:1032A000B7FE300040CF1B1A043BDFF8B0141940C2
:1032B000002906D0DFF8A824914202D0BDE80F40D3
:1032C000D7E740CF5B08DFF89C0440F2FF7119405C
:1032D0000843DB0A40F2FF311940090408439B0A06
:1032E00013F001018906084347F8046D060000F059
:1032F00017FB0FBD2A3300080000086C6974657263
:10330000616C2C0008B547F8046D4FF6470600F0D5
:10331000D7FA47F8046D46F6045600F0D1FA47F89C
:10332000046D0626FFF75CFF08BD5233000800005D
:10333000066372656174650000B500F03FF843F202
:103340007330C0F60000804747F8046DBEF10106F7
:1033500000BDAE330008200005646F65733E43F284
:103360007330C0F60000804747F8046DBEF10106D7
:10337000704747F8046DBEF10106FB4A1368FB492C
:1033800009684FF01050834205D21F2008400428DE
:1033900005D00231F9E70220084000D002310231A5
:1033A0001160FFF75CFF136000F0F5F900BD0A340F
:1033B00000080000073C6275696C647300B500F09A
:1033C000E1FBE94801684FF01052914209D200F048
:1033D0001FFE1F200640042E40CF0AD000F062FAE4
:1033E000F5E700F015FE0220064040CF01D000F0C6
:1033F00059FA47F8046D4BF2005600F061FA47F8AD
:10340000046D0A2600F0CAFA00BD16340008500008
:10341000035B275D03E02E3400080000012700B5A0
:1034200001F062F900F091FD300040CF00BD64343E
:103430000008300008706F7374706F6E650000B51F
:10344000FFF7EDFF47F8046D060039683E600E4651
:10345000FFF758FFFFF756FF47F8046DC44EFFF71C
:103460001CFF00BDBA340008000007696E6C696E6D
:10347000652C00B54BF200514BF6005244F27073CC
:103480003088884208D0904208D0984206D047F849
:10349000046D060000F014FA0236F1E740CF00BDDB
:1034A0000EB44BF6005244F2707301880230914220
:1034B00001D09942F9D10EBC7047D0340008000009
:1034C000047265742C0047F8046D4BF60056F7E162
:1034D000DE3400083000046578697400F3E7F634E0
:1034E00000083000077265637572736547F8046DF4
:1034F0009E4E3668D1E60E35000881000573746172
:10350000746547F8046D9B4E70470000000020353D
:1035100000080000015D97480021C9430160704721
:10352000303500081000015B9248002101607047AF
:10353000503500080000013A00B58F48076000F0E0
:1035400021FB8C48012101608C480021016000BDF5
:10355000CC3500083008013B00B587480168B94206
:1035600014D087498E4202D1864EFFF769FCFFF7DF
:103570001FFC1520537461636B206E6F74206261B1
:103580006C616E6365642E0A01F02CBC794800689A
:10359000411C10D00B2805D847F8046D40F62006D2
:1035A00000F030F947F8046D44F2707600F088F9C5
:1035B00001F018FB05E047F8046D4BF6005600F0EB
:1035C0007FF900F0E8F8FFF7AFFF00BDE035000835
:1035D00000000765786563757465300040CF8746E5
:1035E000F8350008100009696D6D656469617465DE
:1035F00047F8046D102605E10E36000850000669F4
:103600006E6C696E650047F8046D2026FAE0283676
:10361000000810000B636F6D70696C656F6E6C79DC
:1036200047F8046D3026EDE04236000850000A30BD
:103630002D666F6C6461626C650047F8046D40260E
:10364000E0E05C36000850000A312D666F6C646162
:10365000626C650047F8046D4126D3E076360008B9
:1036600050000A322D666F6C6461626C650047F829
:10367000046D4226C6E09036000850000A332D66DD
:103680006F6C6461626C650047F8046D4326B9E0B5
:10369000AA36000850000A342D666F6C6461626CB3
:1036A000650047F8046D4426ACE0C43600085000BD
:1036B0000A352D666F6C6461626C650047F8046DB5
:1036C00045269FE0DE36000850000A362D666F6CF6
:1036D0006461626C650047F8046D462692E0F83636
:1036E000000850000A372D666F6C6461626C6500DB
:1036F00047F8046D472685E0283700080000086376
:103700006F6E7374616E740000B500F03BFAFFF7E2
:10371000F9FD47F8046D44F2707600F0D1F8FFF738
:103720008CFF00F038F800BD88370008000009322F
:10373000636F6E7374616E7400B500F023FA3968BC
:103740003E600E46FFF7DEFDE1E70000000040F2BC
:103750000000C0F200005FF000007FF00100C0FF39
:103760000000C0FF00F800F0D0FF07240C00002488
:10377000DE4A0008D8FF0724080000245400002473
:1037800085191204E22E0008F437000800000673C1
:103790006D756467650000B5EA4801684FF0105226
:1037A000914220D202390A884FF6FF739A4205D11E
:1037B00047F8046D4FF0000600F082F800F04FF873
:1037C00000F062F8E048006847F8046D0600DF4941
:1037D00009680431DB4A1368116000F071F8136066
:1037E000FEF7A4FD00BD00F03AF847F8046D4FF075
:1037F000000608E03C380008000008736574666C39
:103800006167730000B5CF4801684FF010529142D4
:1038100005D2CD4801683143016040CF00BD320080
:1038200040CFCA480068043001884FF6FF739942C0
:1038300001D1110000E01143018000BD52380008A1
:10384000410007616C69676E656403360320864337
:10385000704778380008000005616C69676E00B534
:10386000B84801680220014005D047F8046D4FF0C8
:10387000000600F025F800BDB63800080000086119
:103880006C69676E33322C0000B5AE4801681F20AA
:10389000014006D047F8046D4FF0000600F010F824
:1038A000F3E700BD47F8046D362609E047F8046DDC
:1038B0004CF6407604E0FC380008000002682C005A
:1038C0000FB5B6B2A2480168002902D0013100D07C
:1038D00001609C4801684FF01052914205D247F8B0
:1038E000046D0E00FEF7A9FC02E0320040CF0A8012
:1038F00047F8046D022600F051F80FBD1639000894
:103900000000012C01B547F8046DFFF7D9FF360C14
:10391000FFF7D6FF01BD283900080000033E3C2C0C
:1039200001B51020C641EEE790390008000007738A
:103930007472696E672C07B5FF21314040CF3000AB
:1039400040CF002905D147F8046D0026FFF7B8FFE6
:1039500007BD47F8046D067836020E43FFF7B0FF47
:103960000130013902290AD347F8046D467836023E
:1039700002781643FFF7A4FF02300239F2E700296C
:1039800000D107BD47F8046D0678FFF799FF07BD22
:10399000EE390008000005616C6C6F7469480168BD
:1039A0004FF01052914210D2320040CF89184FF0A0
:1039B0000162914219D3FFF7FBF90B466C61736802
:1039C0002066756C6C0A01F00DBA320040CF891880
:1039D000604A1268914208D3FFF7EAF90952616D13
:1039E0002066756C6C0A01F0FDB9016070470A3AF7
:1039F0000008810008286C6174657374290047F819
:103A0000046D554E7047E4010008223A0008810019
:103A100004286470290047F8046D504E7047080868
:103A20000024463A0008000009666F7267657472E8
:103A3000616D00B500F025F84848494901604648E5
:103A40004849016000BD6E3A000800000D636F6DCB
:103A500070696C65746F72616D3F47F8046D3F4823
:103A600000684FF010518842B641F6437047903AD3
:103A7000000800000C636F6D70696C65746F726193
:103A80006D00364800684FF01051884212D37047DD
:103A9000023B000800000E636F6D70696C65746F07
:103AA000666C617368002D4800684FF010518842C1
:103AB00000D2704728482C4902680B680A600360EE
:103AC00026482A4902680B680A600360214800689A
:103AD000834215D300B5FFF76BF923205661726955
:103AE00061626C657320636F6C6C696465207769D3
:103AF00074682064696374696F6E6172790A00BDCD
:103B000070471E3B000800000C61646472696E66B9
:103B10006C6173683F0013484FF001610BE0743B28
:103B2000000800000A61646472696E72616D3F0092
:103B30004FF010500E49864202D38E42B641704774
:103B400000267047D0FF072418000024D4FF072464
:103B5000D8FF07241C000024D4FF0724D0FF07242B
:103B600008080024E40100081400002410000024C8
:103B700000000824783C0008000008286372656192
:103B80007465290000B500F0AFFD002E0ED1FFF7DF
:103B90000FF91520437265617465206E6565647365
:103BA000206E616D6520210A01F01CB9386847F864
:103BB000046D043F386000F074F940CF002E40CF10
:103BC00011D0386847F8046D043F3860FFF7F0F80B
:103BD000095265646566696E6520FFF73DF9FFF778
:103BE000E7F8022E2000FFF73AFE954800684FF0F4
:103BF0001051884227D293484FF000010160FFF72F
:103C000043FE47F8046D1C26FFF7C8FE00F000FADB
:103C100047F8046D0626FFF7C1FEFDF711FAFFF71E
:103C20008AFE894801680A684FF0FF339A4207D13B
:103C3000834A1368116047F8046DFFF763FE136051
:103C4000066040CF13E000F0E3F97F4847F8046DC9
:103C50000668FFF757FE47F8046D4FF6FF76FFF74B
:103C60002FFE7948310040CF0160FFF764FE7448B1
:103C700001687648016000BD903C000800000876AD
:103C800061726961626C650047F8046D012613E09A
:103C9000A83C0008000009327661726961626C65B7
:103CA00047F8046D022607E01A3D00080000096E7F
:103CB0007661726961626C6500B5FFF763FF604809
:103CC00001684FF01052914218D20F200640B20006
:103CD00000F04CF8300040CF0200002805D00E6004
:103CE0000431FFF70FFE0138F9D147F8046D802643
:103CF0001643FFF787FDFFF74EFD00BD00F050F8BB
:103D0000300040CF002803D0FFF7FCFD0138FBD185
:103D1000FFF793FCFFF73FFD00BDD43D0008000016
:103D2000076275666665723A00B5FFF72BFF0120E2
:103D300030403618022030403618414801684FF0B4
:103D4000105291420DD2320000F010F8FFF7DAFD68
:103D500047F8046D40F24016FFF754FDFFF71BFDD6
:103D600000BD00F01DF8FFF719FED1E700B5384897
:103D70000168891A374A91420BD2FFF719F80F4EA2
:103D80006F7420656E6F7567682052414D0A01F0AF
:103D900029B8016047F8046D0E00FFF7B3FA12E08E
:103DA00000B500F035F90220064040CF01D1FFF701
:103DB00079FD47F8046D284EFFF7B2FD47F8046D12
:103DC000264EFFF7ADFD47F8046D44F27076FFF71D
:103DD00077FD00BD043E000800000F64696374694C
:103DE0006F6E6172797374617274154800684FF078
:103DF000105147F8046D884201D2194E7047124E97
:103E000036687047643E000800000E646963746998
:103E10006F6E6172796E6578740003B531684FF02A
:103E2000FF30814207D08879FF2804D00E0047F880
:103E3000046D002603BD47F8046D0026F64303BD5C
:103E4000D0FF072418000024D4FF07240C0000240E
:103E50001C000024080800243E60043F02367E4611
:103E6000E4010008963E000800000A736B69707355
:103E70007472696E67003178013101220A40891835
:103E80007618704706B40178013101220A4089187A
:103E9000401806BC7047A83E000800000466696E22
:103EA0006400304800688746C43E00088100096805
:103EB0006F6F6B2D66696E6447F8046D2A4E70470C
:103EC000D23E00086C3F00080000062866696E6458
:103ED000290030B50020002103B4350040CF340064
:103EE00040CFFFF782FF4FF6FF70B18888421ED0A7
:103EF000B179A9421BD1F01D0139425C635C412AB2
:103F000002D35B2A38BF2032412B02D35B2B38BF50
:103F100020339A420BD10029EED102B0B01DFFF739
:103F2000B1FFB18803B44FF01050864207D2366813
:103F30004FF0FF30864202D0B079FF28D3D103BCC6
:103F4000060047F8046D0E0030BD00B5310038683A
:103F500003B4FFF7A6FF03BC3A68002A01D100F0C2
:103F6000EFFE00BDCCFF0724CCFF0724CA3F0008AA
:103F7000000006636A756D702C00320040CF31007E
:103F800040CF8B1B043B6FF0FE01194000290ED07F
:103F90006FF0FF0081420AD0FEF70AFF0D4A756DEF
:103FA0007020746F6F206661720A00F01BBF5B1097
:103FB000FF210B40134330001E0000B5CB4A1368AD
:103FC0001060FFF77DFC136000BD04400008000096
:103FD000056A756D702C310040CF300040CF0B1A50
:103FE000043BC3491940002902D0C24A9142D3D1AF
:103FF0005B1040F2FF72134053F4604347F8046DC6
:104000001E00DAE71A4000080000046865726500C7
:1040100047F8046DB54E3668704748410008000007
:104020000D666C6173687661722D6865726547F81C
:10403000046DB14E3668704700B547F8046D42F61E
:104040000066FFF73DFCFFF731FC00BDE0E700B57F
:1040500000F03AF839683E600E4647F8046D4DF2BC
:104060000016FFF78AFF00BD00B500F02DF8396893
:104070003E600E4647F8046D4DF20076FFF77DFF77
:1040800000BD00B5FFF7D8FF00F01EF839683E60AC
:104090000E4647F8046D4DF20006FFF76EFF00BDB7
:1040A00000B500F011F839683E600E46FFF793FF47
:1040B00000BD00B5FFF7C0FFFFF7AAFF47F8046D8A
:1040C0000226FFF76BFC00BD00B5FFF7A1FF47F824
:1040D000046D0226FFF762FC00BD00B5FFF798FFF4
:1040E000FFF779FF00BD00B5FFF792FF47F8046DB9
:1040F0004DF20006FFF741FF00BD00B5FFF788FF56
:1041000047F8046D4DF20016FFF737FF00BD00B50C
:10411000FCF7E2F9FCF71AF9FCF71DF9FCF720F9B6
:104120008168282901D1FCF71DFAFCF711FA47F83C
:10413000046D42F6000609020E43FFF7C1FBFCF7CF
:10414000CEF8FCF7F7F800BD7441000830000474A5
:1041500068656E00052E01D140CFBEE7F1B200299F
:104160006DD100B5FFF754FF39683E600E46FFF78A
:1041700004FF00BD90410008300004656C736500C9
:1041800000B500F036F8FCF772FAFFF7E3FF00BD68
:10419000E641000830060269660000B5FFF789FFB6
:1041A00047F8046D4DF2000600BD00B5FCF727FA94
:1041B000FDF7F9FA816A002907D002B4FCF7BAF8D2
:1041C000FFF782FF47F8046D40BDFFF7A0FFFFF740
:1041D0001FFF47F8046D0226FFF7E0FB47F8046D68
:1041E0004DF2000600BD0042000830000561686520
:1041F000616400B5FFF768FF47F8046D052600BD50
:104200001A4200083000067265706561740000B5DE
:1042100000F05BF8FFF79EFF00BD5E42000830062D
:10422000057768696C6500B5FFF7B7FFFCF71FFA03
:1042300000BD00B5FFF7B9FFFCF719FA00BDFEF7A6
:10424000B7FD175374727563747572657320646F6C
:104250006E2774206D617463680A00F0C3BDBE42AE
:104260000008300605756E74696C012EE7D140CFE9
:1042700007E77047012EE2D140CF00B5FDF793FA72
:10428000816A00290DD002B4FCF754F8FFF71CFF37
:1042900039683E600E4647F8046D40BCFFF76DFE7E
:1042A00000BDFFF734FFFFF70FFF39683E600E4691
:1042B00047F8046D4DF20006FFF75FFE00BDD242E5
:1042C0000008300005616761696E012EB7D140CFEB
:1042D000E6E6FC420008300005626567696E00B5DD
:1042E000FFF7B4FE47F8046D012600BDD0FF072498
:1042F00001F8FFFF00F8FFFF1C0000241643000830
:104300002002016B47F8046D029E704747F8046D68
:1043100049F602060BE0444300082002016A47F810
:10432000046D009E704747F8046D49F6000600B51D
:10433000FBF7CBFFFCF79CF803601B021E43FFF763
:10434000BFFA00BD704300082002016947F8046D00
:104350002600704700B547F8046D40F22006FBF7D1
:10436000B4FFFCF785F803601E43FFF7A9FA00BD10
:10437000AE4300083000056C6561766500B5754890
:1043800001683B00043F1A68043B1A6008338B4203
:10439000F9D103B4FFF798FE03BC330040CF0439D2
:1043A0000B60016004390A6801320A6000BDC04335
:1043B0000008200006756E6C6F6F700030BC70478F
:1043C000F84300083000052B6C6F6F70032E00D08F
:1043D00035E740CF00B547F8046D5F4EFFF749F869
:1043E000FFF742FE1AE014F10044641BA41940CF09
:1043F0002C44A4F1004470473A4400083000046C97
:104400006F6F7000032E00D019E740CF00B547F85A
:10441000046D524EFFF72DF8FFF719FE00F04AF930
:104420004C48310040CF016047F8046D4C4EFFF717
:1044300020F800BD0134AC427047824400083002CD
:1044400002646F0000B547F8046D464EFFF711F89F
:104450004048016847F8046D0E0047F8046D0026D7
:104460000760FFF7F3FD47F8046D032600BD00B5B4
:1044700000F02FF8ECE730B4340040CF350040CFE7
:104480007047684500083002033F646F00B547F885
:10449000046D344EFEF7EDFF47F8046D44F2AC2690
:1044A000FFF70EFA2B48016847F8046D0E00FFF77E
:1044B0000BFE013647F8046D012626480760FFF71A
:1044C000C5FD47F8046D032600BD00B500F001F8F6
:1044D000E2E700B5FCF793F8FCF708F8FBF736FFC6
:1044E000FBF739FFFBF73CFF47F8046D4BF2304612
:1044F000FFF7E6F90168282908D047F8046D40F273
:104500000406C9000E43FFF7DBF907E047F8046D26
:10451000466847F8046D0426FEF762FE8168282984
:1045200008D047F8046D40F20506C9000E43FFF7B6
:10453000C7F907E047F8046DC66847F8046D05261B
:10454000FEF74EFEFBF7CBFEFBF7C9FEFBF712FFB3
:1045500000BD000004000024E643000834440008C5
:10456000BC43000876440008884500083000046316
:104570006173650000B5FCF742F847F8046D00264A
:1045800047F8046D082600BD9E4500083000033F33
:104590006F666B4809E0013EB64140CF70475C460C
:1045A00000083002026F66006648082E00D046E61A
:1045B00040CF00B547F8046D0600FEF75AFFFFF73D
:1045C00083FD39683E600E46013647F8046D0926C2
:1045D000FFF76CF900BD082E00D030E640CF00B5E3
:1045E000FBF784FFFBF7B2FEFBF7B5FEFBF7B8FE67
:1045F00047F8046D44F28026FBF7B4FF0E430268CF
:10460000282A1ED14268FF2A08D840CF47F8046DF7
:1046100042F60006164309020E4314E047F8046D03
:104620004668FEF729FD04CF002E40CF06D0464E47
:10463000164356EA0146FFF773F906E0FBF788FFD9
:104640000A00D2001643FFF73BF9FBF748FEFBF7E1
:1046500091FEB4E7300040CFB04270479246000868
:10466000300005656E646F66092E00D0E7E540CF27
:1046700000B540B440CFFFF727FD39683E600E46D5
:10468000FFF73BFD47F8046D40BC47F8046D082672
:1046900000BDDC460008300007656E646361736529
:1046A000082E00D0CBE540CF00B5FFF7FFF800F0B3
:1046B00001F800BD00B5300040CF00280DD003B494
:1046C00001213140002903D0013EFFF70CFD01E03C
:1046D000FFF703FD03BC0138EFE700BDF04600081B
:1046E000000005746F6B656E47F8046D202605E0C9
:1046F00054470008000005706172736510B51348D7
:1047000001684068124A12688418202E07D191422D
:104710000FD0835CB34202D101328418F7E7914293
:1047200007D0835C0132B342F9D18618361B013EB3
:1047300001E08618361B043F3C600548026010BD4E
:104740009645000854460008000FB0F1DCFF07242E
:10475000E4FF072492470008000005646967697454
:10476000CF4B1B68303E0BD30A2E0BD3073E0A2ECD
:1047700006D3242E06D3203E0A2E01D3242E01D3A5
:10478000002670479E42FBD247F8046D0026F64390
:1047900070479C4800080000066E756D62657200E7
:1047A0003FB5310040CF701E0126012204B4BC4B3E
:1047B0001B680024002500293CD001300139027813
:1047C0002D2A04D101B00022D24304B4F3E7232AF6
:1047D00001D10A23EFE7242A01D11023EBE7252A90
:1047E00001D10223E7E72E2A01D10226E3E72C2A92
:1047F00036D047F8046D1600FFF7B4FF002E40CF07
:104800002BD047F8046D260047F8046D2E0047F8BA
:10481000046D1E0047F8046D00260FB4FCF7F7F88E
:104820000FBC350040CF340040CF0022A4195541C1
:1048300040CFC0E704BC002A04D50022E443ED4386
:104840000134554133002600012B02D047F8046D96
:104850002E0047F8046D1E003FBD01B000263FBD8D
:104860002500002402260029E4D0425C01392E2ACA
:10487000F9D047F8046D1600FFF774FF002E40CF03
:10488000EBD0043F3C6047F8046D1E000FB4FCF70A
:104890006DF90FBC340040CF40CFE4E7BE480008BC
:1048A0000000062E6469676974000A2E01D2303652
:1048B0007047242E01D23736704723267047F448BC
:1048C0000008000004686F6C6400330040CF754836
:1048D000017843290DD2013101704018012907D018
:1048E0000138027801300270013801390129F7D10D
:1048F0000370704714490008000005686F6C643C41
:10490000330040CF67480178432902D2013101705A
:10491000435470472C4900080000047369676E0017
:10492000002E01D440CF70472D26CEE74049000825
:10493000000002233E005B48067801303860704773
:104940005849000800000366235310B5202400F0E6
:1049500008F8013CFBD110BD7A490008000002664E
:10496000230000B547F8046D4D4E3668FCF711F88A
:10497000FFF79BFFFFF7C4FF00BD9649000800004A
:104980000223530000B500F00AF8002EFBD138686E
:104990000028F8D100BDC24900080000012300B57D
:1049A00047F8046D3E4E366847F8046D0026FCF764
:1049B000FCF8FBF75CFE40CFFFF777FFFFF785FFC2
:1049C00000BDD44900080000023C23003548002106
:1049D00001707047E6490008000002662E0047F8A3
:1049E000046D202604E0344A0008000003662E6EA1
:1049F00000B510B4340040CFFCF7F4FAFBF74EFFDB
:104A000047F8046D0026FFF7E1FFFFF7BBFF40CF3B
:104A10002C26FFF775FF002C03D0FFF7A2FF013C07
:104A2000FBD110BC40CFFFF77BFF47F8046D47F880
:104A3000046D1CE04A4A000800000375642E00B5AE
:104A4000FFF7C4FFFFF79EFF11E07C4A000800005B
:104A500002642E0000B5FCF7C5FAFBF71FFFFFF755
:104A6000B5FFFFF78FFFFCF7CFFAFFF759FFFFF70E
:104A700062FFFEF7F1F9FEF74AF900BD8E4A000821
:104A8000000002752E0047F8046D0026D7E76C4C35
:104A900000080000012E47F8046DF617DAE7000061
:104AA000FCFF07247C00002430B54FF0105425682B
:104AB000002D01D13D00256030BD30B54FF01054C0
:104AC0003D00256030BD30B54FF010540025256005
:104AD00030BD4FF010531B68DB1B9B08704700B5BF
:104AE000310040CF4FF48050084002D000F0A6F8CB
:104AF00000BD4FF48060084001D1FCF70DFE32008C
:104B000040CFFFF7D1FF4FF40050084003D047F8E3
:104B1000046D160000BDFFF7DCFF8020084006D1C1
:104B20004020084009D00F200840834205D347F8B1
:104B3000046D1600FEF751FD00BD4FF400700840F3
:104B400014D0FBF764FB47F8046D160047F8046DBA
:104B50000E0000F031F81000FEF7A2FC421CB34832
:104B60009047FFF7AAFFFBF761FB00BDFBF74FFB88
:104B700047F8046D160047F8046D0E0000F01CF8AD
:104B8000FBF7D8FBFFF79FFF4FF40060084001D10F
:104B9000FBF735FD47F8046D160010220A4002D0DD
:104BA000FEF71BFD00BD20220A4002D0FEF761FC8B
:104BB00000BDFEF772FB00BD0FB5320040CF3300E1
:104BC00040CF9B480168062907D2062041439948F7
:104BD000401803801B0C4380828095480168013196
:104BE00001600FBD0FB59248016806291FD8914892
:104BF00001391DD047F8046D0E00FEF761FE47F83D
:104C0000046D0688FEF75CFE47F8046D4688FEF7E3
:104C100057FE47F8046D8688FEF752FE06300139CC
:104C2000EDD147F8046D41F20006FEF7EBFD0FBD34
:104C300047F8046D4026FEF7E5FD0FBD00B53000D6
:104C400040CFFEF72DFC0188023047F8046D06883E
:104C500042881204164347F8046D868803B4FFF7B0
:104C60003EFF03BC06300139EFD100BDB44C000853
:104C70000000086576616C756174650000B5FDF72C
:104C8000E4FF01CF01B440B440CF6B48016802B4E7
:104C900000210160FDF7CCFF00F014F8664802BC6B
:104CA000016047F8046D40BC01BC043F3860FDF76B
:104CB000BFFF00BDBC4D0008000009696E7465723D
:104CC0007072657400B55D4887420BD9FEF770F8C5
:104CD00010537461636B20756E646572666C6F77D8
:104CE0000A007FE0564887420AD2FEF761F80F5368
:104CF0007461636B206F766572666C6F770A71E022
:104D0000FFF7D2FEFFF7F0FC002E02D1043740CFB0
:104D100000BD386847F8046D043F3860FFF7C1F8FC
:104D2000310040CF320040CF002A1BD1386831001B
:104D3000FCF7F2FCFFF734FD320040CF002AC2D16D
:104D400047F8046D060047F8046D0E00FEF784F87E
:104D5000FEF72EF80C206E6F7420666F756E642E51
:104D60000A003FE0374B1B68002B1CD1FFF7ABFE5E
:104D700030230B40302B0ED1FEF76EF8FEF718F8FB
:104D80001220697320636F6D70696C652D6F6E6C96
:104D9000792E0A0026E0043740CF47F8046D16004C
:104DA000FEF71BFC8FE7043740CF47F8046D160071
:104DB00047F8046D0E00FFF792FE84E7D84D000817
:104DC000810009686F6F6B2D7175697447F8046D08
:104DD0001D4E7047164E00085C4E0008000004711E
:104DE00075697400DFF864D0144FFDF7BDF91848F9
:104DF0000A2101601348002101604FF0105001604A
:104E0000FBF7DFFA0C48016012480160124941606B
:104E10000D4800688746FDF726FFFFF753FFFDF7B3
:104E2000C7FF05206F6B2E0AF5E700002000002465
:104E30005400002458000024E4FF072488020024C2
:104E400088010024D8FF0724C8FF07248803002412
:104E5000FCFF0724DCFF0724C0000024764E000876
:104E600000000565696E743F47F8046DEFF3108626
:104E7000013EB6417047864E000820000465696E09
:104E8000740062B67047964E000820000464696E94
:104E9000740072B67047AC4E00082000046970734D
:104EA000720047F8046DEFF305867047B84E0008AE
:104EB0000000036E6F707047FA4E0008000009751D
:104EC0006E68616E646C656400B5FDF771FF145522
:104ED0006E68616E646C656420496E74657272758B
:104EE0007074200047F8046DEFF30586FDF7C8FFE6
:104EF000FDF75EFF02210A0000BD0C4F0008000014
:104F0000057265736574C848C8490160364F00086A
:104F100081000B6972712D7379737469636B47F843
:104F2000046DC34E7047C84E00084FF6C470C2F2FD
:104F30000740006887465E4F00088100096972716A
:104F40002D6661756C7447F8046DBA4E7047C84E93
:104F500000084FF6C070C2F20740006887468C4FC9
:104F6000000881000E6972712D636F6C6C6563744B
:104F7000696F6E0047F8046DAF4E7047C84E000869
:104F80004FF6BC70C2F2074000688746B44F000875
:104F90008100096972712D657874693047F8046D74
:104FA000A64E7047C84E00084FF6B870C2F20740D0
:104FB00000688746DC4F00088100096972712D6521
:104FC0007874693147F8046D9D4E7047C84E0008EB
:104FD0004FF6B470C2F207400068874604500008DC
:104FE0008100096972712D657874693247F8046D22
:104FF000944E7047C84E00084FF6B070C2F207409A
:10500000006887462C5000088100096972712D657F
:105010007874693347F8046D8B4E7047C84E0008AA
:105020004FF6AC70C2F20740006887465450000843
:105030008100096972712D657874693447F8046DCF
:10504000824E7047C84E00084FF6A870C2F2074063
:10505000006887467A5000088100076972712D61E7
:10506000646347F8046D7A4E7047C84E00084FF6E7
:10507000A470C2F2074000688746A2500008810071
:10508000086972712D74696D320047F8046D714EB4
:105090007047C84E00084FF6A070C2F20740006883
:1050A0008746CA5000088100086972712D74696DC5
:1050B000330047F8046D684E7047C84E00084FF63D
:1050C0009C70C2F2074000688746F25000088100D9
:1050D000086972712D74696D340047F8046D5F4E74
:1050E0007047C84E00084FF69870C2F2074000683B
:1050F00087461C800008FFFF182D2D2D20466C616F
:1051000073682044696374696F6E617279202D2D14
:105110002D00FDF7BBFB52488546524F2A2647F823
:10512000046D514E514DB1884FF6FF73994225D011
:105130004FF480730B400AD0B01DFEF7A3FEFEF7BC
:10514000AFF90388408800040343ED1A16E080237A
:105150000B4013D00F23194089006D1AB01DFEF7C4
:1051600091FEFEF79DF947F8046D060047F8046DBF
:105170002E0047F8046D0E00FCF794FBFEF74DFE81
:10518000300040CFCFD03A48066040CF3948056064
:105190004FF0016038494FF6FF72884204D0023860
:1051A00003889342F9D0023034490860FCF7DCFFF1
:1051B000FDF7FEFD414D6563726973702D53746593
:1051C0006C6C6172697320524120322E362E35206C
:1051D000666F722053544D333248373435204E7544
:1051E000636C656F206279204D61747468696173C6
:1051F000204B6F63680A4FF0105000210160FBF7ED
:10520000E0F847F8046D1E4E47F8046D0426FEF7DB
:1052100048FE40CF002E02D0FEF7DFF9F8E540CF80
:10522000E0E5696E697400000CED00E00400FA0529
:10523000C4FF0724C0FF0724BCFF0724B8FF0724CE
:10524000B4FF0724B0FF0724ACFF0724A8FF0724FE
:10525000A4FF0724A0FF07249CFF072498FF07242E
:105260008803002488020024E401000800000824C8
:10527000140000241C0000240080000810000024FA
:0452800022520008AE
:0400000508000000EF
:00000001FF
