:020000040800F2
:10000000880300241F5100085F4F00085F4F00085D
:100010005F4F00085F4F00085F4F000800000000BE
:100020000000000000000000000000008D4F0008EC
:100030008D4F0008000000008D4F0008374F00086A
:100040008D4F00088D4F00088D4F00088D4F000820
:100050008D4F00088D4F0008B54F0008DD4F000898
:10006000055000082D500008555000088D4F00081D
:100070008D4F00088D4F00088D4F00088D4F0008F0
:100080008D4F00088D4F00087B5000088D4F0008F1
:100090008D4F00088D4F00088D4F00088D4F0008D0
:1000A0008D4F00088D4F00088D4F00088D4F0008C0
:1000B000A3500008CB500008F35000088D4F0008F3
:1000C0008D4F00088D4F00088D4F00088D4F0008A0
:1000D0008D4F00088D4F00088D4F00088D4F000890
:1000E0008D4F00088D4F00088D4F00088D4F000880
:1000F0008D4F00088D4F00088D4F00088D4F000870
:100100008D4F00088D4F00088D4F00088D4F00085F
:100110008D4F00088D4F00088D4F00088D4F00084F
:100120008D4F00088D4F00088D4F00088D4F00083F
:100130008D4F00088D4F00088D4F00088D4F00082F
:100140008D4F00088D4F00088D4F00088D4F00081F
:100150008D4F00088D4F00088D4F00088D4F00080F
:100160008D4F00088D4F00088D4F00088D4F0008FF
:100170008D4F00088D4F00088D4F00088D4F0008EF
:100180008D4F00088D4F00088D4F00088D4F0008DF
:100190008D4F00088D4F00088D4F00088D4F0008CF
:1001A0008D4F00088D4F00088D4F00088D4F0008BF
:1001B0008D4F00088D4F00088D4F00088D4F0008AF
:1001C0008D4F00088D4F00088D4F00088D4F00089F
:1001D0008D4F00088D4F00088D4F00088D4F00088F
:1001E0008D4F000820060008FFFF222D2D2D204DE9
:1001F0006563726973702D5374656C6C6172697399
:1002000020524120322E362E35202D2D2D0007B5BF
:100210009048002B09D000F03DF800F043F800F0C2
:1002200028F8426028210160F3E707BD00B589483E
:1002300000230168282905D1426800F004F800F085
:100240004EF8F6E700BD03B547F8046D160047F811
:10025000046D1E0008B400F09FFF08BC013347F88E
:10026000046D7D4E47F8046D40F2612604F0AAFC4F
:1002700003BD03B5013B47F8046D1E0008B400F050
:1002800075FF08BC320047F8046D4FF4005604F0C7
:1002900099FC03BD03B5714801681E2901D000F027
:1002A00034F803BD8169016201698161816801617E
:1002B00001688160C16941624169C161C168416190
:1002C0004168C1601E21016070470FB56148016837
:1002D0001E2903D0FFF7DEFFFFF7E4FF0FBD02B5D5
:1002E00081680160C168416000E002B50169816018
:1002F0004169C16081690161C1694161016A8161CE
:10030000416AC1611E21016202BD08B501681E2259
:100310000260082901D20B0004E0282909D14368B2
:1003200000F05BF847F8046D4D4E56EA033603F0D3
:1003300003FB08BD00B500F009F800F00CF800F070
:100340000FF800F012F800F015F800BD0FB54348A3
:10035000FFF7DBFF0FBD0FB54248FFF7D6FF0FBD1C
:100360000FB54148FFF7D1FF0FBD0FB53F48FFF76D
:10037000CCFF0FBD0FB537480168062202601E2969
:1003800006D147F8046D4CF6407603F0A5FA15E067
:10039000282909D1436847F8046D1E0047F8046D09
:1003A000062602F05BFF09E0062907D047F8046D36
:1003B00044F20666C9000E4303F08EFA00F001F81D
:1003C0000FBD24481E210162816101618160C1620B
:1003D0000621016000218162704707B547F8046D6E
:1003E0001E0000F045F847F8046D1E0002F036FFCD
:1003F00007BD07B5C16A282904D1016B994201D113
:10040000002307BD0168002918D08168002915D094
:100410000169002912D0816900290FD0016A0029E1
:100420000CD0036347F8046D1E0047F8046D0026E6
:1004300002F014FF2821C162002307BD47F8046DB4
:100440001E0000F015F847F8046D1E0002F006FFCC
:1004500007BD000020000024200F000840000024F9
:10046000040D47F838000024300000242800002440
:1004700037B536480168826803698469056A0620D1
:1004800000F00EF8032000F00BF8022000F008F84E
:10049000012000F005F800232C481E21C16237BD61
:1004A000814209D0824207D0834205D0844203D0E2
:1004B000854201D0030037BD704747F8046D4CF604
:1004C000007600B581581E2905D1FFF7D1FF835072
:1004D000012199400E4300BD00B501681E2904D1D9
:1004E0000022FFF7EAFF03F0F7F900BD00B58168CD
:1004F0001E2907D10822FFF7E0FF0022FFF7E1FFE6
:1005000003F0EAF900BD00B501691E290AD11022E5
:10051000FFF7D3FF0822FFF7D4FF0022FFF7D1FF38
:1005200003F0DAF900BD00B581691E290DD118224A
:10053000FFF7C3FF1022FFF7C4FF0822FFF7C1FF38
:100540000022FFF7BEFF03F0C7F900BD2000002422
:1005500000B50168282904D14368FFF73EFF036016
:10056000190000BD00B58168282904D1C368FFF7D0
:1005700034FF8360190000BD00B50169282904D14A
:100580004369FFF72AFF0361190000BD3EB5826889
:1005900003698469056A9A4203D0A24201D0AA4243
:1005A0000AD1072A08D847F8046DD600FFF760FF84
:1005B0001E43836003F090F93EBD3EB5016882683A
:1005C00003698469056A914206D0994204D0A14228
:1005D00002D0A94200D03EBD47F8046DCE00FFF71F
:1005E00047FF1E43036003F077F93EBD00B5FFF7F8
:1005F00076FEFFF76AFEFFF73BFF036000BD01B523
:1006000006480368013308D00023DB43036047F842
:10061000046D4BF2005603F05FF901BDD8FF0724CB
:10062000440600084202043264757000386847F8D6
:10063000046D043F3860704700B500F0C3FC00F063
:10064000C1FC00BD620600086202053264726F7070
:10065000043740CF704700B500F064FC00F062FC46
:1006600000BDA8060008440205327377617007CF09
:10067000043F386047F8046D043F3A600E0070474D
:1006800000B5FFF750FF026803690360026142682A
:100690004369436042618268836983608261C268A2
:1006A000C369C360C26100BDD006000862020432A3
:1006B0006E69700007CF043F3860704700B5FFF7E0
:1006C00032FFFFF7DDFFFFF70AFEFFF708FE00BD70
:1006D000EA060008440005326F766572B86847F88C
:1006E000046D043F3860FE6870470E070008440040
:1006F00005327475636B07CF043F386047F8046DAB
:10070000043F3A60043F3960043F38607047300767
:10071000000846000432726F74003868B9683A699C
:10072000B86039613A6079687E60FE68F960704748
:1007300052070008460005322D726F743868B96898
:100740003A6938613960BA60F968FE607E6879603C
:1007500070477A070008200203323E7201CF01B4CD
:1007600040B440CF704700B5FFF749FF00F0FDFBF4
:1007700000F09DFC00F09BFC00BDA60700082002D5
:100780000332723E47F8046D40BC01BC043F386040
:10079000704700B5FFF733FF00F0A5FC00F0A3FCA5
:1007A00000F0E3FB00BDD6070008200203327240D0
:1007B00047F8046D019E47F8046D009E704700B530
:1007C000FFF71DFF47F8046D49F6010603F0B5FD7C
:1007D00003F0AFFD00BDFC07000820020632726482
:1007E000726F700002B0704700B5FFF708FF47F85E
:1007F000046D4BF2020603F06FF800BD1408000808
:1008000042000364322F3868F1077610400808432D
:10081000386070472A08000862020364322A386888
:10082000001876413860704717E04408000842001D
:100830000464736872003868F1077608400808435A
:1008400038607047900800086202046473686C00A6
:100850003868001876413860704700B5FFF746FEEB
:10086000FFF776FEFFF7A9FE00F07FFBFFF770FEB3
:10087000FFF7A3FE47F8046D402601F043FE00F0A9
:1008800074FB47F8046D44F2401601F03BFE00BDD6
:10089000A20800084200046461627300002E07D4BD
:1008A0007047C0080008420007646E6567617465A0
:1008B00038680021C043F64301304E41386070472C
:1008C00010090008640202642D0007CF121AB1411A
:1008D0000E00043F3A60704700B5FFF724FE00F0B9
:1008E00099FBFFF735FEFFF768FE00F03EFBFFF7D0
:1008F0002FFEFFF762FEFFF7C3FE01F06DFD00F073
:10090000A5FB47F8046D44F2801600F04EFD00BDD3
:100910005E090008640202642B0007CF12184E41E2
:10092000043F3A60704700B5FFF7FDFD00F072FB31
:10093000FFF70EFEFFF741FE00F017FBFFF708FE82
:10094000FFF73BFEFFF79CFE01F02BFD00F07EFB66
:1009500047F8046D44F2401600F02BFD00BD8809F5
:100960000008610203733E6447F8046DF617704790
:1009700000B500F0C5FAFFF720FE47F8046D41F21C
:10098000C07601F0BFFD00BDE609000862020375F4
:100990006D2A3868A0FB06063860704747F8046D7A
:1009A000DFF8006500B5FFF7A1FDFFF7D1FDFFF708
:1009B000D9FD01680E43816856EA0146FFF78FFCB6
:1009C000FFF78DFCFFF781FCFFF752FD036056EA4D
:1009D0000336FFF77AFCFFF74BFD036056EA032668
:1009E00002F0AAFF00BD040A00086202026D2A009C
:1009F000386880FB06063860704747F8046DDFF8FA
:100A0000A864CFE7420A000844000375642A07CFB0
:100A1000564341437618010C130C59437618010CC8
:100A200080B292B25143434350430022C91852410D
:100A30001204B6180A04090C80184E41043F3860AD
:100A40007047D40A000844000475646D2A0010B58C
:100A5000002447F8046D7E6847F8046D3E69FFF78F
:100A600098FF310040CF300040CF47F8046D3E681A
:100A700047F8046DFE6803B4FFF78BFF03BC330037
:100A800040CF320040CF47F8046D3E6847F8046D10
:100A90003E690FB4FFF77DFF0FBC9219634140CF51
:100AA00089196241634140CF47F8046D7E6847F879
:100AB000046DFE680FB4FFF76CFF0FBC9219634121
:100AC00040CF89196241634140CF1E003A6079608E
:100AD000B86010BDF60A00084300022A2F0000B5D6
:100AE00040B440CFFFF784FF47F8046D40BC00F0EE
:100AF0004CF8043700BD180B00084300052A2F6D81
:100B00006F6400B540B440CFFFF772FF47F8046D43
:100B100040BC00F03AF800BD3A0B000843000375F2
:100B20002A2F00B540B440CFFFF733FF47F8046DDC
:100B300040BC00F01BF8043700BD5E0B000843000A
:100B400006752A2F6D6F640000B540B440CFFFF7E3
:100B500020FF47F8046D40BC00F008F800BD7E0B94
:100B60000008430006756D2F6D6F640000B547F8EF
:100B7000046D002600F019F840CF043700BD9C0B2F
:100B800000084300056D2F6D6F6400B547F8046DD4
:100B9000F61700F032F840CF043700BDEE0B000826
:100BA00044000675642F6D6F640030B4002300228A
:100BB0007968B86835003C68402640004941524198
:100BC0005B41AB4202D804D3A24202D3121BAB4119
:100BD0000130013EF1D10E0038607B60BA6030BC5C
:100BE000704730B400237A68B9680020E2E7640CEB
:100BF0000008440005642F6D6F6400B5F01719D02C
:100C0000FFF756FEFFF733FDF0170CD0FFF750FE4D
:100C1000FFF72DFDFFF7C9FFFFF729FDFFF748FE9E
:100C2000FFF725FD00BDFFF722FDFFF7BEFFFFF731
:100C30003FFE00BDFFF71BFDF0170ED0FFF738FE9B
:100C4000FFF715FDFFF7B1FFFFF732FEFFF70FFDCE
:100C5000FFF72EFEFFF70BFD00BDFFF708FDFFF7C6
:100C6000A4FF00BD7A0C0008440002642F0000B508
:100C7000FFF7C3FFFFF71EFD00BDC20C00084400D4
:100C800002662A0000B5F0170DD0FFF711FEFFF73E
:100C9000EEFCF0170DD0FFF70BFEFFF7D8FE40CFAC
:100CA00001CF386000BDFFF7E2FCF017F5D0FFF789
:100CB000FFFDFFF7CCFE40CF01CF3860FFF7F8FD16
:100CC00000BD0E0D0008440002662F0000B5F017AD
:100CD0000ED0FFF7EDFDFFF7CAFCF0170ED0FFF7BF
:100CE000E7FDFFF7C4FCFFF77CFFFFF7E3FC00BD67
:100CF000FFF7BDFCF017F4D0FFF7DAFDFFF7B7FC04
:100D0000FFF76FFFFFF7D4FDFFF7D4FC00BD560DD2
:100D1000000820020232210006CF3160726040CF0D
:100D2000704700B5FFF7EFFB0168426806B400F0BA
:100D30000CFEFFF7CAFA06BC0160282906D047F866
:100D4000046D46F2400600F004FE00BD043242602D
:100D500000F0FBFD00BDA00D0008200202324000A3
:100D6000043F706838603668704700B500F0C8F816
:100D7000016828290AD047F8046D46F6400600F0BD
:100D8000C5FD00F0F2F800F0BDFD00BD4168043182
:100D9000416000F0B7FD00F0E8F800F0B3FD00BDE1
:100DA000B40D000844000364753C07CF121AB1412A
:100DB000B6417047C80D000844000364753E07CF74
:100DC000801A8E41B6417047DE0D0008440002646F
:100DD0003C0007CF121AB1410CDB00267047FA0D18
:100DE0000008440002643E0007CF801A8E4101DBF8
:100DF000002670470026F6437047160E0008620270
:100E00000364303C0437F617704700B500F0C0F8B3
:100E100000F058FB00BD3E0E000862020364303D46
:100E200001CF0643013EB641704700B547F8046D57
:100E300044F2003600F0BDFA00F01EFB00BD640E67
:100E40000008440203643C3E07CF50404E40064336
:100E5000013EB641F643704700B500F015F800F0CA
:100E60001FFB00BDAC0E0008440202643D0007CF2A
:100E700050404E400643013EB641704700B500F079
:100E800003F800F0F9FA00BD00B5FFF74CFB00F0E5
:100E9000C1F800F0C3F900F0D9F800F0BFF900F094
:100EA000B0F900BD0000A0FB000080FBBE0E0008F2
:100EB00020000373704047F8046D3E007047CE0E6B
:100EC0000008200003737021370040CF7047E00E08
:100ED000000820000372704047F8046D6E467047AA
:100EE000F00E0008200003727021B54640CF704715
:100EF000140F000861020364757047F8046D7047B1
:100F000006B5FFF7E9FA01684268FFF7DEF901600C
:100F1000426006BD400F000861020464726F7000F9
:100F200040CF704700B501681E2906D147F8046D0F
:100F300043F2047602F0D0FC00BDFFF7D0F900BD0B
:100F4000560F00086100043F64757000002E01D048
:100F500047F8046D7047820F0008620204737761DE
:100F6000700039683E600E0070470CB5FFF7BEFA9E
:100F700002688368036082604268C3684360C2603D
:100F80000CBDB00F00086202036E69700437704731
:100F900000B5FFF7A1FA81681E2902D0FFF7A5F975
:100FA00000BD47F8046D43F2047602F095FC00BDE5
:100FB000D80F00086202046F7665720047F8046D6E
:100FC0007E68704700B5FFF791FA8168C268FFF745
:100FD0007CF90160426000BDFE0F000862020474EB
:100FE00075636B0001CF083F7E603860704700B5C5
:100FF000FFF77CFAFFF784FF00F028F800BD3410FB
:101000000008630203726F7403CF083F78603E608C
:101010000E0070470EB5FFF776FA01688268036923
:101020008160026103604168C2684369C1604261D6
:1010300043600EBD581000086302042D726F7400E7
:1010400003CF083F7E6039600600704700B5FFF7A8
:10105000E1FFFFF7DFFF00BD6A1000082000047009
:1010600069636B0057F82660704782100008000023
:101070000564657074684F49C91B47F8046D8E108C
:1010800070479E1000080000067264657074680066
:1010900047F8046D6E464849891B8E107047D4107E
:1010A00000082002023E720040B440CF704700B5F5
:1010B000FFF7A5FAFFF710FAFFF74AFA47F8046DB1
:1010C0004BF2004601228A40164302F005FCFFF76E
:1010D00006F900BD0A110008200202723E0047F81E
:1010E000046D40BC704700B5FFF789FAFFF7EDF8D3
:1010F000FFF7BEF9036047F8046D4BF60046012286
:101100009A40164302F0E8FB00BD281100082002B7
:101110000272400047F8046D009E704700B5FFF76B
:101120006EFA03F006F900BD4C11000820020572AA
:1011300064726F7001B0704700B5FFF760FA47F84E
:10114000046D4BF2010602F0C7FB00BD6011000800
:10115000200005727069636BB6006E443668704794
:101160008C110008000004726F6C6C00002E01D11D
:1011700040CF7047B0003958C019031F1A68026089
:101180000438013EF9D104370E007047BC11000845
:101190000000052D726F6C6C002E01D140CF70479E
:1011A000386839464A680A600431013EFAD108605D
:1011B00040CF70478802002488030024D61100081D
:1011C000620203616E6401CF0640704747F8046D08
:1011D00044F20006EDE0F211000862020362696366
:1011E00001CFB0430600704747F8046D44F28036E3
:1011F000DBE00C1200086202026F720001CF0643AE
:10120000704747F8046D44F20036D2E02612000819
:10121000620203786F7201CF4640704747F8046D51
:1012200044F24006C5E03E1200086202012A01CFE6
:101230004643704747F8046D44F24036B9E07212F5
:101240000008610203636C7AB6FA86F6704700B54F
:10125000FFF742F947F8046D7E4EFFF779F90E4328
:1012600056EA0146FFF7C2F956EA032602F064FB8C
:1012700000BD90120008611803726F720120C64110
:1012800070470200010000000020BC12000862024A
:10129000AE120008611803726F6C1F20C6417047C0
:1012A00002001F0000000020BC1200086202CE12E3
:1012B000000862020772726F7461746501CFF041B9
:1012C0000600704747F8046D44F2C0166DE006133F
:1012D00000086202076172736869667401CF304169
:1012E0000600704700B547F8046D44F2001647F851
:1012F000046D41F20006FFF7F9F841681F292AD969
:101300001F21416027E030130008620206727368F3
:101310006966740001CFF0400600704700B547F8D9
:10132000046D44F2C00647F8046D40F6000612E072
:10133000681400086202066C73686966740001CF65
:10134000B0400600704700B547F8046D44F28006CF
:1013500047F8046D0026FFF7C9F80168282903D073
:1013600040CF00F022F800BD04374168FEF7B7FF18
:10137000002901D140CF00BD1F290AD889010E43A1
:101380000268D2001643FFF731F91E4302F0A4FAB7
:1013900000BD40CFFFF72AF947F8046D42F200067E
:1013A0001B021E4302F098FA00BD0FB5FFF79EF82E
:1013B0000CE00FB5FFF79AF80168062901D1FFF795
:1013C000D4FD8268282A01D1FFF7CFFDFFF7CAF8C4
:1013D000016828291ED147F8046D466801F08AFE8D
:1013E00002CF002E40CF15D0B6F5804F01D11A4E56
:1013F0001EE044F24002964201D1184E18E0B6F5C4
:10140000864F01D1164E13E04FF48742964201D128
:10141000144E0DE0FFF7BAF8FFF79AF8C90082689A
:101420000E43164302F058FAFEF759FF0FBD0FB5F1
:101430000E43816856EA0146FEF751FFFEF74FFF63
:10144000FEF743FFFFF714F8036056EA032602F0A5
:1014500073FA0FBD80F0B0FA000010F0000090F0B9
:10146000000050F0000030F08E14000861020230DD
:101470003D00013EB641704700B500F0FBF800F0BA
:10148000FEFFFEF72CFF4FF45241816200BDB614FF
:101490000008610203303C3E013EB641F64370470E
:1014A00000B500F0E7F800F0EAFFFEF718FF4FF490
:1014B0005341816200BDDE140008610202303C002D
:1014C000F617704700B500F0D5F847F8046D41F203
:1014D000C07601F017F84FF45541816200BDF41455
:1014E0000008600004747275650047F8046D0026FA
:1014F000F64370470815000860000566616C736567
:1015000047F8046D002670472E1500084202023E7F
:101510003D0001CFB042EADA0026704747F8046D7B
:101520004DF6003647F8046D4DF60026AEE0541532
:1015300000084202023C3D0001CFB042D7DD002648
:10154000704747F8046D4DF6004647F8046D4DF6B8
:1015500000569BE0781500084202013C01CFB042E2
:10156000C5DB0026704747F8046D4DF6002647F8A6
:10157000046D4DF6003689E09C1500084202013EDC
:1015800001CFB042B3DC0026704747F8046D4DF63A
:10159000005647F8046D4DF6004677E0C215000886
:1015A000620203753E3D01CF861BB641F64370478C
:1015B00047F8046D4DF2003647F8046D4DF20026F1
:1015C00064E0E8150008620203753C3D01CF361A5D
:1015D000B641F643704747F8046D4DF6000647F8EC
:1015E000046D4DF6001651E00C16000862020275FB
:1015F0003C0001CF861BB641704747F8046D4DF2A1
:10160000002647F8046D4DF200363FE03016000822
:10161000620202753E0001CF361AB641704747F8A4
:10162000046D4DF6001647F8046D4DF600062DE0EA
:10163000541600086202023C3E0001CF361A013EF9
:10164000B641F643704747F8046D4DF2000647F87F
:10165000046D1BE0B61700086202013D01CF361A87
:10166000013EB641704747F8046D4DF2001647F849
:10167000046D0BE000B5FEF72FFFFEF767FEFEF7E7
:101680006AFEFEF76DFEFEF76DFF00BD00B5FEF7CA
:101690002DFFFEF75BFEFEF75EFEFEF76DFF826834
:1016A000282A05D1FFF761FC39683E600E46826842
:1016B00040CF016828291DD14168FF2907D847F884
:1016C000046D42F600060E43816809021AE047F8ED
:1016D000046D466801F00EFD02CF002E40CF09D008
:1016E00047F8046D6A4E0E43816856EA014602F0DF
:1016F00023F90AE0FEF72CFF47F8046D44F2802638
:10170000C90016430E4302F0E7F8FEF7E8FDFEF7C6
:10171000E6FD866240CF00BD0FB55E48816A0029B4
:1017200035D047F8046D866A00218162310AD529D7
:1017300001D140CF0FBDFEF7C8FDFEF799FE036053
:10174000D22904D14FF4834600F0DCFE0FBDD3292B
:1017500006D14FF4834600F0D5FE00F0E6FE0FBD43
:10176000023602F0B9F847F8046D42F2000600F0C4
:101770000FF800F0DAFE47F8046D4EF2000602F0B2
:10178000ABF847F8046D42F2000600F001F80FBD17
:1017900000B5FEF7A1FEFEF710FF016809020E4337
:1017A00002F09AF800BD00B5816A090AD52901D175
:1017B000FEF795FD00BDD41700086202036D696E47
:1017C00001CFB04200DC0600704747F8046D4DF6CB
:1017D00000362DE0F21700086202036D617801CF38
:1017E000B04200DB0600704747F8046D4DF6004636
:1017F0001EE012180008620204756D61780001CFC6
:10180000B04200D30600704747F8046D4DF600065D
:101810000EE098180008620204756D696E0001CF31
:10182000B04200D80600704747F8046D4DF200360C
:1018300000B5FEF75BFE01688268914203D140CF9C
:10184000FEF753FD00BD062A01D1FFF78EFB0168AC
:10185000282901D1FFF789FBFEF7AFFEFEF782FED4
:10186000C900026847F8046D44F280260E4316430F
:1018700002F032F802F030F847F8046D44F20066E6
:101880000E43164302F028F8FEF72FFD00BD0000BE
:10189000000FB0F120000024D61800080000046DED
:1018A0006F76650007B5310040CF320040CF002988
:1018B0000FD0B2420DD006D3013E013A705C5054B5
:1018C0000139FBD105E03078107001360132013961
:1018D000F9D140CF07BDF818000800000466696C14
:1018E0006C00300040CF310040CF002902D00139D8
:1018F0007054FCD140CF70473A19000820020140D3
:101900003668704747F8046D46F6000600B5FEF7E6
:10191000E3FD0368282B08D143687C2119400901A5
:101920000E437C218B43FEF764FDDB001E43FEF774
:101930005DFE1E4301F0D0FF00BD92190008200299
:10194000012103CF30600E00704747F8046D46F266
:10195000000600B5FEF7CAFD0368282B09D14368CD
:101960007C21194009010E437C218B43FEF741FD88
:101970000360DB001E438368282B02D1C368FEF797
:101980002CFD1E4301F0A8FFFEF7A9FCFEF7A7FC03
:1019900000BDC81900082002022B210003CF3268C5
:1019A000121832600E00704700B5FEF79FFDFFF77A
:1019B000A7FAFFF7A7FFFFF72DFB00F0F2FCFFF7F8
:1019C000D4FAFFF7C2FF00BD0C1A0008200202681B
:1019D00040003688704700B5FEF77EFD47F8046D7D
:1019E00048F600060368282B08D143683E211940B9
:1019F00049010E433E218B43FEF7FBFCDB001E43F7
:101A0000FEF7F4FD1E4301F067FF00BD661A0008F3
:101A100020020268210003CF30800E00704700B51D
:101A2000FEF764FD47F8046D48F200060368282BB2
:101A300009D143683E21194049010E433E218B43A1
:101A4000FEF7D7FC0360DB001E438368282B02D11E
:101A5000C368FEF7C2FC1E4301F03EFFFEF73FFCE9
:101A6000FEF73DFC00BD9C1A0008200203682B21F4
:101A700003CF3288121832800E00704700B5FEF78F
:101A800035FDFFF73DFAFFF7A6FFFFF7C3FA00F0B9
:101A900088FCFFF76AFAFFF7C2FF00BDE01A0008F2
:101AA0002002026340003678704700B5FEF714FD4F
:101AB00047F8046D47F600060368282B08D14368F1
:101AC0001F21194089010E431F218B43FEF791FC12
:101AD000DB001E43FEF78AFD1E4301F0FDFE00BD44
:101AE0003A1B000820020263210003CF30700E0071
:101AF000704700B5FEF7FAFC47F8046D47F20006A0
:101B00000368282B09D143681F21194089010E431E
:101B10001F218B43FEF76DFC0360DB001E438368CF
:101B2000282B02D1C368FEF758FC1E4301F0D4FEF7
:101B3000FEF7D5FBFEF7D3FB00BD701B00082002AB
:101B400003632B2103CF3278121832700E007047D6
:101B500000B5FEF7CBFCFFF7D3F9FFF7A6FFFFF7C1
:101B600059FA00F01EFCFFF700FAFFF7C2FF00BDB4
:101B7000941B0008200204626973210003CF3268BD
:101B8000024332600E00704700B547F8046D44F21E
:101B9000003630E0D41B0008200204626963210093
:101BA00003CF3268824332600E00704700B5FEF703
:101BB0009DFCFFF7A5F9FFF7A5FEFFF72BFA47F805
:101BC000046D44F28036FFF7F0FBFFF7CEF9FFF724
:101BD000BCFE00BD141C0008200204786F722100B6
:101BE00003CF3268424032600E00704700B547F8BC
:101BF000046D44F24006FEF779FCFFF781F9FFF728
:101C000081FEFFF707FAFFF7D4FBFFF7AEF9FFF706
:101C10009CFE00BD4A1C000820020462697440005A
:101C200001CF3668064018BF4FF0FF36704700B549
:101C3000FEF75CFCFFF766FE47F8046D44F2000611
:101C4000FFF7B7FBFFF72CFC00BD6E1C000820025D
:101C500005686269732103CF3288024332800E0027
:101C6000704700B547F8046D44F2003630E0AE1C12
:101C70000008200205686269632103CF328882432D
:101C800032800E00704700B5FEF730FCFFF738F9E0
:101C9000FFF7A1FEFFF7BEF947F8046D44F2803666
:101CA000FFF783FBFFF761F9FFF7B9FE00BDEE1CFC
:101CB000000820020568786F722103CF3288424005
:101CC00032800E00704700B547F8046D44F24006BC
:101CD000FEF70CFCFFF714F9FFF77DFEFFF79AF90A
:101CE000FFF767FBFFF741F9FFF799FE00BD141DF1
:101CF0000008200205686269744001CF36880640FA
:101D000018BF4FF0FF36704700B5FEF7EFFBFFF747
:101D100062FE91E7381D00082002056362697321A5
:101D200003CF3278024332700E00704700B547F897
:101D3000046D44F2003630E0781D0008200205638F
:101D40006269632103CF3278824332700E0070479C
:101D500000B5FEF7CBFBFFF7D3F8FFF7A6FEFFF7C2
:101D600059F947F8046D44F28036FFF71EFBFFF780
:101D7000FCF8FFF7BEFE00BDB81D00082002056399
:101D8000786F722103CF3278424032700E00704774
:101D900000B547F8046D44F24006FEF7A7FBFFF7D5
:101DA000AFF8FFF782FEFFF735F9FFF702FBFFF709
:101DB000DCF8FFF79EFE00BD021F0008200205634D
:101DC0006269744001CF3678064018BF4FF0FF3685
:101DD000704700B5FEF78AFBFFF767FE2CE7C94A9C
:101DE0001368C94A134000D17047C84AC64C1460F2
:101DF0001A00704700B5C34A136813F00403FBD1FF
:101E0000FFF7EDFF00D000BDBE4A136813F4803326
:101E100004D0BE4A136843F480331360002200BD2F
:101E20001FB5BB4ABB4B1360BB4B1360BB4A136867
:101E300013F001032AD1FFF7DDFF1400002C36D187
:101E4000B64A146844F002041460BFF36F8FBFF306
:101E50004F8F0A464FF0080352F8041B40F8041B4A
:101E6000013BF9D1BFF36F8FBFF34F8FFFF7C2FF75
:101E70001446AA49086820F002000860A74A1168C1
:101E800041F001011160002C11D11FBD00F0CEFF07
:101E9000184572726F7220312077726974696E67AB
:101EA00020666C61736820210A0002F0A1BF47F828
:101EB000046D264601F022F800F0B8FF1845727252
:101EC0006F7220322077726974696E6720666C6168
:101ED000736820210A0002F08BBF00F0A7FF1E46A6
:101EE0006C6173682063616E6E6F74206265207729
:101EF00072697474656E2074776963650A0002F014
:101F000077BF801F00080000083332666C61736879
:101F100021000FB51F20304015D000F087FF22337D
:101F200032666C61736821206E656564732033329C
:101F30002D616C69676E656420616464726573739A
:101F40000A0002F055BF30680130C6D17068013018
:101F5000C3D1300040CF4FF00051CE6140CF8E61F1
:101F600040CF4E6140CF0E6140CFCE6040CF8E60FB
:101F700040CF4E6040CF0E6040CFFFF751FF0FBD06
:101F8000FA1F00080000106572617365666C61736A
:101F900068736563746F720000B5012E2BD3082E31
:101FA00029D25B4A5B4B13605B4B136000F03EFF32
:101FB0000D457261736520736563746F722047F815
:101FC000046D02F066FD554A4FF08403F60033437A
:101FD00013604C4A136813F48033FBD14F4A4FF01F
:101FE0000103136000F022FF0C66726F6D20466CD7
:101FF0006173682E0A0040CF00BD58210008000020
:102000000A6572617365666C6173680072B600B5CB
:10201000434844490268B2F1FF3F05D047F8046DD8
:102020000126FFF7B9FF02E004308842F2D33E48B0
:102030003E490268B2F1FF3F05D047F8046D022621
:10204000FFF7AAFF02E004308842F2D3384839494A
:102050000268B2F1FF3F05D047F8046D0326FFF791
:102060009BFF02E004308842F2D3334833490268D0
:10207000B2F1FF3F05D047F8046D0426FFF78CFF4F
:1020800002E004308842F2D32D482E490268B2F1B2
:10209000FF3F05D047F8046D0526FFF77DFF02E0FE
:1020A00004308842F2D3284828490268B2F1FF3F41
:1020B00005D047F8046D0626FFF76EFF02E00430F6
:1020C0008842F2D3224823490268B2F1FF3F05D08B
:1020D00047F8046D0726FFF75FFF02E004308842EF
:1020E000F2D300F0A3FE1246696E69736865642E30
:1020F00020526573657420210A005DF804EB02F03C
:1021000008BF0000102000520000EE1714200052FB
:102110000420005223016745AB89EFCD0C2000520B
:1021200000800008FFFF000800000108FF7F010891
:1021300000800108FFFF010800000208FFFF0308FC
:1021400000000408FFFF070800000808FFFF0B0855
:1021500000000C08FFFF0F087A2100080000096941
:102160006E6974666C61736888484FF490610022F0
:10217000027001300139FBD170472C2200080000A9
:102180000773746D616C656E00B58048202103B4DF
:1021900000F04CFE03203E0A03BC47F8046D0668BD
:1021A00003B400F043FE09416472657373653A201D
:1021B00003BC00F0A3FE03B400F038FE08496E68CB
:1021C000616C743A200003BC47F8046D466800F067
:1021D00095FE47F8046D866800F090FE47F8046DA0
:1021E000C66800F08BFE47F8046D066900F086FEB5
:1021F00047F8046D466900F081FE47F8046D866972
:1022000000F07CFE47F8046DC66900F077FE47F8E1
:10221000046D066A00F072FE03B400F007FE0320AE
:102220003E0A03BC24300139B7D100BD1A2300088F
:1022300000000768666C6173682130B5320040CFDA
:10224000500813D300F0F2FD1E68666C61736821BC
:10225000206E65656473206576656E2061646472C6
:1022600065737365732E0A0002F0C2BD484B9A4233
:1022700010D200F0DBFD1943616E6E6F742077722F
:1022800069746520696E746F20636F726520210A1E
:1022900002F0AEBD53093D482021046864099C4208
:1022A0002AD024300139F8D1384820210468002C84
:1022B00017D024300139F9D100F0B8FD21546F6FE7
:1022C000206D616E7920736361747465726564203A
:1022D000466C617368207772697465732E0A02F028
:1022E00087BD5B010360013941608160C1600161AC
:1022F00041618161C16101621F2111400431465277
:1023000040CF0168013101601F221140102903D123
:1023100000F01AF8FFF7FDFD30BD9423000800001F
:102320000A666C757368666C6173680000B517485F
:1023300020210268002A03D000F006F8FFF7E9FD2B
:1023400024300139F5D100BD47F8046D466847F8DF
:10235000046D866847F8046DC66847F8046D066921
:1023600047F8046D466947F8046D866947F8046DBF
:10237000C66947F8046D066A47F8046D1F26F643E0
:1023800002681640002202607047000088030024A3
:1023900000800008CA2300086202012B01CF361812
:1023A000704700B5FEF7A2F847F8046D43F2000647
:1023B00047F8046DC94E47F8046D41F60006816880
:1023C000282917D1FEF7D1FD14E07024000862021D
:1023D000012D01CF861B704700B5FEF787F847F83F
:1023E000046D43F6000647F8046DBD4E47F8046DD2
:1023F00041F60026FEF7B6F80168282927D1416882
:10240000FF290CD840CF40CFFEF7C0F80E438168BB
:1024100009020E4301F060FAFDF761FF00BD47F8C5
:10242000046D0E0000F066FE02CF002E40CF0ED0ED
:1024300040CF04370E43816856EA0146FDF74FFF4F
:10244000FEF7D4F856EA032601F076FA00BD043709
:102450000437FEF77DF889018268D2000E431643E7
:10246000FDF73DFFFEF7C2F81E4301F035FA00BD4F
:1024700088240008610202312D00013E704747F8B0
:10248000046D41F640663DE0A0240008610202317F
:102490002B000136704747F8046D41F6404631E0A5
:1024A000B8240008610202322D00023E704747F84E
:1024B000046D41F6806625E0D024000861020232F6
:1024C0002B000236704747F8046D41F6804619E04C
:1024D000EA24000861020563656C6C2B04367047C2
:1024E00047F8046D41F600560CE01C250008610217
:1024F000066E6567617465007642704747F8046D43
:1025000044F2402600B5FDF7E7FF0168C9000E431D
:10251000FEF76CF81E4301F0DFF900BD342500081A
:102520006102036E6F74F643704747F8046D44F21E
:10253000C036E7E74C25000861020373687276082D
:10254000704747F8046D40F64006DBE75C2500085D
:1025500061020373686C7600704706E0722500081C
:10256000610202322A007600704747F8046D402667
:10257000C8E78A25000861020563656C6C73B600C4
:10258000704747F8046D8026BCE7A2250008610269
:1025900002322F007610704747F8046D41F2400672
:1025A000B0E7E2250008610203616273F017361894
:1025B0004640704700B5FDF78FFF47F8046D0026D1
:1025C0000168C9000E43FEF711F81E4301F084F9BB
:1025D00047F8046D4DF2005601F07EF9FFF78EFFCB
:1025E00000BD00260008420005752F6D6F6401CF05
:1025F0003100B0FBF6F67143401A043F3860704773
:102600001E2600084200042F6D6F640001CF3100C8
:1026100090FBF6F67143401A043F3860704732264B
:1026200000084200036D6F6400B5FFF7EFFF40CF75
:1026300000BD722600086202012F01CF90FBF6F662
:10264000704700B5FDF752FFFDF782FFFDF78AFFE7
:1026500047F8046D234E01680E43816856EA01462F
:10266000FDF73DFEFDF7C2FF56EA032601F064F9CF
:1026700000BD862600086100046576656E000120B5
:102680003040361870479E2600088100046261734E
:10269000650047F8046D144E70470A000000B42628
:1026A000000800000662696E617279000E4802211E
:1026B00001607047CA260008000007646563696D01
:1026C000616C09480A2101607047F8290008000080
:1026D000036865780448102101607047000010F11C
:1026E0000000B0F1F0F090FBFCFF0724BFF34F8F28
:1026F000BFF36F8FAB494FF000000860BFF34F8FFF
:10270000BFF36F8FA849086840F400300860BFF33A
:102710004F8FBFF36F8F7047BFF34F8FBFF34F8F54
:10272000BFF34F8FBFF36F8F7047A049086820F049
:102730000F0040F004000860086800F00F00042853
:10274000FAD170479A49086820F03F0040F0040031
:10275000086070479749086820F4404040F44040C2
:10276000086070479449086840F4802008609249E6
:10277000086840F480300860086810F40030FBD02E
:1027800070478E49086820F0030040F0020008609E
:102790008B49086840F4803008608949086840F433
:1027A000802008608649086820F00C0040F00C008A
:1027B00008608349086820F0020040F000000860CB
:1027C0007E49086820F47C7040F0100008607D4964
:1027D000086820F4FF7040F07700086079490868C5
:1027E00020F47E4040F4007008607649086820F4C8
:1027F000FE0040F4403008607249086820F0FE4056
:1028000040F08070086070476C49086820F0030051
:1028100040F0020008606A49086840F480300860AF
:102820006749086840F4802008606549086820F01E
:102830000C0040F00C0008606149086820F00200BC
:1028400040F0000008605D49086820F47C7040F0AA
:10285000100008605B49086820F4FF7040F07700C2
:1028600008605849086820F47E4040F40070086011
:102870005449086820F4FE0040F440300860514993
:10288000086820F0FE4040F08070086070474A49B8
:10289000086840F080700860086810F00070FBD095
:1028A00070474949086820F00F0040F008000860B0
:1028B0004649086820F0070040F0030008604249DC
:1028C000086820F00F0040F0080008603E490868E2
:1028D00020F0700040F0400008603D49086820F09A
:1028E000700040F0400008603949086820F4E0605A
:1028F00040F4806008603749086820F0700040F0BC
:1029000040000860704700B5FFF7F0FEFFF704FFD6
:10291000FFF70BFFFFF716FFFFF71CFFFFF722FF84
:10292000FFF72FFFFFF7B3FFFFF7BBFF2A494FF079
:10293000030008602949086850F00F0050F4FE6059
:1029400008602749086820F4403050F400300860DF
:102950002349086820F4402050F4002008602149F1
:10296000086820F00F0050F0070008601D49086853
:1029700020F0F00050F0700008601B49086850F427
:102980008020086019495FF40B70086018494FF403
:102990008050086017494FF00D0008605DF804EBA7
:1029A0007047000050EF00E014ED00E000200052FE
:1029B0000C4802581848025800440258284402584B
:1029C0002C4402583044025818440258104402580B
:1029D0001C4402582044025854440258E04402580F
:1029E000000C0258240C0258E84402580C480040DD
:1029F0000848004000480040142A00088100096887
:102A00006F6F6B2D656D697447F8046D614E70478B
:102A1000FE2A0008302A0008810008686F6F6B2DBD
:102A20006B65790047F8046D5B4E7047242B0008F6
:102A30004E2A000881000A686F6F6B2D656D6974FE
:102A40003F0047F8046D554E70474E2B00086A2A28
:102A50000008810009686F6F6B2D6B65793F47F83F
:102A6000046D4F4E70477A2B0008882A00088100B9
:102A70000A686F6F6B2D70617573650047F8046DA0
:102A8000484E7047C24E00089E2A000800000465A8
:102A90006D6974000FB53F4800F026F80FBDB22AEB
:102AA00000080000036B65790FB53B4800F01CF887
:102AB0000FBDC42A0008000005656D69743F3748E2
:102AC00000688746D62A00080000046B65793F003D
:102AD000334800688746EC2A0008000005706175DD
:102AE000736530480068874600688746122B0008E7
:102AF00000000B73657269616C2D656D697400B5BA
:102B000000F025F8002E40CFFAD0274A167040CFAB
:102B100000BD3A2B000800000A73657269616C2DD4
:102B20006B65790000B500F028F8002E40CFFAD090
:102B300047F8046D1D4A167800BD682B0008000098
:102B40000C73657269616C2D656D69743F0000B529
:102B5000FFF7C7FF47F8046D00261548016880207D
:102B6000014000D0F64300BDB42B000800000B73F9
:102B7000657269616C2D6B65793F00B5FFF7B1FF38
:102B800047F8046D00260A4801682020014000D063
:102B9000F64300BDF8FF0724F4FF0724F0FF0724E5
:102BA000ECFF0724E8FF07242848004024480040A1
:102BB0001C480040D82B000800000763657870654A
:102BC000637400B5386801B40130386000F00BF868
:102BD00001BC067040CF00BD4E2C0008000006610D
:102BE00063636570740000B502CF01390022FFF7FE
:102BF0005BFF300040CF7F2809D0202819D2092858
:102C000016D00A281FD00D281DD00828EFD1002A81
:102C1000EDD000F00BF903082008002AE7D0885C0B
:102C2000013A80230340E2D040230340F5D0DEE7A1
:102C30002020B242DBD247F8046D0600FFF72AFFDE
:102C400001328854D3E7160000F09FF800BD602CD5
:102C5000000840000374696247F8046D294E70470C
:102C6000762C00088100033E696E47F8046D264EFD
:102C70007047000000009C2C000882000E637572F3
:102C800072656E742D736F757263650047F8046D1D
:102C90001E4E704700000000C0000024B82C000841
:102CA000000009736574736F75726365174802CF0E
:102CB0000660416040CF7047D62C000800000673C4
:102CC0006F757263650047F8046D104E043F7068BD
:102CD000386036687047102D000800000571756572
:102CE00072790FB5084800210160FFF7B5FF47F87A
:102CF000046D47F8046DC826FFF775FFFFF7D6FF90
:102D00000FBD0000C0000024E4FF0724DCFF0724FF
:102D1000582D0008000007636F6D706172650FB574
:102D2000310040CF01CF884202CF10D1002810D00F
:102D300001380A5C335C412A02D35B2A38BF203257
:102D4000412B02D35B2B38BF20339A42EED00026B2
:102D50000FBD0026F6430FBD6C2D00080000026376
:102D6000720000B500F062F8010A00BD7E2D000877
:102D7000000002626C0047F8046D20267047922D17
:102D80000008000005737061636547F8046D202634
:102D900080E6B22D00080000067370616365730061
:102DA00000B5002E03DDFFF7F0FF013EFBD140CF61
:102DB00000BDC22D00085000065B636861725D00B3
:102DC00005E0DA2D0008000004636861720000B5B8
:102DD00001F090FC40CF367800BDEA2D0008500489
:102DE000012847F8046D292606E0042E0008500447
:102DF000015C47F8046D002600B501F085FC04373E
:102E000040CF00BD482E00083000022E2200AA4804
:102E100000B547F8046D060000F07DFA47F8046D30
:102E2000222601F071FC00F092FD00BD0AB447F8C3
:102E3000046D7646013E33780121013319405B1859
:102E40001EEB030E0ABC39E06E2E00083000026350
:102E500022009A48DCE747F8046D7646013E337855
:102E60000121013319405B181EEB030E7047982EA9
:102E700000083000027322009148C9E747F8046D4A
:102E8000764647F8046D013E36780121731C1940DF
:102E90005B181EEB030E7047B02E000800000563A0
:102EA0006F756E74013647F8046D013E36787047D1
:102EB000C82E0008000005637479706500B5FFF73F
:102EC000F1FF00F007F800BDF02E000800000474C8
:102ED0007970650001B501CF002E07D047F8046D69
:102EE0000678FFF7D7FD0130013EF7D140CF01BD95
:102EF0002A2F00080000046865782E0007B531000D
:102F000040CF20200F22043847F8046D0E00C64041
:102F10001640092E01D9373600E03036FFF7BAFDEA
:102F20000028F0D1FFF731FF07BD3A2F000800005D
:102F300003682E731FB5634C0EE04A2F0008000093
:102F400003752E731FB5604C06E0EE2F00080000DD
:102F5000022E73001FB55D4C5D49C91B8908220A0A
:102F60002020292F200A2028273E200A202F4343F3
:102F70002020203335204343430A385C29295F2031
:102F80000A0A544A106803B40A201060FFF74EFF83
:102F900008537461636B3A205B0047F8046D0E00C0
:102FA00001F07FFDFFF742FF025D200003BC2736E2
:102FB000484A106000290AD0474A106806B447F80A
:102FC000046D0600A04706BC043A0139F5D1FFF7AD
:102FD0002DFF0620544F533A200047F8046D360069
:102FE000A047FFF723FF04202A3E0A001FBD8E30B2
:102FF0000008000005776F72647300B5FFF716FFD5
:10300000010A00F0F7FEFFF711FF094164647265E1
:1030100073733A2047F8046DFFF770FFFFF706FF60
:10302000064C696E6B3A200047F8046D3668FFF76E
:1030300065FFFFF7FBFE07466C6167733A2047F8B0
:10304000046DB688FFF75AFFFFF7F0FE06436F6482
:10305000653A2000B01D00F01BFF47F8046D060024
:10306000FFF74CFFFFF7E2FE064E616D653A200068
:1030700047F8046D0636FFF721FFFFF7D7FE010A78
:1030800000F0D0FE300040CFBDD040CF00BDE030DA
:103090000008000006756E757365640000B500F0E9
:1030A000CCFF0E4801684FF01052914201D24FF010
:1030B0000166761A00BD00002C2E0008562E00086E
:1030C0007C2E0008FD2E0008934A0008A34A000841
:1030D00088020024FCFF072484020024D0FF072478
:1030E0004432000800000D3132626974656E636F0E
:1030F00064696E670FB5FF2E04D847F8046D5FF062
:10310000FF360FBD16F0FF10B0420ED14FF6FF7123
:103110000840310C814208D116F0FF0656F4805663
:1031200047F8046D5FF0FF360FBD16F0FF20B04288
:103130000FD14FF6FF710840310C814209D1360A98
:1031400016F0FF0656F4005647F8046D5FF0FF36A0
:103150000FBDFF2231001140300A1040884210D1CB
:10316000300C104088420CD1300E1040884208D1FB
:1031700016F0FF0656F4405647F8046D5FF0FF3630
:103180000FBD300000210131001850F100007FF028
:103190007F020240802A05D01F29F4D347F8046D2E
:1031A00000260FBD0829F9D3060036F0800611F07D
:1031B0000100C001064311F00E00C002064311F0E9
:1031C00010008005064347F8046D5FF0FF360FBD21
:1031D00047F8046DDFF8BC655FF4704110EA010246
:1031E000120116435FF4006110EA0102D203164394
:1031F0005FF4E06110EA010212011643FF2110EAB8
:10320000010216431E4397E347F8046DDFF8886513
:103210005FF0704110EA0102120B16435FF000618B
:1032200010EA0102520816435FF0E06110EA010261
:10323000120B16435FF47F0110EA0102120C1643D1
:103240001E4379E3AA3200080000107265676973B3
:103250007465726C69746572616C2C000FB5330013
:1032600040CF1B02FF2E05D856F400561E4300F037
:1032700033FB0FBDFFF73EFF002E40CF06D0DFF837
:103280001C0506431E4300F057FB0FBDF643FFF736
:1032900031FF002E40CF06D0DFF8040506431E4361
:1032A00000F04AFB0FBDF6430BE00A3300080000B4
:1032B000096D6F76776D6F76742C0FB5330040CF44
:1032C0001B02300040CFFFF783FF4FF6FF7110EA7B
:1032D000014001D0FFF798FF0FBD0FB50136300058
:1032E00040CF0023FFF774FFFFF78EFF06E00FB516
:1032F000013647F8046D0026FFF7B0FF47F8046D6C
:1033000044F2807600F0E8FA0FBD70330008000048
:103310000563616C6C2C0FB5330000F07FFE30004C
:1033200040CF1B1A043BDFF87C141940002906D05B
:10333000DFF87424914202D0BDE80F40D7E740CFB8
:103340005B08DFF8680440F2FF7119400843DB0AAC
:1033500040F2FF311940090408439B0A13F00101B0
:103360008906084347F8046D060000F0E5FA0FBD32
:10337000A63300080000086C69746572616C2C004B
:1033800008B547F8046D4FF6470600F0A5FA47F870
:10339000046D46F6045600F09FFA47F8046D0626C1
:1033A000FFF75CFF08BDCE330008000006637265BE
:1033B0006174650000B500F035F843F2EF30C0F6F7
:1033C0000000804747F8046DBEF1010600BD1634C9
:1033D0000008200005646F65733E43F2EF30C0F6CD
:1033E0000000804747F8046DBEF10106704747F8BA
:1033F000046DBEF10106EE4A1368EE490968022029
:10340000084000D0023102311160FFF766FF1360FF
:1034100000F0E5F900BD523400080000073C627579
:10342000696C647300B500F0B9FB00F0F7FD022091
:10343000064040CF01D000F041FA47F8046D4BF24E
:10344000005600F049FA47F8046D0A2600F0B2FA77
:1034500000BD5E3400085000035B275D03E0763456
:1034600000080000012700B501F044F900F073FDE9
:10347000300040CF00BDAC340008300008706F73DE
:1034800074706F6E650000B5FFF7EDFF47F8046DCF
:10349000060039683E600E46FFF772FFFFF770FFC7
:1034A00047F8046DC44EFFF736FF00BD0235000833
:1034B000000007696E6C696E652C00B54BF2005117
:1034C0004BF6005244F270733088884208D0904224
:1034D00008D0984206D047F8046D060000F0FCF9C9
:1034E0000236F1E740CF00BD0EB44BF6005244F275
:1034F000707301880230914201D09942F9D10EBC1B
:103500007047183500080000047265742C0047F8F5
:10351000046D4BF60056DFE12635000830000465E7
:1035200078697400F3E73E35000830000772656380
:103530007572736547F8046D9E4E3668EBE6563536
:103540000008810005737461746547F8046D9B4E33
:10355000704700000000683500080000015D9748D2
:103560000021C94301607047783500081000015BF5
:103570009248002101607047983500080000013A28
:1035800000B58F48076000F009FB8C4801210160FD
:103590008C480021016000BD143600083008013B52
:1035A00000B587480168B94214D087498E4202D1DC
:1035B000864EFFF783FCFFF739FC152053746163D7
:1035C0006B206E6F742062616C616E6365642E0A9D
:1035D00001F00EBC79480068411C10D00B2805D8BA
:1035E00047F8046D40F6200600F02EF947F8046D08
:1035F00044F2707600F070F901F0FAFA05E047F84D
:10360000046D4BF6005600F067F900F0E8F8FFF79C
:10361000AFFF00BD283600080000076578656375B8
:103620007465300040CF87464036000810000969B5
:103630006D6D65646961746547F8046D102603E17A
:1036400056360008500006696E6C696E650047F8D2
:10365000046D2026F8E07036000810000B636F6DD3
:1036600070696C656F6E6C7947F8046D3026EBE01D
:103670008A36000850000A302D666F6C6461626CF7
:10368000650047F8046D4026DEE0A43600085000CF
:103690000A312D666F6C6461626C650047F8046DD9
:1036A0004126D1E0BE36000850000A322D666F6C0C
:1036B0006461626C650047F8046D4226C4E0D83648
:1036C000000850000A332D666F6C6461626C6500FF
:1036D00047F8046D4326B7E0F236000850000A347C
:1036E0002D666F6C6461626C650047F8046D44265A
:1036F000AAE00C37000850000A352D666F6C646133
:10370000626C650047F8046D45269DE02637000889
:1037100050000A362D666F6C6461626C650047F874
:10372000046D462690E04037000850000A372D66A9
:103730006F6C6461626C650047F8046D472683E036
:1037400070370008000008636F6E7374616E740058
:1037500000B500F023FAFFF713FE47F8046D44F2BA
:10376000707600F0B9F8FFF78CFF00F038F800BD74
:10377000D037000800000932636F6E7374616E7495
:1037800000B500F00BFA39683E600E46FFF7F8FD11
:10379000E1E70000000040F20000C0F200005FF02E
:1037A00000007FF00100C0FF0000C0FF00F800F043
:1037B000D0FF07240C000024EA4A0008D8FF0724A1
:1037C0000800002454000024851912045E2F00080C
:1037D00038380008000006736D756467650000B531
:1037E000DE4801684FF0105291421ED202390A8819
:1037F0004FF6FF739A4205D147F8046D4FF000066B
:1038000000F06AF800F04DF8D548006847F8046DFC
:103810000600D44909680431D04A1368116000F0E9
:103820005BF81360FEF782FD00BD00F03AF847F840
:10383000046D4FF0000608E08038000800000873AF
:103840006574666C6167730000B5C44801684FF029
:103850001052914205D2C24801683143016040CF05
:1038600000BD320040CFBF480068043001884FF6E9
:10387000FF73994201D1110000E01143018000BDA6
:1038800096380008410007616C69676E656403360D
:10389000032086437047CE380008000005616C693C
:1038A000676E00B5AD4801680220014005D047F8B9
:1038B000046D4FF0000600F00FF800BD47F8046DEE
:1038C000362609E047F8046D4CF6407604E01439DA
:1038D0000008000002682C000FB5B6B2A2480168CB
:1038E000002902D0013100D001609C4801684FF0EE
:1038F0001052914205D247F8046D0E00FEF79DFC70
:1039000002E0320040CF0A8047F8046D022600F042
:1039100051F80FBD2E3900080000012C01B547F801
:10392000046DFFF7D9FF360CFFF7D6FF01BD403914
:1039300000080000033E3C2C01B51020C641EEE714
:10394000A8390008000007737472696E672C07B508
:10395000FF21314040CF300040CF002905D147F84A
:10396000046D0026FFF7B8FF07BD47F8046D067821
:1039700036020E43FFF7B0FF0130013902290AD3A6
:1039800047F8046D4678360202781643FFF7A4FF25
:1039900002300239F2E7002900D107BD47F8046D73
:1039A0000678FFF799FF07BD063A00080000056199
:1039B0006C6C6F74694801684FF01052914210D2DC
:1039C000320040CF89184FF00162914219D3FFF7BE
:1039D0002DFA0B466C6173682066756C6C0A01F0F9
:1039E00007BA320040CF8918604A1268914208D362
:1039F000FFF71CFA0952616D2066756C6C0A01F0C4
:103A0000F7B901607047223A0008810008286C610C
:103A100074657374290047F8046D554E7047E401CE
:103A200000083A3A0008810004286470290047F829
:103A3000046D504E7047080800245E3A00080000EC
:103A400009666F7267657472616D00B500F025F8E4
:103A500048484949016046484849016000BD863AE6
:103A6000000800000D636F6D70696C65746F7261A2
:103A70006D3F47F8046D3F4800684FF01051884291
:103A8000B641F6437047A83A000800000C636F6D1A
:103A900070696C65746F72616D00364800684FF034
:103AA0001051884212D370471A3B000800000E6381
:103AB0006F6D70696C65746F666C617368002D481A
:103AC00000684FF01051884200D2704728482C49B6
:103AD00002680B680A60036026482A4902680B687E
:103AE0000A60036021480068834215D300B5FFF7E0
:103AF0009DF923205661726961626C657320636F62
:103B00006C6C6964652077697468206469637469A2
:103B10006F6E6172790A00BD7047363B0008000085
:103B20000C61646472696E666C6173683F0013486F
:103B30004FF001610BE08C3B000800000A616464F7
:103B400072696E72616D3F004FF010500E498642EF
:103B500002D38E42B641704700267047D0FF07243B
:103B600018000024D4FF0724D8FF07241C000024D9
:103B7000D4FF0724D0FF072408080024E40100082C
:103B8000140000241000002400000824823C0008D7
:103B900000000828637265617465290000B500F0B3
:103BA000A9FD002E0ED1FFF741F915204372656182
:103BB0007465206E65656473206E616D6520210AF1
:103BC00001F016B9386847F8046D043F386000F01A
:103BD0006EF940CF002E40CF11D0386847F8046D01
:103BE000043F3860FFF722F9095265646566696E23
:103BF0006520FFF76FF9FFF719F9022E2000FFF794
:103C000050FE924800684FF01051884220D29048F0
:103C10004FF00001016000F001FA47F8046D06263C
:103C2000FFF7C8FEFDF70CFAFFF791FE894801681F
:103C30000A684FF0FF339A4207D1844A1368116033
:103C400047F8046DFFF76AFE1360066040CF13E08B
:103C500000F0E4F97F4847F8046D0668FFF75EFE60
:103C600047F8046D4FF6FF76FFF736FE79483100CE
:103C700040CF0160FFF76BFE744801687648016031
:103C800000BD9A3C00080000087661726961626CB0
:103C9000650047F8046D012613E0B23C00080000FF
:103CA00009327661726961626C6547F8046D0226BB
:103CB00007E0243D00080000096E766172696162C8
:103CC0006C6500B5FFF76AFF604801684FF010525D
:103CD000914218D20F200640B20000F04CF830009C
:103CE00040CF0200002805D00E600431FFF716FE19
:103CF0000138F9D147F8046D80261643FFF7A4FD7B
:103D0000FFF76DFD00BD00F050F8300040CF0028F7
:103D100003D0FFF703FE0138FBD1FFF7B2FCFFF73A
:103D20005EFD00BDDE3D0008000007627566666549
:103D3000723A00B5FFF732FF0120304036180220FA
:103D400030403618414801684FF0105291420DD270
:103D5000320000F010F8FFF7E1FD47F8046D40F283
:103D60004016FFF771FDFFF73AFD00BD00F01DF8AA
:103D7000FFF720FED1E700B538480168891A384AB4
:103D800091420BD2FFF752F80F4E6F7420656E6FA1
:103D90007567682052414D0A01F02AB8016047F862
:103DA000046D0E00FFF7ECFA12E000B500F036F9F2
:103DB0000220064040CF01D1FFF780FD47F8046D97
:103DC000284EFFF7B9FD47F8046D274EFFF7B4FD05
:103DD00047F8046D44F27076FFF77EFD00BD0E3E9D
:103DE000000800000F64696374696F6E6172797313
:103DF00074617274154800684FF0105147F8046DF3
:103E0000884201D2194E7047124E36687047703E94
:103E1000000800000E64696374696F6E6172796EE8
:103E20006578740003B531684FF0FF30814207D0E8
:103E30008879FF2804D00E0047F8046D002603BDE2
:103E400047F8046D0026F64303BD0000D0FF0724A9
:103E500018000024D4FF07240C0000241C000024B8
:103E6000080800243E60043F02367E46E401000854
:103E7000A23E000800000A736B6970737472696E69
:103E800067003178013101220A408918761870479D
:103E900006B40178013101220A408918401806BC95
:103EA0007047B43E000800000466696E6400304844
:103EB00000688746D03E0008810009686F6F6B2D4F
:103EC00066696E6447F8046D2A4E7047DE3E00084E
:103ED000783F00080000062866696E64290030B546
:103EE0000020002103B4350040CF340040CFFFF75D
:103EF00081FF4FF6FF70B18888421ED0B179A94288
:103F00001BD1F01D0139425C635C412A02D35B2A5C
:103F100038BF2032412B02D35B2B38BF20339A426B
:103F20000BD10029EED102B0B01DFFF7B1FFB1886F
:103F300003B44FF01050864207D236684FF0FF307E
:103F4000864202D0B079FF28D3D103BC060047F8DF
:103F5000046D0E0030BD00B53100386803B4FFF7C2
:103F6000A6FF03BC3A68002A01D100F0EFFE00BDB5
:103F7000CCFF0724CCFF0724D63F000800000663CF
:103F80006A756D702C00320040CF310040CF8B1B22
:103F9000043B6FF0FE01194000290ED06FF0FF00C6
:103FA00081420AD0FEF742FF0D4A756D7020746F92
:103FB0006F206661720A00F01BBF5B10FF210B408F
:103FC000134330001E0000B5CB4A13681060FFF7A2
:103FD00083FC136000BD104000080000056A756D89
:103FE000702C310040CF300040CF0B1A043BC34946
:103FF0001940002902D0C24A9142D3D15B1040F24D
:10400000FF72134053F4604347F8046D1E00DAE773
:1040100026400008000004686572650047F8046DDA
:10402000B54E366870475441000800000D666C615B
:1040300073687661722D6865726547F8046DB14EDC
:104040003668704700B547F8046D42F60066FFF722
:1040500043FCFFF737FC00BDE0E700B500F03AF89D
:1040600039683E600E4647F8046D4DF20016FFF7C2
:104070008AFF00BD00B500F02DF839683E600E469D
:1040800047F8046D4DF20076FFF77DFF00BD00B5E7
:10409000FFF7D8FF00F01EF839683E600E4647F87B
:1040A000046D4DF20006FFF76EFF00BD00B500F095
:1040B00011F839683E600E46FFF793FF00BD00B56A
:1040C000FFF7C0FFFFF7AAFF47F8046D0226FFF7CE
:1040D00071FC00BD00B5FFF7A1FF47F8046D022693
:1040E000FFF768FC00BD00B5FFF798FFFFF779FF09
:1040F00000BD00B5FFF792FF47F8046D4DF20006D2
:10410000FFF741FF00BD00B5FFF788FF47F8046DDA
:104110004DF20016FFF737FF00BD00B5FCF7DCF9E4
:10412000FCF714F9FCF717F9FCF71AF9816828294C
:1041300001D1FCF717FAFCF70BFA47F8046D42F6C9
:10414000000609020E43FFF7C7FBFCF7C8F8FCF7AF
:10415000F1F800BD804100083000047468656E000D
:10416000052E01D140CFBEE7F1B200296DD100B5D7
:10417000FFF754FF39683E600E46FFF704FF00BDAD
:104180009C410008300004656C73650000B500F0C8
:1041900036F8FCF76CFAFFF7E3FF00BDF2410008C8
:1041A00030060269660000B5FFF789FF47F8046D25
:1041B0004DF2000600BD00B5FCF721FAFDF7F3FA59
:1041C000816A002907D002B4FCF7B4F8FFF782FF38
:1041D00047F8046D40BDFFF7A0FFFFF71FFF47F84A
:1041E000046D0226FFF7E6FB47F8046D4DF200066A
:1041F00000BD0C420008300005616865616400B5CF
:10420000FFF768FF47F8046D052600BD2642000849
:104210003000067265706561740000B500F05BF8EF
:10422000FFF79EFF00BD6A42000830060577686907
:104230006C6500B5FFF7B7FFFCF719FA00BD00B5D4
:10424000FFF7B9FFFCF713FA00BDFEF7EFFD1753B8
:1042500074727563747572657320646F6E27742051
:104260006D617463680A00F0C3BDCA42000830067D
:1042700005756E74696C012EE7D140CF07E7704772
:10428000012EE2D140CF00B5FDF78DFA816A0029F9
:104290000DD002B4FCF74EF8FFF71CFF39683E6002
:1042A0000E4647F8046D40BCFFF76DFE00BDFFF7FA
:1042B00034FFFFF70FFF39683E600E4647F8046D84
:1042C0004DF20006FFF75FFE00BDDE420008300041
:1042D00005616761696E012EB7D140CFE6E60843FC
:1042E0000008300005626567696E00B5FFF7B4FE2F
:1042F00047F8046D012600BDD0FF072401F8FFFF39
:1043000000F8FFFF1C000024224300082002016B7C
:1043100047F8046D029E704747F8046D49F602069F
:104320000BE0504300082002016A47F8046D009E2C
:10433000704747F8046D49F6000600B5FBF7C5FF66
:10434000FCF796F803601B021E43FFF7C5FA00BD99
:104350007C4300082002016947F8046D260070477D
:1043600000B547F8046D40F22006FBF7AEFFFCF7FE
:104370007FF803601E43FFF7AFFA00BDBA430008A1
:104380003000056C6561766500B5754801683B00D5
:10439000043F1A68043B1A6008338B42F9D103B416
:1043A000FFF798FE03BC330040CF04390B60016077
:1043B00004390A6801320A6000BDCC4300082000BD
:1043C00006756E6C6F6F700030BC70470444000857
:1043D0003000052B6C6F6F70032E00D035E740CF97
:1043E00000B547F8046D5F4EFFF767F8FFF742FE30
:1043F0001AE014F10044641BA41940CF2C44A4F12A
:1044000000447047464400083000046C6F6F700031
:10441000032E00D019E740CF00B547F8046D524E87
:10442000FFF74BF8FFF719FE00F04AF94C4831004E
:1044300040CF016047F8046D4C4EFFF73EF800BDD9
:104440000134AC4270478E440008300202646F00B1
:1044500000B547F8046D464EFFF72FF84048016855
:1044600047F8046D0E0047F8046D00260760FFF75B
:10447000F3FD47F8046D032600BD00B500F02FF8EA
:10448000ECE730B4340040CF350040CF704774457E
:1044900000083002033F646F00B547F8046D344EE6
:1044A000FFF70BF847F8046D44F2AC26FFF714FA57
:1044B0002B48016847F8046D0E00FFF70BFE01362C
:1044C00047F8046D012626480760FFF7C5FD47F849
:1044D000046D032600BD00B500F001F8E2E700B569
:1044E000FCF78DF8FCF702F8FBF730FFFBF733FF22
:1044F000FBF736FF47F8046D4BF23046FFF7ECF957
:104500000168282908D047F8046D40F20406C90064
:104510000E43FFF7E1F907E047F8046D466847F8F6
:10452000046D0426FEF79AFE8168282908D047F812
:10453000046D40F20506C9000E43FFF7CDF907E010
:1045400047F8046DC66847F8046D0526FEF786FE39
:10455000FBF7C5FEFBF7C3FEFBF70CFF00BD000039
:1045600004000024F243000840440008C843000847
:1045700082440008944500083000046361736500BC
:1045800000B5FCF73CF847F8046D002647F8046DC9
:10459000082600BDAA4500083000033F6F666B483F
:1045A00009E0013EB64140CF70476846000830023E
:1045B000026F66006648082E00D046E640CF00B580
:1045C00047F8046D0600FEF778FFFFF783FD3968B2
:1045D0003E600E46013647F8046D0926FFF772F972
:1045E00000BD082E00D030E640CF00B5FBF77EFFBF
:1045F000FBF7ACFEFBF7AFFEFBF7B2FE47F8046D2E
:1046000044F28026FBF7AEFF0E430268282A1ED133
:104610004268FF2A08D840CF47F8046D42F60006EA
:10462000164309020E4314E047F8046D4668FEF78E
:1046300061FD04CF002E40CF06D0464E164356EA09
:104640000146FFF779F906E0FBF782FF0A00D20086
:104650001643FFF741F9FBF742FEFBF78BFEB4E789
:10466000300040CFB04270479E46000830000565DC
:104670006E646F66092E00D0E7E540CF00B540B408
:1046800040CFFFF727FD39683E600E46FFF73BFD40
:1046900047F8046D40BC47F8046D082600BDE846A5
:1046A0000008300007656E6463617365082E00D0F2
:1046B000CBE540CF00B5FFF705F900F001F800BDEC
:1046C00000B5300040CF00280DD003B401213140A7
:1046D000002903D0013EFFF70CFD01E0FFF703FDC9
:1046E00003BC0138EFE700BDFC460008000005747C
:1046F0006F6B656E47F8046D202605E06047000883
:10470000000005706172736510B513480168406858
:10471000124A12688418202E07D191420FD0835C70
:10472000B34202D101328418F7E7914207D0835C8B
:104730000132B342F9D18618361B013E01E08618DA
:10474000361B043F3C600548026010BDA2450008CE
:1047500060460008000FB0F1DCFF0724E4FF0724E7
:104760009E4700080000056469676974CF4B1B68A9
:10477000303E0BD30A2E0BD3073E0A2E06D3242E2F
:1047800006D3203E0A2E01D3242E01D300267047E3
:104790009E42FBD247F8046D0026F6437047A848B6
:1047A00000080000066E756D626572003FB531004D
:1047B00040CF701E0126012204B4BC4B1B680024AC
:1047C000002500293CD00130013902782D2A04D17E
:1047D00001B00022D24304B4F3E7232A01D10A2313
:1047E000EFE7242A01D11023EBE7252A01D1022388
:1047F000E7E72E2A01D10226E3E72C2A36D047F834
:10480000046D1600FFF7B4FF002E40CF2BD047F801
:10481000046D260047F8046D2E0047F8046D1E0055
:1048200047F8046D00260FB4FCF7F1F80FBC350013
:1048300040CF340040CF0022A419554140CFC0E7FB
:1048400004BC002A04D50022E443ED430134554161
:1048500033002600012B02D047F8046D2E0047F8E4
:10486000046D1E003FBD01B000263FBD25000024A1
:1048700002260029E4D0425C01392E2AF9D047F8FB
:10488000046D1600FFF774FF002E40CFEBD0043FFD
:104890003C6047F8046D1E000FB4FCF767F90FBCCD
:1048A000340040CF40CFE4E7CA4800080000062E9D
:1048B0006469676974000A2E01D230367047242E6D
:1048C00001D23736704723267047004900080000A0
:1048D00004686F6C6400330040CF75480178432949
:1048E0000DD2013101704018012907D0013802783A
:1048F00001300270013801390129F7D10370704786
:1049000020490008000005686F6C643C330040CF0C
:1049100067480178432902D201310170435470473E
:10492000384900080000047369676E00002E01D446
:1049300040CF70472D26CEE74C49000800000223E7
:104940003E005B48067801303860704764490008D3
:1049500000000366235310B5202400F008F8013C42
:10496000FBD110BD8649000800000266230000B597
:1049700047F8046D4D4E3668FCF70BF8FFF79BFFC8
:10498000FFF7C4FF00BDA249000800000223530046
:1049900000B500F00AF8002EFBD138680028F8D1E5
:1049A00000BDCE4900080000012300B547F8046DA2
:1049B0003E4E366847F8046D0026FCF7F6F8FBF724
:1049C00056FE40CFFFF777FFFFF785FF00BDE049B8
:1049D00000080000023C23003548002101707047A8
:1049E000F2490008000002662E0047F8046D2026F8
:1049F00004E0404A0008000003662E6E00B510B4C3
:104A0000340040CFFCF7EEFAFBF748FF47F8046D9F
:104A10000026FFF7E1FFFFF7BBFF40CF2C26FFF793
:104A200075FF002C03D0FFF7A2FF013CFBD110BCA7
:104A300040CFFFF77BFF47F8046D47F8046D1CE09B
:104A4000564A000800000375642E00B5FFF7C4FF46
:104A5000FFF79EFF11E0884A0008000002642E0064
:104A600000B5FCF7BFFAFBF719FFFFF7B5FFFFF73B
:104A70008FFFFCF7C9FAFFF759FFFFF762FFFEF758
:104A800029FAFEF782F900BD9A4A00080000027573
:104A90002E0047F8046D0026D7E7784C0008000088
:104AA000012E47F8046DF617DAE70000FCFF072433
:104AB0007C00002430B54FF010542568002D01D142
:104AC0003D00256030BD30B54FF010543D002560ED
:104AD00030BD30B54FF010540025256030BD4FF08B
:104AE00010531B68DB1B9B08704700B5310040CF9B
:104AF0004FF48050084002D000F0A6F800BD4FF4FB
:104B00008060084001D1FCF707FE320040CFFFF77C
:104B1000D1FF4FF40050084003D047F8046D160051
:104B200000BDFFF7DCFF8020084006D14020084090
:104B300009D00F200840834205D347F8046D1600C2
:104B4000FEF76FFD00BD4FF40070084014D0FBF776
:104B50005EFB47F8046D160047F8046D0E0000F088
:104B600031F81000FEF7C0FC421CB3489047FFF735
:104B7000AAFFFBF75BFB00BDFBF749FB47F8046DA1
:104B8000160047F8046D0E0000F01CF8FBF7D2FB8E
:104B9000FFF79FFF4FF40060084001D1FBF72FFDA6
:104BA00047F8046D160010220A4002D0FEF739FDC6
:104BB00000BD20220A4002D0FEF77FFC00BDFEF7B8
:104BC000AAFB00BD0FB5320040CF330040CF9B4859
:104BD0000168062907D206204143994840180380FE
:104BE0001B0C4380828095480168013101600FBD34
:104BF0000FB59248016806291FD8914801391DD088
:104C000047F8046D0E00FEF767FE47F8046D06884E
:104C1000FEF762FE47F8046D4688FEF75DFE47F832
:104C2000046D8688FEF758FE06300139EDD147F84D
:104C3000046D41F20006FEF707FE0FBD47F8046D54
:104C40004026FEF701FE0FBD00B5300040CFFEF755
:104C50004BFC0188023047F8046D06884288120434
:104C6000164347F8046D868803B4FFF73EFF03BC84
:104C700006300139EFD100BDC04C000800000865C6
:104C800076616C756174650000B5FEF71CF801CFA4
:104C900001B440B440CF6B48016802B40021016008
:104CA000FEF704F800F014F8664802BC016047F80B
:104CB000046D40BC01BC043F3860FDF7F7FF00BD48
:104CC000C84D0008000009696E74657270726574E1
:104CD00000B55D4887420BD9FEF7A8F81053746100
:104CE000636B20756E646572666C6F770A007FE097
:104CF000564887420AD2FEF799F80F537461636BE6
:104D0000206F766572666C6F770A71E0FFF7D2FEEE
:104D1000FFF7F0FC002E02D1043740CF00BD386809
:104D200047F8046D043F3860FFF7C1F8310040CF09
:104D3000320040CF002A1BD138683100FCF7ECFC70
:104D4000FFF734FD320040CF002AC2D147F8046D8E
:104D5000060047F8046D0E00FEF7BCF8FEF766F893
:104D60000C206E6F7420666F756E642E0A003FE033
:104D7000374B1B68002B1CD1FFF7ABFE30230B40D9
:104D8000302B0ED1FEF7A6F8FEF750F8122069730B
:104D900020636F6D70696C652D6F6E6C792E0A00E3
:104DA00026E0043740CF47F8046D1600FEF739FCC3
:104DB0008FE7043740CF47F8046D160047F8046DBD
:104DC0000E00FFF792FE84E7E44D000881000968B9
:104DD0006F6F6B2D7175697447F8046D1D4E7047C8
:104DE000224E0008684E00080000047175697400C6
:104DF000DFF864D0144FFDF7B7F918480A210160B5
:104E00001348002101604FF010500160FBF7D9FA00
:104E10000C48016012480160124941600D48006869
:104E20008746FDF75EFFFFF753FFFDF7FFFF052005
:104E30006F6B2E0AF5E700002000002454000024C8
:104E400058000024E4FF072488020024880100247D
:104E5000D8FF0724C8FF072488030024FCFF072489
:104E6000DCFF0724C0000024824E00080000056516
:104E7000696E743F47F8046DEFF31086013EB6414A
:104E80007047924E000820000465696E740062B697
:104E90007047A24E000820000464696E740072B668
:104EA0007047B84E0008200004697073720047F81C
:104EB000046DEFF305867047C44E00080000036ED2
:104EC0006F707047064F0008000009756E68616ECC
:104ED000646C656400B5FDF7A9FF14556E68616EDA
:104EE000646C656420496E7465727275707420001C
:104EF00047F8046DEFF30586FEF700F8FDF796FF1F
:104F000002210A0000BD184F0008000005726573F9
:104F10006574C848C8490160424F000881000B69A8
:104F200072712D7379737469636B47F8046DC34EA6
:104F30007047D44E00084FF6C470C2F207400068B4
:104F400087466A4F00088100096972712D66617594
:104F50006C7447F8046DBA4E7047D44E00084FF693
:104F6000C070C2F2074000688746984F0008810071
:104F70000E6972712D636F6C6C656374696F6E007E
:104F800047F8046DAF4E7047D44E00084FF6BC7022
:104F9000C2F2074000688746C04F000881000969D7
:104FA00072712D657874693047F8046DA64E7047AC
:104FB000D44E00084FF6B870C2F20740006887462A
:104FC000E84F00088100096972712D6578746931B4
:104FD00047F8046D9D4E7047D44E00084FF6B470EC
:104FE000C2F2074000688746105000088100096936
:104FF00072712D657874693247F8046D944E70476C
:10500000D44E00084FF6B070C2F2074000688746E1
:10501000385000088100096972712D657874693310
:1050200047F8046D8B4E7047D44E00084FF6AC70B5
:10503000C2F2074000688746605000088100096995
:1050400072712D657874693447F8046D824E70472B
:10505000D44E00084FF6A870C2F207400068874699
:10506000865000088100076972712D61646347F8FA
:10507000046D7A4E7047D44E00084FF6A470C2F209
:10508000074000688746AE500008810008697271C9
:105090002D74696D320047F8046D714E7047D44E1F
:1050A00000084FF6A070C2F2074000688746D6504D
:1050B00000088100086972712D74696D330047F82A
:1050C000046D684E7047D44E00084FF69C70C2F2D3
:1050D000074000688746FE50000881000869727129
:1050E0002D74696D340047F8046D5F4E7047D44EDF
:1050F00000084FF69870C2F20740006887460080AB
:105100000008FFFF182D2D2D20466C617368204488
:10511000696374696F6E617279202D2D2D00FDF722
:10512000F2FB52488546524F2A2647F8046D514EED
:10513000514DB1884FF6FF73994225D04FF48073DB
:105140000B400AD0B01DFEF7A3FEFEF7CDF9038891
:10515000408800040343ED1A16E080230B4013D06F
:105160000F23194089006D1AB01DFEF791FEFEF75E
:10517000BBF947F8046D060047F8046D2E0047F8A8
:10518000046D0E00FCF78EFBFEF74CFE300040CFA6
:10519000CFD03A48066040CF394805604FF00160F3
:1051A00038494FF6FF72884204D002380388934290
:1051B000F9D0023034490860FCF7D6FFFDF736FE1F
:1051C000414D6563726973702D5374656C6C6172C7
:1051D000697320524120322E362E3520666F7220A0
:1051E00053544D333248373435204E75636C656FF8
:1051F000206279204D61747468696173204B6F631C
:10520000680A4FF0105000210160FBF7DAF847F808
:10521000046D1E4E47F8046D0426FEF748FE40CF8D
:10522000002E02D0FEF7FDF9F8E540CFE0E5696E0B
:10523000697400000CED00E00400FA05C4FF0724C7
:10524000C0FF0724BCFF0724B8FF0724B4FF0724CE
:10525000B0FF0724ACFF0724A8FF0724A4FF0724FE
:10526000A0FF07249CFF072498FF0724880300243D
:1052700088020024E401000800000824140000242F
:105280001C00002400800008100000242E5200089A
:0400000508000000EF
:00000001FF
