:020000040800F2
:100000008803002483530008C3510008C35100082B
:10001000C3510008C3510008C3510008000000008C
:10002000000000000000000000000000F151000886
:10003000F151000800000000F15100089B51000838
:10004000F1510008F1510008F1510008F151000888
:10005000F1510008F15100081952000841520008FE
:100060006952000891520008B9520008F151000885
:10007000F1510008F1510008F1510008F151000858
:10008000F1510008F1510008DF520008F151000859
:10009000F1510008F1510008F1510008F151000838
:1000A000F1510008F1510008F1510008F151000828
:1000B000075300082F53000857530008F151000858
:1000C000F1510008F1510008F1510008F151000808
:1000D000F1510008F1510008F1510008F1510008F8
:1000E000F1510008F1510008F1510008F1510008E8
:1000F000F1510008F1510008F1510008F1510008D8
:10010000F1510008F1510008F1510008F1510008C7
:10011000F1510008F1510008F1510008F1510008B7
:10012000F1510008F1510008F1510008F1510008A7
:10013000F1510008F1510008F1510008F151000897
:10014000F1510008F1510008F1510008F151000887
:10015000F1510008F1510008F1510008F151000877
:10016000F1510008F1510008F1510008F151000867
:10017000F1510008F1510008F1510008F151000857
:10018000F1510008F1510008F1510008F151000847
:10019000F1510008F1510008F1510008F151000837
:1001A000F1510008F1510008F1510008F151000827
:1001B000F1510008F1510008F1510008F151000817
:1001C000F1510008F1510008F1510008F151000807
:1001D000F1510008F1510008F1510008F1510008F7
:1001E000F151000820060008FFFF222D2D2D204D83
:1001F0006563726973702D5374656C6C6172697399
:1002000020524120322E362E35202D2D2D0007B5BF
:100210009048002B09D000F03DF800F043F800F0C2
:1002200028F8426028210160F3E707BD00B589483E
:1002300000230168282905D1426800F004F800F085
:100240004EF8F6E700BD03B547F8046D160047F811
:10025000046D1E0008B400F09FFF08BC013347F88E
:10026000046D7D4E47F8046D40F2612604F0A6FD52
:1002700003BD03B5013B47F8046D1E0008B400F050
:1002800075FF08BC320047F8046D4FF4005604F0C7
:1002900095FD03BD03B5714801681E2901D000F02A
:1002A00034F803BD8169016201698161816801617E
:1002B00001688160C16941624169C161C168416190
:1002C0004168C1601E21016070470FB56148016837
:1002D0001E2903D0FFF7DEFFFFF7E4FF0FBD02B5D5
:1002E00081680160C168416000E002B50169816018
:1002F0004169C16081690161C1694161016A8161CE
:10030000416AC1611E21016202BD08B501681E2259
:100310000260082901D20B0004E0282909D14368B2
:1003200000F05BF847F8046D4D4E56EA033603F0D3
:10033000D5FB08BD00B500F009F800F00CF800F09E
:100340000FF800F012F800F015F800BD0FB54348A3
:10035000FFF7DBFF0FBD0FB54248FFF7D6FF0FBD1C
:100360000FB54148FFF7D1FF0FBD0FB53F48FFF76D
:10037000CCFF0FBD0FB537480168062202601E2969
:1003800006D147F8046D4CF6407603F077FB15E094
:10039000282909D1436847F8046D1E0047F8046D09
:1003A000062602F0F1FF09E0062907D047F8046DA0
:1003B00044F20666C9000E4303F060FB00F001F84A
:1003C0000FBD24481E210162816101618160C1620B
:1003D0000621016000218162704707B547F8046D6E
:1003E0001E0000F045F847F8046D1E0002F0CCFF37
:1003F00007BD07B5C16A282904D1016B994201D113
:10040000002307BD0168002918D08168002915D094
:100410000169002912D0816900290FD0016A0029E1
:100420000CD0036347F8046D1E0047F8046D0026E6
:1004300002F0AAFF2821C162002307BD47F8046D1E
:100440001E0000F015F847F8046D1E0002F09CFF36
:1004500007BD000020000024200F000840000024F9
:10046000040D47F838000024300000242800002440
:1004700037B536480168826803698469056A0620D1
:1004800000F00EF8032000F00BF8022000F008F84E
:10049000012000F005F800232C481E21C16237BD61
:1004A000814209D0824207D0834205D0844203D0E2
:1004B000854201D0030037BD704747F8046D4CF604
:1004C000007600B581581E2905D1FFF7D1FF835072
:1004D000012199400E4300BD00B501681E2904D1D9
:1004E0000022FFF7EAFF03F0C9FA00BD00B58168FA
:1004F0001E2907D10822FFF7E0FF0022FFF7E1FFE6
:1005000003F0BCFA00BD00B501691E290AD1102212
:10051000FFF7D3FF0822FFF7D4FF0022FFF7D1FF38
:1005200003F0ACFA00BD00B581691E290DD1182277
:10053000FFF7C3FF1022FFF7C4FF0822FFF7C1FF38
:100540000022FFF7BEFF03F099FA00BD200000244F
:1005500000B50168282904D14368FFF73EFF036016
:10056000190000BD00B58168282904D1C368FFF7D0
:1005700034FF8360190000BD00B50169282904D14A
:100580004369FFF72AFF0361190000BD3EB5826889
:1005900003698469056A9A4203D0A24201D0AA4243
:1005A0000AD1072A08D847F8046DD600FFF760FF84
:1005B0001E43836003F062FA3EBD3EB50168826867
:1005C00003698469056A914206D0994204D0A14228
:1005D00002D0A94200D03EBD47F8046DCE00FFF71F
:1005E00047FF1E43036003F049FA3EBD00B5FFF725
:1005F00076FEFFF76AFEFFF73BFF036000BD01B523
:1006000006480368013308D00023DB43036047F842
:10061000046D4BF2005603F031FA01BDD8FF0724F8
:10062000440600084202043264757000386847F8D6
:10063000046D043F3860704700B500F0C3FC00F063
:10064000C1FC00BD620600086202053264726F7070
:10065000043740CF704700B500F064FC00F062FC46
:1006600000BDA8060008440205327377617007CF09
:10067000043F386047F8046D043F3A600E0070474D
:1006800000B5FFF750FF026803690360026142682A
:100690004369436042618268836983608261C268A2
:1006A000C369C360C26100BDD006000862020432A3
:1006B0006E69700007CF043F3860704700B5FFF7E0
:1006C00032FFFFF7DDFFFFF70AFEFFF708FE00BD70
:1006D000EA060008440005326F766572B86847F88C
:1006E000046D043F3860FE6870470E070008440040
:1006F00005327475636B07CF043F386047F8046DAB
:10070000043F3A60043F3960043F38607047300767
:10071000000846000432726F74003868B9683A699C
:10072000B86039613A6079687E60FE68F960704748
:1007300052070008460005322D726F743868B96898
:100740003A6938613960BA60F968FE607E6879603C
:1007500070477A070008200203323E7201CF01B4CD
:1007600040B440CF704700B5FFF749FF00F0FDFBF4
:1007700000F09DFC00F09BFC00BDA60700082002D5
:100780000332723E47F8046D40BC01BC043F386040
:10079000704700B5FFF733FF00F0A5FC00F0A3FCA5
:1007A00000F0E3FB00BDD6070008200203327240D0
:1007B00047F8046D019E47F8046D009E704700B530
:1007C000FFF71DFF47F8046D49F6010603F0B1FE7F
:1007D00003F0ABFE00BDFC07000820020632726485
:1007E000726F700002B0704700B5FFF708FF47F85E
:1007F000046D4BF2020603F041F900BD1408000835
:1008000042000364322F3868F1077610400808432D
:10081000386070472A08000862020364322A386888
:10082000001876413860704717E04408000842001D
:100830000464736872003868F1077608400808435A
:1008400038607047900800086202046473686C00A6
:100850003868001876413860704700B5FFF746FEEB
:10086000FFF776FEFFF7A9FE00F07FFBFFF770FEB3
:10087000FFF7A3FE47F8046D402601F0A9FE00F043
:1008800074FB47F8046D44F2401601F0A1FE00BD70
:10089000A20800084200046461627300002E07D4BD
:1008A0007047C0080008420007646E6567617465A0
:1008B00038680021C043F64301304E41386070472C
:1008C00010090008640202642D0007CF121AB1411A
:1008D0000E00043F3A60704700B5FFF724FE00F0B9
:1008E00099FBFFF735FEFFF768FE00F03EFBFFF7D0
:1008F0002FFEFFF762FEFFF7C3FE01F0D3FD00F00D
:10090000A5FB47F8046D44F2801600F04EFD00BDD3
:100910005E090008640202642B0007CF12184E41E2
:10092000043F3A60704700B5FFF7FDFD00F072FB31
:10093000FFF70EFEFFF741FE00F017FBFFF708FE82
:10094000FFF73BFEFFF79CFE01F091FD00F07EFB00
:1009500047F8046D44F2401600F02BFD00BD8809F5
:100960000008610203733E6447F8046DF617704790
:1009700000B500F0C5FAFFF720FE47F8046D41F21C
:10098000C07601F025FE00BDE6090008620203758D
:100990006D2A3868A0FB06063860704747F8046D7A
:1009A000DFF8006500B5FFF7A1FDFFF7D1FDFFF708
:1009B000D9FD01680E43816856EA0146FFF78FFCB6
:1009C000FFF78DFCFFF781FCFFF752FD036056EA4D
:1009D0000336FFF77AFCFFF74BFD036056EA032668
:1009E00003F07CF800BD040A00086202026D2A00D0
:1009F000386880FB06063860704747F8046DDFF8FA
:100A0000A864CFE7420A000844000375642A07CFB0
:100A1000564341437618010C130C59437618010CC8
:100A200080B292B25143434350430022C91852410D
:100A30001204B6180A04090C80184E41043F3860AD
:100A40007047D40A000844000475646D2A0010B58C
:100A5000002447F8046D7E6847F8046D3E69FFF78F
:100A600098FF310040CF300040CF47F8046D3E681A
:100A700047F8046DFE6803B4FFF78BFF03BC330037
:100A800040CF320040CF47F8046D3E6847F8046D10
:100A90003E690FB4FFF77DFF0FBC9219634140CF51
:100AA00089196241634140CF47F8046D7E6847F879
:100AB000046DFE680FB4FFF76CFF0FBC9219634121
:100AC00040CF89196241634140CF1E003A6079608E
:100AD000B86010BDF60A00084300022A2F0000B5D6
:100AE00040B440CFFFF784FF47F8046D40BC00F0EE
:100AF0004CF8043700BD180B00084300052A2F6D81
:100B00006F6400B540B440CFFFF772FF47F8046D43
:100B100040BC00F03AF800BD3A0B000843000375F2
:100B20002A2F00B540B440CFFFF733FF47F8046DDC
:100B300040BC00F01BF8043700BD5E0B000843000A
:100B400006752A2F6D6F640000B540B440CFFFF7E3
:100B500020FF47F8046D40BC00F008F800BD7E0B94
:100B60000008430006756D2F6D6F640000B547F8EF
:100B7000046D002600F019F840CF043700BD9C0B2F
:100B800000084300056D2F6D6F6400B547F8046DD4
:100B9000F61700F032F840CF043700BDEE0B000826
:100BA00044000675642F6D6F640030B4002300228A
:100BB0007968B86835003C68402640004941524198
:100BC0005B41AB4202D804D3A24202D3121BAB4119
:100BD0000130013EF1D10E0038607B60BA6030BC5C
:100BE000704730B400237A68B9680020E2E7640CEB
:100BF0000008440005642F6D6F6400B5F01719D02C
:100C0000FFF756FEFFF733FDF0170CD0FFF750FE4D
:100C1000FFF72DFDFFF7C9FFFFF729FDFFF748FE9E
:100C2000FFF725FD00BDFFF722FDFFF7BEFFFFF731
:100C30003FFE00BDFFF71BFDF0170ED0FFF738FE9B
:100C4000FFF715FDFFF7B1FFFFF732FEFFF70FFDCE
:100C5000FFF72EFEFFF70BFD00BDFFF708FDFFF7C6
:100C6000A4FF00BD7A0C0008440002642F0000B508
:100C7000FFF7C3FFFFF71EFD00BDC20C00084400D4
:100C800002662A0000B5F0170DD0FFF711FEFFF73E
:100C9000EEFCF0170DD0FFF70BFEFFF7D8FE40CFAC
:100CA00001CF386000BDFFF7E2FCF017F5D0FFF789
:100CB000FFFDFFF7CCFE40CF01CF3860FFF7F8FD16
:100CC00000BD0E0D0008440002662F0000B5F017AD
:100CD0000ED0FFF7EDFDFFF7CAFCF0170ED0FFF7BF
:100CE000E7FDFFF7C4FCFFF77CFFFFF7E3FC00BD67
:100CF000FFF7BDFCF017F4D0FFF7DAFDFFF7B7FC04
:100D0000FFF76FFFFFF7D4FDFFF7D4FC00BD560DD2
:100D1000000820020232210006CF3160726040CF0D
:100D2000704700B5FFF7EFFB0168426806B400F0BA
:100D30000CFEFFF7CAFA06BC0160282906D047F866
:100D4000046D46F2400600F004FE00BD043242602D
:100D500000F0FBFD00BDA00D0008200202324000A3
:100D6000043F706838603668704700B500F0C8F816
:100D7000016828290AD047F8046D46F6400600F0BD
:100D8000C5FD00F0F2F800F0BDFD00BD4168043182
:100D9000416000F0B7FD00F0E8F800F0B3FD00BDE1
:100DA000B40D000844000364753C07CF121AB1412A
:100DB000B6417047C80D000844000364753E07CF74
:100DC000801A8E41B6417047DE0D0008440002646F
:100DD0003C0007CF121AB1410CDB00267047FA0D18
:100DE0000008440002643E0007CF801A8E4101DBF8
:100DF000002670470026F6437047160E0008620270
:100E00000364303C0437F617704700B500F0C0F8B3
:100E100000F058FB00BD3E0E000862020364303D46
:100E200001CF0643013EB641704700B547F8046D57
:100E300044F2003600F0BDFA00F01EFB00BD640E67
:100E40000008440203643C3E07CF50404E40064336
:100E5000013EB641F643704700B500F015F800F0CA
:100E60001FFB00BDAC0E0008440202643D0007CF2A
:100E700050404E400643013EB641704700B500F079
:100E800003F800F0F9FA00BD00B5FFF74CFB00F0E5
:100E9000C1F800F0C3F900F0D9F800F0BFF900F094
:100EA000B0F900BD0000A0FB000080FBBE0E0008F2
:100EB00020000373704047F8046D3E007047CE0E6B
:100EC0000008200003737021370040CF7047E00E08
:100ED000000820000372704047F8046D6E467047AA
:100EE000F00E0008200003727021B54640CF704715
:100EF000140F000861020364757047F8046D7047B1
:100F000006B5FFF7E9FA01684268FFF7DEF901600C
:100F1000426006BD400F000861020464726F7000F9
:100F200040CF704700B501681E2906D147F8046D0F
:100F300043F2047602F0A2FD00BDFFF7D0F900BD38
:100F4000560F00086100043F64757000002E01D048
:100F500047F8046D7047820F0008620204737761DE
:100F6000700039683E600E0070470CB5FFF7BEFA9E
:100F700002688368036082604268C3684360C2603D
:100F80000CBDB00F00086202036E69700437704731
:100F900000B5FFF7A1FA81681E2902D0FFF7A5F975
:100FA00000BD47F8046D43F2047602F067FD00BD12
:100FB000D80F00086202046F7665720047F8046D6E
:100FC0007E68704700B5FFF791FA8168C268FFF745
:100FD0007CF90160426000BDFE0F000862020474EB
:100FE00075636B0001CF083F7E603860704700B5C5
:100FF000FFF77CFAFFF784FF00F028F800BD3410FB
:101000000008630203726F7403CF083F78603E608C
:101010000E0070470EB5FFF776FA01688268036923
:101020008160026103604168C2684369C1604261D6
:1010300043600EBD581000086302042D726F7400E7
:1010400003CF083F7E6039600600704700B5FFF7A8
:10105000E1FFFFF7DFFF00BD6A1000082000047009
:1010600069636B0057F82660704782100008000023
:101070000564657074684F49C91B47F8046D8E108C
:1010800070479E1000080000067264657074680066
:1010900047F8046D6E464849891B8E107047D4107E
:1010A00000082002023E720040B440CF704700B5F5
:1010B000FFF7A5FAFFF710FAFFF74AFA47F8046DB1
:1010C0004BF2004601228A40164302F0D7FCFFF79C
:1010D00006F900BD0A110008200202723E0047F81E
:1010E000046D40BC704700B5FFF789FAFFF7EDF8D3
:1010F000FFF7BEF9036047F8046D4BF60046012286
:101100009A40164302F0BAFC00BD281100082002E4
:101110000272400047F8046D009E704700B5FFF76B
:101120006EFA03F002FA00BD4C11000820020572AD
:1011300064726F7001B0704700B5FFF760FA47F84E
:10114000046D4BF2010602F099FC00BD601100082D
:10115000200005727069636BB6006E443668704794
:101160008C110008000004726F6C6C00002E01D11D
:1011700040CF7047B0003958C019031F1A68026089
:101180000438013EF9D104370E007047BC11000845
:101190000000052D726F6C6C002E01D140CF70479E
:1011A000386839464A680A600431013EFAD108605D
:1011B00040CF70478802002488030024D61100081D
:1011C000620203616E6401CF0640704747F8046D08
:1011D00044F20006EDE0F211000862020362696366
:1011E00001CFB0430600704747F8046D44F28036E3
:1011F000DBE00C1200086202026F720001CF0643AE
:10120000704747F8046D44F20036D2E02612000819
:10121000620203786F7201CF4640704747F8046D51
:1012200044F24006C5E03E1200086202012A01CFE6
:101230004643704747F8046D44F24036B9E07212F5
:101240000008610203636C7AB6FA86F6704700B54F
:10125000FFF742F947F8046D7E4EFFF779F90E4328
:1012600056EA0146FFF7C2F956EA032602F036FCB9
:1012700000BD90120008611803726F720120C64110
:1012800070470200010000000020BC12000862024A
:10129000AE120008611803726F6C1F20C6417047C0
:1012A00002001F0000000020BC1200086202CE12E3
:1012B000000862020772726F7461746501CFF041B9
:1012C0000600704747F8046D44F2C0166DE006133F
:1012D00000086202076172736869667401CF304169
:1012E0000600704700B547F8046D44F2001647F851
:1012F000046D41F20006FFF7F9F841681F292AD969
:101300001F21416027E030130008620206727368F3
:101310006966740001CFF0400600704700B547F8D9
:10132000046D44F2C00647F8046D40F6000612E072
:10133000681400086202066C73686966740001CF65
:10134000B0400600704700B547F8046D44F28006CF
:1013500047F8046D0026FFF7C9F80168282903D073
:1013600040CF00F022F800BD04374168FEF7B7FF18
:10137000002901D140CF00BD1F290AD889010E43A1
:101380000268D2001643FFF731F91E4302F076FBE4
:1013900000BD40CFFFF72AF947F8046D42F200067E
:1013A0001B021E4302F06AFB00BD0FB5FFF79EF85B
:1013B0000CE00FB5FFF79AF80168062901D1FFF795
:1013C000D4FD8268282A01D1FFF7CFFDFFF7CAF8C4
:1013D000016828291ED147F8046D466801F020FFF6
:1013E00002CF002E40CF15D0B6F5804F01D11A4E56
:1013F0001EE044F24002964201D1184E18E0B6F5C4
:10140000864F01D1164E13E04FF48742964201D128
:10141000144E0DE0FFF7BAF8FFF79AF8C90082689A
:101420000E43164302F02AFBFEF759FF0FBD0FB51E
:101430000E43816856EA0146FEF751FFFEF74FFF63
:10144000FEF743FFFFF714F8036056EA032602F0A5
:1014500045FB0FBD80F0B0FA000010F0000090F0E6
:10146000000050F0000030F08E14000861020230DD
:101470003D00013EB641704700B500F0FBF801F0B9
:1014800064F8FEF72CFF4FF45241816200BDB614A0
:101490000008610203303C3E013EB641F64370470E
:1014A00000B500F0E7F801F050F8FEF718FF4FF430
:1014B0005341816200BDDE140008610202303C002D
:1014C000F617704700B500F0D5F847F8046D41F203
:1014D000C07601F07DF84FF45541816200BDF414EF
:1014E0000008600004747275650047F8046D0026FA
:1014F000F64370470815000860000566616C736567
:1015000047F8046D002670472E1500084202023E7F
:101510003D0001CFB042EADA0026704747F8046D7B
:101520004DF6003647F8046D4DF60026AEE0541532
:1015300000084202023C3D0001CFB042D7DD002648
:10154000704747F8046D4DF6004647F8046D4DF6B8
:1015500000569BE0781500084202013C01CFB042E2
:10156000C5DB0026704747F8046D4DF6002647F8A6
:10157000046D4DF6003689E09C1500084202013EDC
:1015800001CFB042B3DC0026704747F8046D4DF63A
:10159000005647F8046D4DF6004677E0C215000886
:1015A000620203753E3D01CF861BB641F64370478C
:1015B00047F8046D4DF2003647F8046D4DF20026F1
:1015C00064E0E8150008620203753C3D01CF361A5D
:1015D000B641F643704747F8046D4DF6000647F8EC
:1015E000046D4DF6001651E00C16000862020275FB
:1015F0003C0001CF861BB641704747F8046D4DF2A1
:10160000002647F8046D4DF200363FE03016000822
:10161000620202753E0001CF361AB641704747F8A4
:10162000046D4DF6001647F8046D4DF600062DE0EA
:10163000541600086202023C3E0001CF361A013EF9
:10164000B641F643704747F8046D4DF2000647F87F
:10165000046D1BE0B61700086202013D01CF361A87
:10166000013EB641704747F8046D4DF2001647F849
:10167000046D0BE000B5FEF72FFFFEF767FEFEF7E7
:101680006AFEFEF76DFEFEF76DFF00BD00B5FEF7CA
:101690002DFFFEF75BFEFEF75EFEFEF76DFF826834
:1016A000282A05D1FFF761FC39683E600E46826842
:1016B00040CF016828291DD14168FF2907D847F884
:1016C000046D42F600060E43816809021AE047F8ED
:1016D000046D466801F0A4FD02CF002E40CF09D072
:1016E00047F8046D6A4E0E43816856EA014602F0DF
:1016F000F5F90AE0FEF72CFF47F8046D44F2802666
:10170000C90016430E4302F0B9F9FEF7E8FDFEF7F3
:10171000E6FD866240CF00BD0FB55E48816A0029B4
:1017200035D047F8046D866A00218162310AD529D7
:1017300001D140CF0FBDFEF7C8FDFEF799FE036053
:10174000D22904D14FF4834600F042FF0FBDD329C4
:1017500006D14FF4834600F03BFF00F04CFF0FBD75
:10176000023602F08BF947F8046D42F2000600F0F1
:101770000FF800F040FF47F8046D4EF2000602F04B
:101780007DF947F8046D42F2000600F001F80FBD44
:1017900000B5FEF7A1FEFEF710FF016809020E4337
:1017A00002F06CF900BD00B5816A090AD52901D1A2
:1017B000FEF795FD00BDD41700086202036D696E47
:1017C00001CFB04200DC0600704747F8046D4DF6CB
:1017D00000362DE0F21700086202036D617801CF38
:1017E000B04200DB0600704747F8046D4DF6004636
:1017F0001EE012180008620204756D61780001CFC6
:10180000B04200D30600704747F8046D4DF600065D
:101810000EE098180008620204756D696E0001CF31
:10182000B04200D80600704747F8046D4DF200360C
:1018300000B5FEF75BFE01688268914203D140CF9C
:10184000FEF753FD00BD062A01D1FFF78EFB0168AC
:10185000282901D1FFF789FBFEF7AFFEFEF782FED4
:10186000C900026847F8046D44F280260E4316430F
:1018700002F004F902F002F947F8046D44F2006640
:101880000E43164302F0FAF8FEF72FFD00BD0000EC
:10189000000FB0F120000024D61800080000046DED
:1018A0006F76650007B5310040CF320040CF002988
:1018B0000FD0B2420DD006D3013E013A705C5054B5
:1018C0000139FBD105E03078107001360132013961
:1018D000F9D140CF07BDF818000800000466696C14
:1018E0006C00300040CF310040CF002902D00139D8
:1018F0007054FCD140CF70473A19000820020140D3
:101900003668704747F8046D46F6000600B5FEF7E6
:10191000E3FD0368282B08D143687C2119400901A5
:101920000E437C218B43FEF764FDDB001E43FEF774
:101930005DFE1E4302F0A2F800BD921900082002CD
:10194000012103CF30600E00704747F8046D46F266
:10195000000600B5FEF7CAFD0368282B09D14368CD
:101960007C21194009010E437C218B43FEF741FD88
:101970000360DB001E438368282B02D1C368FEF797
:101980002CFD1E4302F07AF8FEF7A9FCFEF7A7FC37
:1019900000BDC81900082002022B210003CF3268C5
:1019A000121832600E00704700B5FEF79FFDFFF77A
:1019B000A7FAFFF7A7FFFFF72DFB00F058FDFFF791
:1019C000D4FAFFF7C2FF00BD0C1A0008200202681B
:1019D00040003688704700B5FEF77EFD47F8046D7D
:1019E00048F600060368282B08D143683E211940B9
:1019F00049010E433E218B43FEF7FBFCDB001E43F7
:101A0000FEF7F4FD1E4302F039F800BD661A000827
:101A100020020268210003CF30800E00704700B51D
:101A2000FEF764FD47F8046D48F200060368282BB2
:101A300009D143683E21194049010E433E218B43A1
:101A4000FEF7D7FC0360DB001E438368282B02D11E
:101A5000C368FEF7C2FC1E4302F010F8FEF73FFC1D
:101A6000FEF73DFC00BD9C1A0008200203682B21F4
:101A700003CF3288121832800E00704700B5FEF78F
:101A800035FDFFF73DFAFFF7A6FFFFF7C3FA00F0B9
:101A9000EEFCFFF76AFAFFF7C2FF00BDE01A00088C
:101AA0002002026340003678704700B5FEF714FD4F
:101AB00047F8046D47F600060368282B08D14368F1
:101AC0001F21194089010E431F218B43FEF791FC12
:101AD000DB001E43FEF78AFD1E4301F0CFFF00BD71
:101AE0003A1B000820020263210003CF30700E0071
:101AF000704700B5FEF7FAFC47F8046D47F20006A0
:101B00000368282B09D143681F21194089010E431E
:101B10001F218B43FEF76DFC0360DB001E438368CF
:101B2000282B02D1C368FEF758FC1E4301F0A6FF24
:101B3000FEF7D5FBFEF7D3FB00BD701B00082002AB
:101B400003632B2103CF3278121832700E007047D6
:101B500000B5FEF7CBFCFFF7D3F9FFF7A6FFFFF7C1
:101B600059FA00F084FCFFF700FAFFF7C2FF00BD4E
:101B7000941B0008200204626973210003CF3268BD
:101B8000024332600E00704700B547F8046D44F21E
:101B9000003630E0D41B0008200204626963210093
:101BA00003CF3268824332600E00704700B5FEF703
:101BB0009DFCFFF7A5F9FFF7A5FEFFF72BFA47F805
:101BC000046D44F28036FFF7F0FBFFF7CEF9FFF724
:101BD000BCFE00BD141C0008200204786F722100B6
:101BE00003CF3268424032600E00704700B547F8BC
:101BF000046D44F24006FEF779FCFFF781F9FFF728
:101C000081FEFFF707FAFFF7D4FBFFF7AEF9FFF706
:101C10009CFE00BD4A1C000820020462697440005A
:101C200001CF3668064018BF4FF0FF36704700B549
:101C3000FEF75CFCFFF766FE47F8046D44F2000611
:101C4000FFF7B7FBFFF72CFC00BD6E1C000820025D
:101C500005686269732103CF3288024332800E0027
:101C6000704700B547F8046D44F2003630E0AE1C12
:101C70000008200205686269632103CF328882432D
:101C800032800E00704700B5FEF730FCFFF738F9E0
:101C9000FFF7A1FEFFF7BEF947F8046D44F2803666
:101CA000FFF783FBFFF761F9FFF7B9FE00BDEE1CFC
:101CB000000820020568786F722103CF3288424005
:101CC00032800E00704700B547F8046D44F24006BC
:101CD000FEF70CFCFFF714F9FFF77DFEFFF79AF90A
:101CE000FFF767FBFFF741F9FFF799FE00BD141DF1
:101CF0000008200205686269744001CF36880640FA
:101D000018BF4FF0FF36704700B5FEF7EFFBFFF747
:101D100062FE91E7381D00082002056362697321A5
:101D200003CF3278024332700E00704700B547F897
:101D3000046D44F2003630E0781D0008200205638F
:101D40006269632103CF3278824332700E0070479C
:101D500000B5FEF7CBFBFFF7D3F8FFF7A6FEFFF7C2
:101D600059F947F8046D44F28036FFF71EFBFFF780
:101D7000FCF8FFF7BEFE00BDB81D00082002056399
:101D8000786F722103CF3278424032700E00704774
:101D900000B547F8046D44F24006FEF7A7FBFFF7D5
:101DA000AFF8FFF782FEFFF735F9FFF702FBFFF709
:101DB000DCF8FFF79EFE00BD201F0008200205632F
:101DC0006269744001CF3678064018BF4FF0FF3685
:101DD000704700B5FEF78AFBFFF767FE2CE7F54A70
:101DE0001368F54A134000D17047F44AF24C14606E
:101DF0001A00704700B5EF4A136813F00403FBD1D3
:101E0000FFF7EDFF00D000BDEA4A136813F48033FA
:101E100004D0EA4A136843F480331360002200BD03
:101E20001FB5E74AE74B1360E74B1360E74A1368B7
:101E300013F001032AD1FFF7DDFF1400002C3BD182
:101E4000E24A146844F002041460BFF36F8FBFF3DA
:101E50004F8F0A464FF0080352F8041B40F8041B4A
:101E6000013BF9D1BFF36F8FBFF34F8FFFF7C2FF75
:101E70001446D649086820F002000860D34A116869
:101E800041F001011160002C16D11FBD01F064F872
:101E900022151B5B33316D4572726F7220312077D2
:101EA000726974696E6720666C61736820211B5BC0
:101EB000306D0A0003F0ACB847F8046D264601F017
:101EC000B3F801F049F822151B5B33316D4572728E
:101ED0006F7220322077726974696E6720666C6158
:101EE000736820211B5B306D0A0003F091B801F08C
:101EF00033F828151B5B33316D466C6173682063C2
:101F0000616E6E6F74206265207772697474656E9D
:101F10002074776963651B5B306D0A0003F078B845
:101F2000A81F00080000083332666C617368210046
:101F30000FB51F2030401AD001F00EF82C151B5B96
:101F400033316D3332666C61736821206E65656470
:101F5000732033322D616C69676E6564206164643F
:101F6000726573731B5B306D0A0003F051B8306803
:101F70000130BCD170680130B9D1300040CF4FF092
:101F80000051CE6140CF8E6140CF4E6140CF0E6197
:101F900040CFCE6040CF8E6040CF4E6040CF0E60CD
:101FA00040CFFFF73DFF0FBDAC20000800001065DB
:101FB00072617365666C617368736563746F7200D8
:101FC00000B5012EC0F08980082E80F086807C4A02
:101FD0007C4B13607C4B136000F0BEFF0D457261BB
:101FE000736520736563746F722047F8046D02F0A7
:101FF0004CFEFFF7FFFE002A1DD047F8046D164681
:1020000001F012F800F0A8FF28151B5B33316D209A
:10201000496E697469616C20466C617368206572F1
:10202000726F722064657465637465641B5B306DE8
:102030000A0002F0EDBF654A136803F4E66353F04B
:10204000B403360233431360FFF7D4FE14465F4AED
:10205000136840F2047103EA0103136053F00103B3
:102060001360002C17D047F8046D264600F0DCFF03
:1020700000F072FF1D151B5B33316D20466C6173E0
:1020800068206572617365206572726F721B5B30C8
:102090006D0A02F0BDBF00F05FFF0C66726F6D202D
:1020A000466C6173682E0A0040CF00BD082200080C
:1020B00000000A6572617365666C6173680072B6D0
:1020C00000B5434843490268B2F1FF3F05D047F8E5
:1020D000046D0126FFF774FF02E004308842F2D35A
:1020E0003D483E490268B2F1FF3F05D047F8046D14
:1020F0000226FFF765FF02E004308842F2D3384839
:1021000038490268B2F1FF3F05D047F8046D032655
:10211000FFF756FF02E004308842F2D332483349D9
:102120000268B2F1FF3F05D047F8046D0426FFF7BF
:1021300047FF02E004308842F2D32D482D4902685F
:10214000B2F1FF3F05D047F8046D0526FFF738FFD1
:1021500002E004308842F2D3274828490268B2F1ED
:10216000FF3F05D047F8046D0626FFF729FF02E080
:1021700004308842F2D3224822490268B2F1FF3F7C
:1021800005D047F8046D0726FFF71AFF02E0043078
:102190008842F2D300F0E0FE1246696E697368650A
:1021A000642E20526573657420210A005DF804EBEB
:1021B00002F0E1BF102000520000EE171420005280
:1021C0000420005223016745AB89EFCD0C2000525B
:1021D00000000208FFFF030800000408FFFF0508D5
:1021E00000000608FFFF070800000808FFFF0908B5
:1021F00000000A08FFFF0B0800000C08FFFF0D0895
:1022000000000E08FFFF0F082A22000800000969DD
:102210006E6974666C6173688F484FF49061002238
:10222000027001300139FBD17047DC220008000048
:102230000773746D616C656E00B58748202103B427
:1022400000F08AFE03203E0A03BC47F8046D0668CE
:1022500003B400F081FE09416472657373653A202E
:1022600003BC00F0E1FE03B400F076FE08496E689E
:10227000616C743A200003BC47F8046D466800F0B6
:10228000D3FE47F8046D866800F0CEFE47F8046D73
:10229000C66800F0C9FE47F8046D066900F0C4FE88
:1022A00047F8046D466900F0BFFE47F8046D866983
:1022B00000F0BAFE47F8046DC66900F0B5FE47F8B5
:1022C000046D066A00F0B0FE03B400F045FE032082
:1022D0003E0A03BC24300139B7D100BDE823000811
:1022E00000000768666C6173682130B5320040CF2A
:1022F000500818D300F030FE28151B5B33316D6891
:10230000666C61736821206E65656473206576650F
:102310006E206164647265737365732E1B5B306D30
:102320000A0002F075BE4D4B9A4215D200F014FE21
:1023300023151B5B33316D43616E6E6F74207772B2
:1023400069746520696E746F20636F726520211B4C
:102350005B306D0A02F05CBE53093F4820210468DF
:1023600064099C422FD024300139F8D13A48202109
:102370000468002C1CD024300139F9D100F0ECFDA8
:102380002B151B5B33316D546F6F206D616E79209F
:1023900073636174746572656420466C6173682050
:1023A0007772697465732E1B5B306D0A02F030BE64
:1023B0005B010360013941608160C160016141617D
:1023C0008161C16101621F2111400431465240CF39
:1023D0000168013101601F221140102903D100F072
:1023E0001AF8FFF7A5FD30BD6024000800000A665A
:1023F0006C757368666C6173680000B516482021BF
:102400000268002A03D000F006F8FFF791FD24309F
:102410000139F5D100BD47F8046D466847F8046DF1
:10242000866847F8046DC66847F8046D066947F882
:10243000046D466947F8046D866947F8046DC669FE
:1024400047F8046D066A47F8046D1F26F6430268D4
:102450001640002202607047880300240000020832
:10246000962400086202012B01CF3618704700B590
:10247000FEF73CF847F8046D43F2000647F8046D98
:10248000C94E47F8046D41F600068168282917D126
:10249000FEF76BFD14E03C2500086202012D01CF20
:1024A000861B704700B5FEF721F847F8046D43F628
:1024B000000647F8046DBD4E47F8046D41F600264E
:1024C000FEF750F80168282927D14168FF290CD868
:1024D00040CF40CFFEF75AF80E43816809020E4301
:1024E00001F0CCFAFDF7FBFE00BD47F8046D0E00CD
:1024F00000F096FE02CF002E40CF0ED040CF043722
:102500000E43816856EA0146FDF7E9FEFEF76EF8D4
:1025100056EA032601F0E2FA00BD04370437FEF75D
:1025200017F889018268D2000E431643FDF7D7FEE3
:10253000FEF75CF81E4301F0A1FA00BD5425000827
:10254000610202312D00013E704747F8046D41F6EB
:1025500040663DE06C250008610202312B00013627
:10256000704747F8046D41F6404631E08425000885
:10257000610202322D00023E704747F8046D41F6B9
:10258000806625E09C250008610202322B0002369D
:10259000704747F8046D41F6804619E0B6250008FB
:1025A00061020563656C6C2B0436704747F8046D57
:1025B00041F600560CE0E82500086102066E6567EA
:1025C000617465007642704747F8046D44F2402616
:1025D00000B5FDF781FF0168C9000E43FEF706F85C
:1025E0001E4301F04BFA00BD002600086102036E95
:1025F0006F74F643704747F8046D44F2C036E7E75E
:10260000182600086102037368727608704747F85D
:10261000046D40F64006DBE72826000861020373DC
:10262000686C7600704706E03E26000861020232C0
:102630002A007600704747F8046D4026C8E7562602
:10264000000861020563656C6C73B600704747F85B
:10265000046D8026BCE76E260008610202322F005E
:102660007610704747F8046D41F24006B0E7AE2699
:102670000008610203616273F01736184640704724
:1026800000B5FDF729FF47F8046D00260168C90071
:102690000E43FDF7ABFF1E4301F0F0F947F8046D60
:1026A0004DF2005601F0EAF9FFF78EFF00BDCC268F
:1026B0000008420005752F6D6F6401CF3100B0FB3B
:1026C000F6F67143401A043F38607047EA26000866
:1026D0004200042F6D6F640001CF310090FBF6F6CD
:1026E0007143401A043F38607047FE2600084200DC
:1026F000036D6F6400B5FFF7EFFF40CF00BD3E27CD
:1027000000086202012F01CF90FBF6F6704700B57A
:10271000FDF7ECFEFDF71CFFFDF724FF47F8046D05
:10272000234E01680E43816856EA0146FDF7D7FD46
:10273000FDF75CFF56EA032601F0D0F900BD5227F1
:1027400000086100046576656E000120304036188F
:1027500070476A270008810004626173650047F8CA
:10276000046D144E70470A00000080270008000026
:102770000662696E617279000E480221016070473D
:1027800096270008000007646563696D616C09485D
:102790000A2101607047442A000800000368657838
:1027A0000448102101607047000010F10000B0F1F2
:1027B000F0F090FBFCFF0724BFF34F8FBFF36F8F48
:1027C0008B494FF000000860BFF34F8FBFF36F8F4E
:1027D0008849086840F400300860BFF34F8FBFF3AA
:1027E0006F8F7047BFF34F8FBFF34F8FBFF34F8F84
:1027F000BFF36F8F70478049086820F00F0040F0EA
:1028000004000860086800F00F000428FAD170473F
:102810007A49086820F03F0040F0040008607047E3
:102820007749086820F4404040F440400860086858
:1028300010F40050FBD070477249086840F48020C3
:1028400008607049086840F480300860086810F437
:102850000030FBD070476C49086820F0030040F05E
:10286000020008606949086840F4803008606749E0
:10287000086840F4802008606449086820F00C0073
:1028800040F0040008606149086820F0020040F050
:10289000000008605C49086820F47C7040F040004B
:1028A000086040F28F125A49086820F4FF7040EA2D
:1028B000020008605649086820F47E4040F4007029
:1028C00008605349086820F4FE0040F44030086076
:1028D0004F49086820F0FE4040F080700860704763
:1028E0004849086840F080700860086810F000707F
:1028F000FBD070474749086820F00F0040F00800FF
:1029000008604549086820F0070040F003000860AF
:102910004049086820F00F0040F0080008603D4979
:10292000086820F0700040F0400008603B490868EB
:1029300020F0700040F0400008603849086820F43A
:10294000E06040F4806008603549086820F070005D
:1029500040F040000860704700B5FFF759FFFFF7EF
:102960005FFFFFF769FFFFF776FFFFF7B9FFFFF79C
:10297000C1FFFFF740FF2B494FF0030008602A49D1
:10298000086850F00F0050F4FE600860274908689E
:1029900020F4403050F4003008602449086820F4E6
:1029A000402050F4002008602149086820F00F0002
:1029B00050F0070008601E49086820F0F00050F051
:1029C000700008601B49086850F4802008601A49AC
:1029D0005FF40B70086019494FF480500860184983
:1029E0004FF00D00086000F01DF95DF804EB704732
:1029F00050EF00E014ED00E0002000520C480258B7
:102A00001848025800440258284402582C440258DE
:102A10003044025818440258104402581C440258CA
:102A20002044025854440258E0440258000C025812
:102A3000240C0258E84402580C4800400848004062
:102A400000480040602A0008810009686F6F6B2D04
:102A5000656D697447F8046D614E7047C02C0008BD
:102A60007C2A0008810008686F6F6B2D6B65790008
:102A700047F8046D5B4E7047982C00089A2A0008AE
:102A800081000A686F6F6B2D656D69743F0047F8B0
:102A9000046D554E70476C2C0008B62A0008810062
:102AA00009686F6F6B2D6B65793F47F8046D4F4E6A
:102AB0007047422C0008D42A000881000A686F6F12
:102AC0006B2D70617573650047F8046D484E704753
:102AD00026510008EA2A0008000004656D697400A8
:102AE0000FB53F4800F026F80FBDFE2A0008000091
:102AF000036B65790FB53B4800F01CF80FBD102B38
:102B00000008000005656D69743F37480068874616
:102B1000222B00080000046B65793F0033480068F1
:102B20008746382B000800000570617573653048D2
:102B300000688746006887465E2B000800000B731C
:102B4000657269616C2D656D697400B500F025F8DA
:102B5000002E40CFFAD0274A167040CF00BD862BFA
:102B6000000800000A73657269616C2D6B6579005D
:102B700000B500F028F8002E40CFFAD047F8046DD9
:102B80001D4A167800BDB42B000800000C73657256
:102B900069616C2D656D69743F0000B5FFF7C7FF73
:102BA00047F8046D0026154801688020014000D0D8
:102BB000F64300BD002C000800000B7365726961CC
:102BC0006C2D6B65793F00B5FFF7B1FF47F8046DD9
:102BD00000260A4801682020014000D0F64300BDCD
:102BE000F8FF0724F4FF0724F0FF0724ECFF072475
:102BF000E8FF072428480040244800401C480040C3
:102C0000142C000800000373776447F8046D5FEA32
:102C10000B067047322C00080000087377642D699A
:102C20006E69740000B52D49002008605FEA010B51
:102C300000BD5C2C00080000087377642D6B65797B
:102C40003F0000B5FFF773FF47F8046D5A46107850
:102C500051780026884218BF013E00BD8A2C00082A
:102C60000000097377642D656D69743F00B5FFF747
:102C70005EFF47F8046D5A469078D1780130C0B2B3
:102C80000026884218BF013E00BDB02C000800009D
:102C9000077377642D6B657947F8046D5A46507851
:102CA00011788842FCD0011D8E5C01305070704755
:102CB000E02C00080000087377642D656D697400CE
:102CC0005B469878411CC9B2DA789142FCD000F595
:102CD0008270C654997040CF7047000000400020B9
:102CE000042D00080000076365787065637400B503
:102CF000386801B40130386000F00BF801BC067090
:102D000040CF00BD7A2D0008000006616363657046
:102D1000740000B502CF01390022FFF7EBFE30004E
:102D200040CF7F2809D0202819D2092816D00A2898
:102D30001FD00D281DD00828EFD1002AEDD000F0BB
:102D40000BF903082008002AE7D0885C013A8023A9
:102D50000340E2D040230340F5D0DEE72020B2421A
:102D6000DBD247F8046D0600FFF7BAFE0132885443
:102D7000D3E7160000F09FF800BD8C2D000840003E
:102D80000374696247F8046D294E7047A22D00084C
:102D90008100033E696E47F8046D264E70470000BF
:102DA0000000C82D000882000E63757272656E7493
:102DB0002D736F757263650047F8046D1E4E704782
:102DC00000000000C0000024E42D0008000009738A
:102DD0006574736F75726365174802CF0660416052
:102DE00040CF7047022E0008000006736F757263B3
:102DF000650047F8046D104E043F7068386036680F
:102E000070473C2E000800000571756572790FB59A
:102E1000084800210160FFF7B5FF47F8046D47F847
:102E2000046DC826FFF775FFFFF7D6FF0FBD000042
:102E3000C0000024E4FF0724DCFF0724842E0008E0
:102E4000000007636F6D706172650FB5310040CF90
:102E500001CF884202CF10D1002810D001380A5C7F
:102E6000335C412A02D35B2A38BF2032412B02D384
:102E70005B2B38BF20339A42EED000260FBD0026D0
:102E8000F6430FBD982E000800000263720000B5E3
:102E900000F062F8010A00BDAA2E000800000262DC
:102EA0006C0047F8046D20267047BE2E0008000015
:102EB00005737061636547F8046D202610E6DE2E09
:102EC00000080000067370616365730000B5002E92
:102ED00003DDFFF7F0FF013EFBD140CF00BDEE2E3A
:102EE00000085000065B636861725D0005E0062F14
:102EF0000008000004636861720000B501F0F6FC90
:102F000040CF367800BD162F00085004012847F83E
:102F1000046D292606E0302F00085004015C47F8B4
:102F2000046D002600B501F0EBFC043740CF00BD76
:102F3000742F00083000022E2200AA4800B547F87E
:102F4000046D060000F07DFA47F8046D222601F0BA
:102F5000D7FC00F0CEFD00BD0AB447F8046D7646FC
:102F6000013E33780121013319405B181EEB030E3B
:102F70000ABC39E09A2F00083000026322009A4808
:102F8000DCE747F8046D7646013E337801210133D2
:102F900019405B181EEB030E7047C42F0008300069
:102FA000027322009148C9E747F8046D764647F856
:102FB000046D013E36780121731C19405B181EEB2D
:102FC000030E7047DC2F0008000005636F756E74F8
:102FD000013647F8046D013E36787047F42F00083B
:102FE000000005637479706500B5FFF7F1FF00F02C
:102FF00007F800BD1C3000080000047479706500FB
:1030000001B501CF002E07D047F8046D0678FFF711
:1030100067FD0130013EF7D140CF01BD56300008B9
:103020000000046865782E0007B5310040CF2020ED
:103030000F22043847F8046D0E00C6401640092ED2
:1030400001D9373600E03036FFF74AFD0028F0D1CD
:10305000FFF731FF07BD66300008000003682E73DC
:103060001FB5634C0EE076300008000003752E7328
:103070001FB5604C06E01A3100080000022E7300F4
:103080001FB55D4C5D49C91B8908220A2020292FE4
:10309000200A2028273E200A202F434320202033C7
:1030A00035204343430A385C29295F200A0A544AE1
:1030B000106803B40A201060FFF74EFF08537461D4
:1030C000636B3A205B0047F8046D0E0001F0E5FDEC
:1030D000FFF742FF025D200003BC2736484A10601C
:1030E00000290AD0474A106806B447F8046D060064
:1030F000A04706BC043A0139F5D1FFF72DFF0620A1
:10310000544F533A200047F8046D3600A047FFF7AC
:1031100023FF04202A3E0A001FBDBA310008000028
:1031200005776F72647300B5FFF716FF010A00F0B0
:1031300053FFFFF711FF09416464726573733A200E
:1031400047F8046DFFF770FFFFF706FF064C696E46
:103150006B3A200047F8046D3668FFF765FFFFF70C
:10316000FBFE07466C6167733A2047F8046DB6882A
:10317000FFF75AFFFFF7F0FE06436F64653A200041
:10318000B01D00F077FF47F8046D0600FFF74CFF15
:10319000FFF7E2FE064E616D653A200047F8046DC8
:1031A0000636FFF721FFFFF7D7FE010A00F02CFFDC
:1031B000300040CFBDD040CF00BD0C320008000031
:1031C00006756E757365640000B501F02DF80E4844
:1031D00001684FF01052914201D24FF00166761A09
:1031E00000BD0000582F0008822F0008A82F0008FB
:1031F000293000088B4C00089B4C000888020024F2
:10320000FCFF072484020024D0FF07247033000849
:1032100000000D3132626974656E636F64696E67B8
:103220000FB5FF2E04D847F8046D5FF0FF360FBDD1
:1032300016F0FF10B0420ED14FF6FF710840310C6E
:10324000814208D116F0FF0656F4805647F8046D07
:103250005FF0FF360FBD16F0FF20B0420FD14FF6E2
:10326000FF710840310C814209D1360A16F0FF0681
:1032700056F4005647F8046D5FF0FF360FBDFF228D
:1032800031001140300A1040884210D1300C1040FB
:1032900088420CD1300E1040884208D116F0FF064B
:1032A00056F4405647F8046D5FF0FF360FBD30000E
:1032B00000210131001850F100007FF07F02024030
:1032C000802A05D01F29F4D347F8046D00260FBDCE
:1032D0000829F9D3060036F0800611F00100C0017C
:1032E000064311F00E00C002064311F010008005E5
:1032F000064347F8046D5FF0FF360FBD47F8046DD5
:10330000DFF804665FF4704110EA0102120116430F
:103310005FF4006110EA0102D20316435FF4E0613A
:1033200010EA010212011643FF2110EA01021643BE
:103330001E43D3E347F8046DDFF8D0655FF07041BA
:1033400010EA0102120B16435FF0006110EA01025D
:10335000520816435FF0E06110EA0102120B1643B7
:103360005FF47F0110EA0102120C16431E43B5E31D
:10337000D633000800001072656769737465726C5B
:1033800069746572616C2C000FB5330040CF1B026D
:10339000FF2E05D856F400561E4300F06FFB0FBDFC
:1033A000FFF73EFF002E40CF06D0DFF8640506434E
:1033B0001E4300F093FB0FBDF643FFF731FF002ED5
:1033C00040CF06D0DFF84C0506431E4300F086FBD5
:1033D0000FBDF6430BE0363400080000096D6F7630
:1033E000776D6F76742C0FB5330040CF1B02300021
:1033F00040CFFFF783FF4FF6FF7110EA014001D085
:10340000FFF798FF0FBD0FB50136300040CF002306
:10341000FFF774FFFFF78EFF06E00FB5013647F8A0
:10342000046D0026FFF7B0FF47F8046D44F2807684
:1034300000F024FB0FBD9C34000800000563616CA4
:103440006C2C0FB5330000F0E0FE300040CF1B1AAB
:10345000043BDFF8C4141940002906D0DFF8BC246F
:10346000914202D0BDE80F40D7E740CF5B08DFF8BC
:10347000B00440F2FF7119400843DB0A40F2FF310B
:103480001940090408439B0A13F001018906084307
:1034900047F8046D060000F021FB0FBDD234000890
:1034A0000000086C69746572616C2C0008B547F8FF
:1034B000046D4FF6470600F0E1FA47F8046D46F652
:1034C000045600F0DBFA47F8046D0626FFF75CFFB0
:1034D00008BD04350008000006637265617465006C
:1034E00000B500F044F843F22550C0F600008047D4
:1034F00047F8046DBEF101064FF01050864500D22A
:10350000103600BD60350008200005646F65733E0D
:1035100043F22550C0F60000804747F8046DBEF125
:103520000106704747F8046DBEF10106FD4A1368B5
:10353000FD4909684FF01050834205D21F20084012
:10354000042805D00231F9E70220084000D00231FA
:1035500002311160FFF757FF136000F0FAF900BD68
:10356000BC3500080000073C6275696C647300B5E7
:1035700000F0F0FBEB4801684FF01052914209D285
:1035800000F043FE1F200640042E40CF0AD000F07A
:1035900067FAF5E700F039FE0220064040CF01D07F
:1035A00000F05EFA47F8046D4BF2005600F066FA40
:1035B00047F8046D0A2600F0CFFA00BDC8350008B0
:1035C0005000035B275D03E0E035000800000127A1
:1035D00000B501F08BF900F0B0FD300040CF00BD28
:1035E00016360008300008706F7374706F6E6500D7
:1035F00000B5FFF7EDFF47F8046D060039683E603F
:103600000E46FFF753FFFFF751FF47F8046DC74E13
:10361000FFF717FF00BD6C360008000007696E6CED
:10362000696E652C00B54BF200514BF6005244F226
:1036300070733088884208D0904208D0984206D0F3
:1036400047F8046D060000F019FA0236F1E740CFA2
:1036500000BD0EB44BF6005244F270730188023084
:10366000914201D09942F9D10EBC704782360008D0
:103670000000047265742C0047F8046D4BF6005688
:10368000FCE1903600083000046578697400F3E7C7
:10369000A83600083000077265637572736547F8D5
:1036A000046DA14E3668CCE6C03600088100057373
:1036B0007461746547F8046D9D4E7047000000000A
:1036C000D23600080000015D99480021C94301601D
:1036D0007047E23600081000015B95480021016048
:1036E0007047023700080000013A00B591480760B2
:1036F00000F030FB8E48012101608F4800210160FD
:1037000000BD883700083008013B00B589480168D2
:10371000B94219D089498E4202D1894EFFF764FC23
:10372000FFF71AFC1F151B5B33316D205374616367
:103730006B206E6F742062616C616E6365642E1B1A
:103740005B306D0A01F064BC79480068411C10D000
:103750000B2805D847F8046D40F6200600F030F934
:1037600047F8046D44F2707600F088F901F03CFBF4
:1037700005E047F8046D4BF6005600F07FF900F0C5
:10378000E8F8FFF7AAFF00BD9C37000800000765B6
:10379000786563757465300040CF8746B43700089C
:1037A000100009696D6D65646961746547F8046DA1
:1037B000102605E1CA370008500006696E6C696E74
:1037C000650047F8046D2026FAE0E4370008100091
:1037D0000B636F6D70696C656F6E6C7947F8046D83
:1037E0003026EDE0FE37000850000A302D666F6C81
:1037F0006461626C650047F8046D4026E0E01838AB
:10380000000850000A312D666F6C6461626C6500BF
:1038100047F8046D4126D3E03238000850000A32E0
:103820002D666F6C6461626C650047F8046D42261A
:10383000C6E04C38000850000A332D666F6C646196
:10384000626C650047F8046D4326B9E066380008ED
:1038500050000A342D666F6C6461626C650047F835
:10386000046D4426ACE08038000850000A352D660F
:103870006F6C6461626C650047F8046D45269FE0DB
:103880009A38000850000A362D666F6C6461626CCD
:10389000650047F8046D462692E0B43800085000F1
:1038A0000A372D666F6C6461626C650047F8046DC1
:1038B000472685E0E4380008000008636F6E7374E3
:1038C000616E740000B500F045FAFFF7EFFD47F8B0
:1038D000046D44F2707600F0D1F8FFF78CFF00F031
:1038E00038F800BD4439000800000932636F6E7378
:1038F00074616E7400B500F02DFA39683E600E46B2
:10390000FFF7D4FDE1E70000000040F20000C0F244
:1039100000005FF000007FF00100C0FF0000C0FF6A
:1039200000F800F0D0FF07240C000024E24C00084F
:10393000D8FF07240800002454000024851912042D
:103940008A300008B0390008000006736D7564679E
:10395000650000B5EF4801684FF01052914220D247
:1039600002390A884FF6FF739A4205D147F8046D71
:103970004FF0000600F082F800F04FF800F062F817
:10398000E548006847F8046D0600E4490968043119
:10399000E04A1368116000F071F81360FEF72DFD26
:1039A00000BD00F03AF847F8046D4FF0000608E05B
:1039B000F8390008000008736574666C616773006D
:1039C00000B5D44801684FF01052914205D2D24858
:1039D00001683143016040CF00BD320040CFCF4885
:1039E0000068043001884FF6FF73994201D111003D
:1039F00000E01143018000BD0E3A0008410007615C
:103A00006C69676E65640336032086437047343AF9
:103A10000008000005616C69676E00B5BD4801686B
:103A20000220014005D047F8046D4FF0000600F079
:103A300025F800BD723A0008000008616C69676EE5
:103A400033322C0000B5B34801681F20014006D076
:103A500047F8046D4FF0000600F010F8F3E700BDE2
:103A600047F8046D362609E047F8046D4CF64076B9
:103A700004E0B83A0008000002682C000FB5B6B2A6
:103A8000A7480168002902D0013100D00160A14897
:103A900001684FF01052914205D247F8046D0E00B4
:103AA000FEF723FC02E0320040CF0A8047F8046DA5
:103AB000022600F051F80FBDD23A00080000012C98
:103AC00001B547F8046DFFF7D9FF360CFFF7D6FFB5
:103AD00001BDE43A00080000033E3C2C01B5102073
:103AE000C641EEE74C3B0008000007737472696E34
:103AF000672C07B5FF21314040CF300040CF00296F
:103B000005D147F8046D0026FFF7B8FF07BD47F859
:103B1000046D067836020E43FFF7B0FF013001391D
:103B200002290AD347F8046D467836020278164314
:103B3000FFF7A4FF02300239F2E7002900D107BDE8
:103B400047F8046D0678FFF799FF07BDBE3B0008F4
:103B5000000005616C6C6F746E4801684FF0105284
:103B6000914215D2320040CF89184FF00162914244
:103B700023D3FFF7F1F915151B5B33316D466C61EB
:103B800073682066756C6C1B5B306D0A01F040BA7F
:103B9000320040CF8918634A126891420DD3FFF773
:103BA000DBF913151B5B33316D52616D2066756C4B
:103BB0006C1B5B306D0A01F02BBA01607047DA3B79
:103BC0000008810008286C6174657374290047F847
:103BD000046D554E7047E4010008F23B0008810077
:103BE00004286470290047F8046D504E7047080897
:103BF0000024163C0008000009666F726765747245
:103C0000616D00B500F025F8484849490160464813
:103C10004849016000BD3E3C000800000D636F6D27
:103C200070696C65746F72616D3F47F8046D3F4851
:103C300000684FF010518842B641F6437047603C2F
:103C4000000800000C636F6D70696C65746F7261C1
:103C50006D00364800684FF01051884212D370470B
:103C6000D23C000800000E636F6D70696C65746F64
:103C7000666C617368002D4800684FF010518842EF
:103C800000D2704728482C4902680B680A6003601C
:103C900026482A4902680B680A60036021480068C8
:103CA000834215D300B5FFF757F923205661726997
:103CB00061626C657320636F6C6C69646520776901
:103CC00074682064696374696F6E6172790A00BDFB
:103CD0007047EE3C000800000C61646472696E6617
:103CE0006C6173683F0013484FF001610BE0443D85
:103CF000000800000A61646472696E72616D3F00C1
:103D00004FF010500E49864202D38E42B6417047A2
:103D100000267047D0FF072418000024D4FF072492
:103D2000D8FF07241C000024D4FF0724D0FF072459
:103D300008080024E40100081400002410000024F6
:103D4000000008245C3E00080000082863726561DA
:103D50007465290000B500F0C9FD002E13D1FFF7EE
:103D6000FBF81F151B5B33316D2043726561746571
:103D7000206E65656473206E616D6520211B5B306C
:103D80006D0A01F045B9386847F8046D043F3860A2
:103D900000F07FF940CF002E40CF16D0386847F8AA
:103DA000046D043F3860FFF7D7F80F1B5B33336DAA
:103DB000205265646566696E6520FFF721F9FFF79B
:103DC000CBF8062E1B5B306D2000FFF726FE9848CF
:103DD00000684FF01051884227D296484FF00001FA
:103DE0000160FFF72FFE47F8046D1C26FFF7B4FEB5
:103DF00000F00BFA47F8046D0626FFF7ADFEFDF75D
:103E00001FF9FFF776FE8C4801680A684FF0FF3310
:103E10009A4207D1864A1368116047F8046DFFF78C
:103E20004FFE1360066040CF13E000F0EEF98248C9
:103E300047F8046D0668FFF743FE47F8046D4FF638
:103E4000FF76FFF71BFE7C48310040CF0160FFF793
:103E500050FE774801687948016000BD743E000853
:103E60000000087661726961626C650047F8046D54
:103E7000012613E08C3E0008000009327661726969
:103E800061626C6547F8046D022607E0FE3E00089B
:103E90000000096E7661726961626C6500B5FFF7BA
:103EA00059FF634801684FF01052914218D20F2019
:103EB0000640B20000F04CF8300040CF020000286D
:103EC00005D00E600431FFF7FBFD0138F9D147F84A
:103ED000046D80261643FFF773FDFFF73AFD00BD22
:103EE00000F055F8300040CF002803D0FFF7E8FD80
:103EF0000138FBD1FFF77FFCFFF72BFD00BDC23F70
:103F000000080000076275666665723A00B5FFF743
:103F100021FF012030403618022030403618444836
:103F200001684FF0105291420DD2320000F010F8AB
:103F3000FFF7C6FD47F8046D40F24016FFF740FD5D
:103F4000FFF707FD00BD00F022F8FFF705FED1E7FF
:103F500000B53B480168891A3A4A914210D2FEF7EF
:103F6000FBFF19151B5B33316D4E6F7420656E6F4F
:103F70007567682052414D1B5B306D0A01F048B8EF
:103F8000016047F8046D0E00FFF790FA12E000B5EB
:103F900000F03BF90220064040CF01D1FFF760FD61
:103FA00047F8046D284EFFF799FD47F8046D274E3A
:103FB000FFF794FD47F8046D44F27076FFF75EFD5D
:103FC00000BDF23F000800000F64696374696F6E02
:103FD0006172797374617274154800684FF0105102
:103FE00047F8046D884201D2194E7047124E366868
:103FF00070475440000800000E64696374696F6E76
:104000006172796E6578740003B531684FF0FF30E6
:10401000814207D08879FF2804D00E0047F8046D4C
:10402000002603BD47F8046D0026F64303BD0000DB
:10403000D0FF072418000024D4FF07240C0000241C
:104040001C000024080800243E60043F02367E461F
:10405000E40100088640000800000A736B69707371
:104060007472696E67003178013101220A40891843
:104070007618704706B40178013101220A40891888
:10408000401806BC70479840000800000466696E3E
:104090006400304800688746B44000088100096821
:1040A0006F6F6B2D66696E6447F8046D2A4E70471A
:1040B000C24000085C4100080000062866696E6482
:1040C000290030B50020002103B4350040CF340072
:1040D00040CFFFF781FF4FF6FF70B18888421ED0B6
:1040E000B179A9421BD1F01D0139425C635C412AC0
:1040F00002D35B2A38BF2032412B02D35B2B38BF5F
:1041000020339A420BD10029EED102B0B01DFFF747
:10411000B1FFB18803B44FF01050864207D2366821
:104120004FF0FF30864202D0B079FF28D3D103BCD4
:10413000060047F8046D0E0030BD00B53100386848
:1041400003B4FFF7A6FF03BC3A68002A01D100F0D0
:1041500003FF00BDCCFF0724CCFF0724C4410008A7
:10416000000006636A756D702C00320040CF31008C
:1041700040CF8B1B043B6FF0FE011940002913D088
:104180006FF0FF0081420FD0FEF7E6FE17151B5BB4
:1041900033316D4A756D7020746F6F206661721BCC
:1041A0005B306D0A00F034BF5B10FF210B401343FE
:1041B00030001E0000B5CE4A13681060FFF75EFCA9
:1041C000136000BDFE4100080000056A756D702C8B
:1041D000310040CF300040CF0B1A043BC549194095
:1041E000002902D0C44A9142CED15B1040F2FF7246
:1041F000134053F4604347F8046D1E00DAE714429D
:104200000008000004686572650047F8046DB84E48
:10421000366870474243000800000D666C617368A1
:104220007661722D6865726547F8046DB34E366825
:10423000704700B547F8046D42F60066FFF71EFCB4
:10424000FFF712FC00BDE0E700B500F03AF839686E
:104250003E600E4647F8046D4DF20016FFF785FFED
:1042600000BD00B500F02DF839683E600E4647F8F5
:10427000046D4DF20076FFF778FF00BD00B5FFF743
:10428000D8FF00F01EF839683E600E4647F8046D0E
:104290004DF20006FFF769FF00BD00B500F011F810
:1042A00039683E600E46FFF793FF00BD00B5FFF78B
:1042B000C0FFFFF7AAFF47F8046D0226FFF74CFC8A
:1042C00000BD00B5FFF7A1FF47F8046D0226FFF718
:1042D00043FC00BD00B5FFF798FFFFF779FF00BD75
:1042E00000B5FFF792FF47F8046D4DF20006FFF7A7
:1042F0003CFF00BD00B5FFF788FF47F8046D4DF2A5
:104300000016FFF732FF00BD00B5FCF7E5F8FCF73B
:104310001DF8FCF720F8FCF723F88168282901D163
:10432000FCF720F9FCF714F947F8046D42F6000693
:1043300009020E43FFF7A2FBFBF7D1FFFBF7FAFFE1
:1043400000BD6E4300083000047468656E00052EE1
:1043500001D140CFBEE7F1B200296DD100B5FFF722
:1043600054FF39683E600E46FFF7FFFE00BD8A43EA
:104370000008300004656C73650000B500F036F885
:10438000FCF775F9FFF7E3FF00BDE04300083006D6
:104390000269660000B5FFF789FF47F8046D4DF22A
:1043A000000600BD00B5FCF72AF9FDF7FCF9816AAB
:1043B000002907D002B4FBF7BDFFFFF782FF47F8E3
:1043C000046D40BDFFF7A0FFFFF71FFF47F8046D26
:1043D0000226FFF7C1FB47F8046D4DF2000600BD51
:1043E000FA430008300005616865616400B5FFF7B5
:1043F00068FF47F8046D052600BD1444000830002E
:10440000067265706561740000B500F060F8FFF732
:104410009EFF00BD624400083006057768696C6540
:1044200000B5FFF7B7FFFCF722F900BD00B5FFF7B5
:10443000B9FFFCF71CF900BDFEF78EFD21151B5BD3
:1044400033316D5374727563747572657320646F64
:104450006E2774206D617463681B5B306D0A00F019
:10446000D7BDC2440008300605756E74696C012E14
:10447000E2D140CF02E77047012EDDD140CF00B539
:10448000FDF791F9816A00290DD002B4FBF752FFC4
:10449000FFF717FF39683E600E4647F8046D40BCD1
:1044A000FFF763FE00BDFFF72FFFFFF70AFF396834
:1044B0003E600E4647F8046D4DF20006FFF755FECC
:1044C00000BDD6440008300005616761696E012EA9
:1044D000B2D140CFE1E600450008300005626567D3
:1044E000696E00B5FFF7AFFE47F8046D012600BD09
:1044F000D0FF072401F8FFFF00F8FFFF1C00002495
:104500001A4500082002016B47F8046D029E7047AF
:1045100047F8046D49F602060BE048450008200202
:10452000016A47F8046D009E704747F8046D49F62C
:10453000000600B5FBF7C9FEFBF79AFF03601B02FC
:104540001E43FFF79BFA00BD744500082002016975
:1045500047F8046D2600704700B547F8046D40F237
:104560002006FBF7B2FEFBF783FF03601E43FFF755
:1045700085FA00BDB24500083000056C65617665BE
:1045800000B5754801683B00043F1A68043B1A6097
:1045900008338B42F9D103B4FFF793FE03BC330019
:1045A00040CF04390B60016004390A6801320A60A7
:1045B00000BDC4450008200006756E6C6F6F70006A
:1045C00030BC7047FC4500083000052B6C6F6F70E5
:1045D000032E00D030E740CF00B547F8046D5F4EA2
:1045E000FFF720F8FFF73DFE1AE014F10044641BCA
:1045F000A41940CF2C44A4F1004470473E46000863
:104600003000046C6F6F7000032E00D014E740CFB1
:1046100000B547F8046D524EFFF704F8FFF714FE9B
:1046200000F04AF94C48310040CF016047F8046D72
:104630004C4EFEF7F7FF00BD0134AC427047864692
:104640000008300202646F0000B547F8046D464E62
:10465000FEF7E8FF4048016847F8046D0E0047F890
:10466000046D00260760FFF7EEFD47F8046D032692
:1046700000BD00B500F02FF8ECE730B4340040CFB7
:10468000350040CF70476C4700083002033F646F2D
:1046900000B547F8046D344EFEF7C4FF47F8046DCB
:1046A00044F2AC26FFF7EAF92B48016847F8046D9D
:1046B0000E00FFF706FE013647F8046D0126264876
:1046C0000760FFF7C0FD47F8046D032600BD00B585
:1046D00000F001F8E2E700B5FBF791FFFBF706FFFA
:1046E000FBF734FEFBF737FEFBF73AFE47F8046DA5
:1046F0004BF23046FFF7C2F90168282908D047F885
:10470000046D40F20406C9000E43FFF7B7F907E055
:1047100047F8046D466847F8046D0426FEF734FE3A
:104720008168282908D047F8046D40F20506C900C1
:104730000E43FFF7A3F907E047F8046DC66847F892
:10474000046D0526FEF720FEFBF7C9FDFBF7C7FD4C
:10475000FBF710FE00BD000004000024EA4500083D
:1047600038460008C04500087A4600088C47000813
:10477000300004636173650000B5FBF740FF47F844
:10478000046D002647F8046D082600BDA247000806
:104790003000033F6F666B4809E0013EB64140CFF1
:1047A0007047604800083002026F66006648082EB5
:1047B00000D041E640CF00B547F8046D0600FEF793
:1047C00031FFFFF77EFD39683E600E46013647F83F
:1047D000046D0926FFF748F900BD082E00D02BE62E
:1047E00040CF00B5FBF782FEFBF7B0FDFBF7B3FD52
:1047F000FBF7B6FD47F8046D44F28026FBF7B2FEE6
:104800000E430268282A1ED14268FF2A08D840CFEA
:1048100047F8046D42F60006164309020E4314E001
:1048200047F8046D4668FEF7FBFC04CF002E40CF2E
:1048300006D0464E164356EA0146FFF74FF906E00A
:10484000FBF786FE0A00D2001643FFF717F9FBF7C5
:1048500046FDFBF78FFDB4E7300040CFB042704714
:1048600096480008300005656E646F66092E00D01A
:10487000E2E540CF00B540B440CFFFF722FD3968F4
:104880003E600E46FFF736FD47F8046D40BC47F822
:10489000046D082600BDE0480008300007656E641E
:1048A00063617365082E00D0C6E540CF00B5FFF701
:1048B000DBF800F001F800BD00B5300040CF002863
:1048C0000DD003B401213140002903D0013EFFF790
:1048D00007FD01E0FFF7FEFC03BC0138EFE700BD78
:1048E000F4480008000005746F6B656E47F8046DAE
:1048F000202605E0584900080000057061727365C4
:1049000010B5134801684068124A12688418202EB6
:1049100007D191420FD0835CB34202D10132841897
:10492000F7E7914207D0835C0132B342F9D1861890
:10493000361B013E01E08618361B043F3C600548EB
:10494000026010BD9A47000858480008000FB0F1F7
:10495000DCFF0724E4FF07249649000800000564F3
:1049600069676974CF4B1B68303E0BD30A2E0BD39B
:10497000073E0A2E06D3242E06D3203E0A2E01D34C
:10498000242E01D3002670479E42FBD247F8046DC7
:104990000026F6437047A04A00080000066E756DB9
:1049A000626572003FB5310040CF701E01260122C2
:1049B00004B4BC4B1B680024002500293CD0013006
:1049C000013902782D2A04D101B00022D24304B467
:1049D000F3E7232A01D10A23EFE7242A01D1102388
:1049E000EBE7252A01D10223E7E72E2A01D102268F
:1049F000E3E72C2A36D047F8046D1600FFF7B4FF22
:104A0000002E40CF2BD047F8046D260047F8046DE8
:104A10002E0047F8046D1E0047F8046D00260FB401
:104A2000FBF7F5FF0FBC350040CF340040CF00222C
:104A3000A419554140CFC0E704BC002A04D5002288
:104A4000E443ED430134554133002600012B02D0ED
:104A500047F8046D2E0047F8046D1E003FBD01B0FD
:104A600000263FBD2500002402260029E4D0425C38
:104A700001392E2AF9D047F8046D1600FFF774FFAC
:104A8000002E40CFEBD0043F3C6047F8046D1E0081
:104A90000FB4FCF76BF80FBC340040CF40CFE4E715
:104AA000C24A00080000062E6469676974000A2E75
:104AB00001D230367047242E01D237367047232674
:104AC0007047F84A0008000004686F6C6400330007
:104AD00040CF7548017843290DD20131017040184B
:104AE000012907D0013802780130027001380139FC
:104AF0000129F7D103707047184B000800000568C2
:104B00006F6C643C330040CF67480178432902D280
:104B10000131017043547047304B000800000473AA
:104B200069676E00002E01D440CF70472D26CEE776
:104B3000444B0008000002233E005B480678013029
:104B4000386070475C4B000800000366235310B5C3
:104B5000202400F008F8013CFBD110BD7E4B00087A
:104B600000000266230000B547F8046D4D4E36681C
:104B7000FBF70FFFFFF79BFFFFF7C4FF00BD9A4B4A
:104B8000000800000223530000B500F00AF8002ED0
:104B9000FBD138680028F8D100BDC64B00080000E2
:104BA000012300B547F8046D3E4E366847F8046DA2
:104BB0000026FBF7FAFFFBF75AFD40CFFFF777FF20
:104BC000FFF785FF00BDD84B00080000023C230022
:104BD0003548002101707047EA4B0008000002666A
:104BE0002E0047F8046D202604E0384C0008000031
:104BF00003662E6E00B510B4340040CFFCF7F2F916
:104C0000FBF74CFE47F8046D0026FFF7E1FFFFF7C6
:104C1000BBFF40CF2C26FFF775FF002C03D0FFF71A
:104C2000A2FF013CFBD110BC40CFFFF77BFF47F850
:104C3000046D47F8046D1CE04E4C0008000003753D
:104C4000642E00B5FFF7C4FFFFF79EFF11E0804C14
:104C50000008000002642E0000B5FCF7C3F9FBF762
:104C60001DFEFFF7B5FFFFF78FFFFCF7CDF9FFF74C
:104C700059FFFFF762FFFEF7C3F9FEF71CF900BD0D
:104C8000924C0008000002752E0047F8046D0026C3
:104C9000D7E7704E00080000012E47F8046DF617A4
:104CA000DAE70000FCFF07247C00002430B54FF059
:104CB00010542568002D01D13D00256030BD30B570
:104CC0004FF010543D00256030BD30B54FF010540A
:104CD0000025256030BD4FF010531B68DB1B9B087F
:104CE000704700B5310040CF4FF48050084002D0EB
:104CF00000F0A6F800BD4FF48060084001D1FCF739
:104D00000BFD320040CFFFF7D1FF4FF400500840B9
:104D100003D047F8046D160000BDFFF7DCFF8020CC
:104D2000084006D14020084009D00F2008408342A7
:104D300005D347F8046D1600FEF72DFD00BD4FF4B6
:104D40000070084014D0FBF762FA47F8046D1600B3
:104D500047F8046D0E0000F031F81000FEF779FC02
:104D6000421CCD489047FFF7AAFFFBF75FFA00BD52
:104D7000FBF74DFA47F8046D160047F8046D0E0076
:104D800000F01CF8FBF7D6FAFFF79FFF4FF4006026
:104D9000084001D1FBF733FC47F8046D16001022E0
:104DA0000A4002D0FEF7F7FC00BD20220A4002D0E4
:104DB000FEF738FC00BDFEF744FB00BD0FB5320026
:104DC00040CF330040CFB5480168062907D20620FE
:104DD0004143B348401803801B0C43808280AF4896
:104DE0000168013101600FBD0FB5AC4801680629AB
:104DF0001FD8AB4801391DD047F8046D0E00FEF7EF
:104E00003DFE47F8046D0688FEF738FE47F8046D4E
:104E10004688FEF733FE47F8046D8688FEF72EFEBF
:104E200006300139EDD147F8046D41F20006FEF776
:104E3000C7FD0FBD47F8046D4026FEF7C1FD0FBD4D
:104E400000B5300040CFFEF704FC0188023047F87F
:104E5000046D068842881204164347F8046D86885C
:104E600003B4FFF73EFF03BC06300139EFD100BDAC
:104E7000B84E00080000086576616C7561746500C5
:104E800000B5FDF7B6FF01CF01B440B440CF85486F
:104E9000016802B400210160FDF79EFF00F014F8E4
:104EA000804802BC016047F8046D40BC01BC043F6F
:104EB0003860FDF791FF00BDE84F00080000096968
:104EC0006E7465727072657400B57748874210D948
:104ED000FEF742F81A151B5B33316D537461636B37
:104EE00020756E646572666C6F771B5B306D0A00AF
:104EF0008EE06E4887420FD2FEF72EF819151B5B25
:104F000033316D537461636B206F766572666C6FBD
:104F1000771B5B306D0A7BE0FFF7C8FEFFF7E6FC0E
:104F2000002E02D1043740CF00BD386847F8046D29
:104F3000043F3860FFF7ADF8310040CF320040CF7A
:104F4000002A20D138683100FCF7E6FBFFF72AFD84
:104F5000320040CF002AB8D147F8046D060047F868
:104F6000046D0E00FEF74CF8FDF7F6FF16151B5BFF
:104F700033316D206E6F7420666F756E642E1B5B0F
:104F8000306D0A0044E04A4B1B68002B21D1FFF72B
:104F90009CFE30230B40302B13D1FEF731F8FDF788
:104FA000DBFF1C151B5B33316D20697320636F6D54
:104FB00070696C652D6F6E6C792E1B5B306D0A000D
:104FC00026E0043740CF47F8046D1600FEF7E3FBF8
:104FD0007BE7043740CF47F8046D160047F8046DAF
:104FE0000E00FFF77EFE70E704500008810009689C
:104FF0006F6F6B2D7175697447F8046D2D4E704796
:1050000042500008CC50000800000471756974001B
:10501000DFF8A4D0244FFDF7FFF828480A210160EB
:105020002348002101604FF010500160FBF7C9F9DF
:105030001C48016022480160224941601D48006807
:105040008746FDF7E4FEFFF73FFF19480068002898
:1050500006D0FDF781FF0720061B5B33346D05E0AA
:10506000FDF77AFF0720061B5B33366D1648006894
:105070004FF01051884207D2FDF76EFF086F6B2783
:105080001B5B306D0A00DCE7FDF766FF086F6B2ED7
:105090001B5B306D0A00D4E720000024540000247C
:1050A00058000024E4FF072488020024880100241B
:1050B000D8FF0724C8FF072488030024FCFF072427
:1050C000DCFF0724C0000024D0FF0724E6500008BE
:1050D00000000565696E743F47F8046DEFF31086B4
:1050E000013EB6417047F650000820000465696E25
:1050F000740062B670470651000820000464696EAF
:10510000740072B670471C51000820000469707367
:10511000720047F8046DEFF30586704728510008C8
:105120000000036E6F7070476A5100080000097537
:105130006E68616E646C656400B5FDF70DFF145513
:105140006E68616E646C656420496E746572727518
:105150007074200047F8046DEFF30586FDF764FFD7
:10516000FDF7FAFE02210A0000BD7C510008000094
:10517000057265736574C948C9490160A651000884
:1051800081000B6972712D7379737469636B47F8D1
:10519000046DC44E7047385100084FF6C470C2F217
:1051A000074000688746CE51000881000969727186
:1051B0002D6661756C7447F8046DBB4E70473851AD
:1051C00000084FF6C070C2F2074000688746FC51E5
:1051D000000881000E6972712D636F6C6C656374D9
:1051E000696F6E0047F8046DB04E70473851000883
:1051F0004FF6BC70C2F20740006887462452000890
:105200008100096972712D657874693047F8046D01
:10521000A74E7047385100084FF6B870C2F20740E9
:10522000006887464C5200088100096972712D653B
:105230007874693147F8046D9E4E70473851000804
:105240004FF6B470C2F207400068874674520008F7
:105250008100096972712D657874693247F8046DAF
:10526000954E7047385100084FF6B070C2F20740B3
:10527000006887469C5200088100096972712D659B
:105280007874693347F8046D8C4E704738510008C4
:105290004FF6AC70C2F2074000688746C45200085F
:1052A0008100096972712D657874693447F8046D5D
:1052B000834E7047385100084FF6A870C2F207407D
:1052C00000688746EA5200088100076972712D6103
:1052D000646347F8046D7B4E7047385100084FF601
:1052E000A470C2F20740006887461253000881008C
:1052F000086972712D74696D320047F8046D724E41
:105300007047385100084FF6A070C2F2074000689D
:1053100087463A5300088100086972712D74696DDF
:10532000330047F8046D694E7047385100084FF656
:105330009C70C2F2074000688746625300088100F3
:10534000086972712D74696D340047F8046D604E00
:105350007047385100084FF69870C2F20740006855
:1053600087461C000208FFFF182D2D2D20466C617A
:1053700073682044696374696F6E617279202D2DA2
:105380002D00FDF7E9FA53488546534F2A2647F882
:10539000046D524E524DB1884FF6FF73994225D09D
:1053A0004FF480730B400AD0B01DFEF763FEFEF78A
:1053B00050F90388408800040343ED1A16E0802367
:1053C0000B4013D00F23194089006D1AB01DFEF752
:1053D00051FEFEF73EF947F8046D060047F8046DEC
:1053E0002E0047F8046D0E00FCF75CFAFEF70CFE89
:1053F000300040CFCFD03B48066040CF3A480560F0
:105400004FF0016039494FF6FF72884204D00238EC
:1054100003889342F9D0023035490860FCF7FCFE5E
:10542000FDF79AFD444D6563726973702D53746581
:105430006C6C6172697320524120322E362E3520F9
:10544000666F722053544D333248373435204E75D1
:10545000636C656F207633206279204D61747468C7
:10546000696173204B6F63680A004FF01050002190
:105470000160FAF7A6FF47F8046D1E4E47F8046D69
:105480000426FEF706FE40CF002E02D0FEF783F979
:10549000D4E540CFBCE5696E697400000CED00E016
:1054A0000400FA05C4FF0724C0FF0724BCFF07243B
:1054B000B8FF0724B4FF0724B0FF0724ACFF07247C
:1054C000A8FF0724A4FF0724A0FF07249CFF0724AC
:1054D00098FF07248803002488020024E4010008C0
:1054E00000000824140000241C000024000002080E
:0854F00010000024965400088E
:0400000508000000EF
:00000001FF
